:100000000C9461010C9480010C9480010C9480018B
:100010000C9480010C9480010C9480010C9480015C
:100020000C9480010C9480010C9480010C9480014C
:100030000C94F21F0C9480010C9480010C948001AC
:100040000C9480010C9480010C9480010C9480012C
:100050000C9480010C9416200C9480010C94800167
:100060000C9480010C9480010C9480010C9480010C
:100070000C9480010C9480010C9480010C948001FC
:100080000C94561F0C9480010C9480010C94E31F77
:100090000C94D0200C9415210C9480010C948001B8
:1000A0000C9480010C9480010C9480010C948001CC
:1000B0000C9480010C9480010C9480010C948001BC
:1000C0000C9480010C9480010C9480010C948001AC
:1000D0000C9480010C9480010C9480010C9480019C
:1000E0000C9480010C9480010C9480010C94B8163F
:1000F0000C94E0160C9435170C9480010C9408179E
:100100000C9480010C9480010C9480010C9480016B
:100110000C9480010C9480010C9480010C9480015B
:10012000261B871B841B811B181B3F1B1F1B4A1B85
:10013000521B791BBC24C32480278027802780275B
:10014000B12582268027F82680270B257327802754
:1001500094267827802780278D24082780278027CA
:100160008027802780277A2780278027802780275D
:10017000B1257E278027802780278027802780271A
:100180007827A9256E616E00696E660000407A10BE
:10019000F35A00A0724E18090010A5D4E80000E838
:1001A0007648170000E40B54020000CA9A3B000096
:1001B00000E1F505000080969800000040420F0025
:1001C0000000A08601000000102700000000E803E6
:1001D000000000006400000000000A0000000000B1
:1001E0000100000000002C76D888DC674F0823DF70
:1001F000C1DFAE59E1B1B796E5E3E453C63AE65143
:10020000997696E8E6C28426EB898C9B62ED407C69
:100210006FFCEFBC9C9F40F2BAA56FA5F490055A05
:100220002AF75C936B6CF9676DC11BFCE0E40D472A
:10023000FEF520E6B500D0ED902E0300943577054D
:100240000080841E080000204E0A000000C80C3305
:100250003333330F986E12831141EF8D2114893B94
:10026000E65516CFFEE6DB18D1844B381BF77C1D14
:10027000901DA4BBE424203284725E228100C9F167
:1002800024ECA1E53D274E414E494E495459494E73
:1002900046CDCCCC3D0AD7233C17B7D13877CC2BF1
:1002A000329595E6241FB14F0A000020410000C896
:1002B0004200401C4620BCBE4CCA1B0E5AAEC59D17
:1002C000740011241FBEC0E0D0E4DEBFCDBF15E036
:1002D000A0E0B2E0E4EAF9E600E00BBF02C007905C
:1002E0000D92A437B107D9F72CE0A4E7B5E001C01F
:1002F0001D92A13FB207E1F70E9402140C94D03482
:100300000C9400008091DF0881608093DF080895DD
:100310009F92AF92BF92CF92DF92EF92FF920F9394
:100320001F93CF93DF938C017B01EC010990002098
:10033000E9F72197C81BD90BAC2EB12CBA14B0F435
:100340006801CB0CD11CF60180810E944D21982EB2
:10035000F60181810E944D21F0E19F9E800D1124C4
:10036000F70181937F01B394B394E8CF8C2F8695E6
:10037000DF91CF911F910F91FF90EF90DF90CF9081
:10038000BF90AF909F9008950F931F93CF93DF93EB
:100390008B01EB012196833009F44EC050F581307A
:1003A00071F1823009F07FC08091A1091F928F9373
:1003B0008091A0091F928F9380919C088F938091C8
:1003C0009B088F9380919E088F9380919D088F93B7
:1003D0008AE792E09F938F93DF93CF930E94F4314B
:1003E000ADB7BEB71C960FB6F894BEBF0FBEADBF7B
:1003F0005AC0853071F130F18630B1F154C080912E
:10040000A1091F928F938091A0091F928F9387E378
:1004100092E09F938F9381E492E09F938F93DF9379
:10042000CF930E94F431ADB7BEB71A960FB6F894C9
:10043000BEBF0FBEADBF37C061EE72E0CE010E94FD
:100440005D3131C084ED98E09F938F9385EF92E00A
:100450001EC081EA98E09F938F938FE093E09F9373
:100460008F93DF93CF9317C040EA58E061E080E0BC
:1004700091E00E94D1178091A0088F3F11F4109253
:10048000A0088091A0081F928F938FE293E09F9322
:100490008F93DF93CF930E94F4310F900F900F90C2
:1004A0000F900F900F90FE0101900020E9F7EC1BD8
:1004B000D801EC938E2F8095881F8827881FDF91A5
:1004C000CF911F910F9108951F93CF93DF93CDB7D5
:1004D000DEB7C058D1090FB6F894DEBF0FBECDBF4E
:1004E000BE016F5F7F4F80E8FB0111928A95E9F7AB
:1004F00081E00E94C401182F882341F0AE014E5FB5
:100500005F4F698180E090E00E94141A812FC058EB
:10051000DF4F0FB6F894DEBF0FBECDBFDF91CF9196
:100520001F910895CF93DF93CDB7DEB7C058D1099F
:100530000FB6F894DEBF0FBECDBFBE016F5F7F4F19
:1005400080E8FB0111928A95E9F782E00E94C401DC
:10055000AE014E5F5F4F698180E090E00E94141A07
:1005600081E0C058DF4F0FB6F894DEBF0FBECDBF9D
:10057000DF91CF910895CF93DF93CDB7DEB7699721
:100580000FB6F894DEBF0FBECDBFBE016F5F7F4FC9
:1005900089E1FB0111928A95E9F783E00E94C40189
:1005A000AE014E5F5F4F698180E090E00E94141AB7
:1005B00081E069960FB6F894DEBF0FBECDBFDF9124
:1005C000CF910895CF93DF93CDB7DEB7A3970FB642
:1005D000F894DEBF0FBECDBFBE016F5F7F4F83E2D9
:1005E000FB0111928A95E9F784E00E94C401AE01F3
:1005F0004E5F5F4F698180E090E00E94141A81E0B5
:10060000A3960FB6F894DEBF0FBECDBFDF91CF919A
:100610000895CF93DF93CDB7DEB7C555D1090FB697
:10062000F894DEBF0FBECDBFBE016F5F7F4F85E583
:10063000FB0111928A95E9F785E00E94C401AE01A1
:100640004E5F5F4F698180E090E00E94141A81E064
:10065000CB5ADF4F0FB6F894DEBF0FBECDBFDF9190
:10066000CF910895CF93DF93CDB7DEB7A3970FB6A1
:10067000F894DEBF0FBECDBFBE016F5F7F4F83E238
:10068000FB0111928A95E9F786E00E94C401AE0150
:100690004E5F5F4F698180E090E00E94141A81E014
:1006A000A3960FB6F894DEBF0FBECDBFDF91CF91FA
:1006B00008958F929F92BF92CF92DF92EF92FF9216
:1006C0000F931F93CF93DF93CDB7DEB7CD54D109EE
:1006D0000FB6F894DEBF0FBECDBF2E969FAF8EAF84
:1006E0002E977E0183E4E80EF11C88E0F701982F35
:1006F00011929A95E9F74E01EBE38E0E911CF401ED
:1007000011928A95E9F7CE0101966C0182E3F60118
:1007100011928A95E9F72C961FAE2C97B090950808
:100720002E960EAD1FAD2E976DE373E0C8010E94AB
:100730007E31892B09F49AC04AE453E06CE473E0FB
:10074000C8010E94A423009729F1B6010E948801E4
:100750008BAB6FEF680FA60184E290E00E94E61772
:100760008BA9FE01E80FF11D808180939F084FE95E
:1007700058E061E081E690E00E94E61780919308DE
:100780008D7F8093930843E958E061E082E290E036
:100790000E94E6174AE453E06AE573E02E968EADB8
:1007A0009FAD2E970E94A423009791F0B6010E945E
:1007B00088018BABAE014D5C5F4F61E087E590E057
:1007C0000E94E617A6016BA988E590E00E94E61753
:1007D0004AE453E06BE673E02E968EAD9FAD2E9704
:1007E0000E94A423009781F10E942A302C962FADFD
:1007F0002C9730E00097C9F0E22FF0E0EE0DFF1DDE
:10080000313029F0382F3F70308331E008C030811B
:10081000482F4295407F342B30832F5F30E064E0D7
:10082000969587956A95E1F7E5CF2C962FAF2C9793
:10083000A70168E080E090E00E94E617A40168E06C
:1008400080E090E00E94D117B401C7010E945431AA
:10085000892B09F056C1809193088E7F809393086D
:1008600043E958E061E082E290E030C066E773E07F
:10087000C8010E947E31892B09F03BC163E873E017
:10088000C8010E947E31892B09F036C166E973E008
:10089000C8010E947E31892B19F00E94640231C187
:1008A00069EA73E0C8010E947E31892BA1F088E0DB
:1008B000E1E2F2E0DE01D39601900D928A95E1F734
:1008C000AE014D5C5F4F68E080E090E00E94E6176B
:1008D00050E2B52E16C165EB73E0C8010E947E316F
:1008E000892B09F43CC042E55BE061E082EF9FE0C8
:1008F0000E94E61749E45BE062E084EF9FE00E941B
:10090000E6174BE45BE062E086EF9FE00E94E617AB
:1009100081E02C968FAF2C97AE01455B5F4F61E075
:1009200080EF9FE00E94E6172E96EEADFFAD2E976A
:1009300011821082AE01445B5F4F66E08AEF9FE058
:100940000E94E617F8942FE088E190E00FB6F89443
:10095000A895809360000FBE20936000FFCF65ECE8
:1009600073E0C8010E947E31892B59F14AE453E0BB
:100970006AEC73E0C8010E94A423009709F4C1C087
:10098000FC0101900020E9F78F0101501109081BBB
:10099000190B0BAB033308F0B4C0BC0181EA98E03B
:1009A0000E945D3161E0600F6BAB41EA58E087E780
:1009B00090E00E94E617809193088F7780939308C8
:1009C0003BC061ED73E0C8010E947E31892B19F0B4
:1009D0000E94090396C066ED73E0C8010E947E3153
:1009E000892B91F14AE453E066EE73E0C8010E945E
:1009F000A423BC01009709F484C0FC0101900020ED
:100A0000E9F78F0101501109081B190B0BAB0B30D3
:100A100008F077C084ED98E00E945D3161E0600FDE
:100A20006BAB44ED58E08CE690E00E94E6178091B5
:100A300094088E7F8093940843E958E061E082E255
:100A400090E00E94E6175DC068EF73E0C8010E9465
:100A50007E31892B19F00E94E20253C068E074E0F5
:100A6000C8010E947E31892B69F00E94320362E83E
:100A700071E08CE390E00E94CB1E8093740548E205
:100A8000B42E3FC06FE074E0C8010E947E31892B14
:100A9000B1F56BE174E0C8010E947E31892B89F1C8
:100AA0001BAA4AE453E065E274E0C8010E94A42353
:100AB000009739F1BE016D5C7F4F0E9488018BA9C0
:100AC0008630F9F4F8E2BF121CC0809174050E94D0
:100AD000151F0E94730E882349F062E871E08CE3D1
:100AE00090E00E94CB1E809374050BC037E2B32EBA
:100AF00008C02AE0B22E05C094E1B92E02C08FE1F1
:100B0000B82E8B2DC35BDF4F0FB6F894DEBF0FBE40
:100B1000CDBFDF91CF911F910F91FF90EF90DF90AC
:100B2000CF90BF909F908F900895EF92FF920F9378
:100B30001F93CF93DF93CDB7DEB7CA58D1090FB655
:100B4000F894DEBF0FBECDBF7C018E010F571F4F43
:100B50008AE0D8011D928A95E9F7FE01319680E876
:100B6000DF011D928A95E9F7F7016185728583851A
:100B700094852AE0A8010E94A031D70154968C9157
:100B800054971F928F9313968C9113971F928F9364
:100B900012968C9112971F928F9315968C911597A0
:100BA0008F9314968C9114978F9311968C91119723
:100BB0008F938C918F9317966D917C91189780E00D
:100BC00090E00E94302C20E030E048EC52E40E949B
:100BD0009C2B9F938F937F936F931F930F9381E32E
:100BE00094E09F938F930F5711091F930F930E94C7
:100BF000F431F80101900020E9F76E2F601B698342
:100C00000FB6F894DEBF0FBECDBF67FD07C0A801C9
:100C100080E090E00E94141A81E001C080E0C65795
:100C2000DF4F0FB6F894DEBF0FBECDBFDF91CF917F
:100C30001F910F91FF90EF9008950F93813019F459
:100C40000F910C94C90A823029F405E020E04CE7AA
:100C50006AED16C0843031F405E02CED4AED6CE706
:100C600088EF0FC0833031F405E020E040EA62EF06
:100C70008AED07C0853039F400E020E040E060E014
:100C800080E00E94890A0F9108950C94B10A0F9395
:100C90001F93CF93DF93CDB7DEB7E2970FB6F894EB
:100CA000DEBF0FBECDBFAE014F5F5F4F82E3FA01E3
:100CB00011928A95E9F78091A0099FED980F9230E3
:100CC00018F0843209F0D1C060E184E290E00E9423
:100CD000D1170A811B81602F70E0762F6627610F84
:100CE000711D882777FD8095982F0E94322C20E077
:100CF00030E048EC52E40E949C2B6093CE0B709342
:100D0000CF0B8093D00B9093D10B89818093CA092C
:100D10000093CE091093CF091092F50929E1209391
:100D2000F6091092F70984E68093F8099C85909360
:100D3000F9099D859093FA099E859093FB093F855B
:100D40003093FC0998899093FD099C819093050A42
:100D50009D819093060A9091A109923009F002C1F9
:100D60001092D0098093D1091092D2098093D309AF
:100D70001092D4098093D5091092D6098093D7098F
:100D80001092D8098093D9091092DA098093DB096F
:100D90001092DC098093DD091092DE098093DF094F
:100DA0008091A009813259F51092E0092093E10960
:100DB00081E08093E2098AE08093E4091092E509DA
:100DC0001092E3098093E90994E09093EA09109264
:100DD000EB0927E02093EC098093ED099093EE094D
:100DE0001092EF0926E02093F0098093F109909387
:100DF000F2091092F30985E08093F4092AC0823247
:100E000089F41092E00982E38093E1091092E609E7
:100E10002093E7099093E80983E08093E209909397
:100E20000D0A17C08432A9F41092E00982E380937E
:100E3000E1091092E6092093E7099093E80983E01D
:100E40008093E2099093E90984E08093EA09109283
:100E5000EB0933FF04C08DE180930B0A02C01092AE
:100E60000B0A307230930C0A7DC08852823008F031
:100E700079C062E184E290E00E94D1170A811B816F
:100E8000602F70E0762F6627610F711D882777FD30
:100E90008095982F0E94322C20E030E048EC52E4FC
:100EA0000E949C2B6093CE0B7093CF0B8093D00B42
:100EB0009093D10B89818093CA090093CE09109336
:100EC000CF092E812093F5099F819093F6092093F5
:100ED000F7099093F80988858093F90989858093AB
:100EE000FA098A858093FB098B858093FC093C85F0
:100EF0003093FD093D853093FE093E853093FF090F
:100F00003093000A3F853093010A38893093020AF2
:100F100039893093030A3A893093040A3C8130932B
:100F2000050A3D813093060A3091A1093230D1F48F
:100F30000093D0091093D1092093D2099093D3093B
:100F40009091080A992319F091E09093070A83FF82
:100F500004C09DE190930B0A02C010920B0A8072AC
:100F600080930C0AE2960FB6F894DEBF0FBECDBF99
:100F7000DF91CF911F910F910895AF92BF92CF92C1
:100F8000DF92EF92FF920F931F93CF93DF938C0129
:100F900038E0D32EA82E0E946720F801B080B394C9
:100FA00082E00E948420C02FD12F22E0C22E8C2FFD
:100FB0008A198B1540F47E0189910E948420F701E3
:100FC0008081C826F4CF8C2D0E9484201092CD0BF6
:100FD00078940E940F208091CD0B863420F40E94DB
:100FE000B320882339F00E940D208091CD0B8634E8
:100FF00040F00DC00E94AF1A882369F30E94031BC2
:10100000EACF0E94BF20863069F0893049F08FED29
:101010009EE20197F1F700C00000DA9409F0BBCF1F
:1010200080E001C081E0DF91CF911F910F91FF908F
:10103000EF90DF90CF90BF90AF900895CF93DF9364
:10104000CDB7DEB728970FB6F894DEBF0FBECDBF81
:101050009091110A8091140A9230F9F497E09983E3
:1010600098E19A8381110AC08091940881FF06C09B
:101070008091050A8B838091060A05C08091CE0974
:101080008B838091CF098C831D821E828091080AF8
:101090008F838091090A888719C094E0998392E12F
:1010A0009A8381110AC08091940881FF06C08091C3
:1010B000050A8B838091060A05C08091CE098B8337
:1010C0008091CF098C8380910A0A8D83CE0101968D
:1010D0000E94BD0728960FB6F894DEBF0FBECDBFA5
:1010E000DF91CF910895DF92EF92FF920F931F93BC
:1010F000CF93DF938C010E94BF20C82F823009F567
:101100000E94BF20E82EF80180818E15D0F0FE2CC1
:10111000FC26D02EC02FD12F8C2F8D198E1528F4A0
:101120000E94BF208993F826F7CF0E94BF20F812B3
:1011300005C086E00E94842081E004C085E10E9411
:10114000842080E0DF91CF911F910F91FF90EF906D
:10115000DF900895CF93DF93CDB7DEB762970FB6D8
:10116000F894DEBF0FBECDBF8091110A8230C1F569
:1011700022E1CE010196FC01322F11923A95E9F756
:1011800029830E947308882309F456C099819731F6
:1011900009F052C09A81905E9093100A9C819093BE
:1011A000140A9D819093150A9E819093160A9F813F
:1011B0009093170A9A859093180A9B859093190A21
:1011C0009E859093120A9F859093130A9889909315
:1011D0001A0A998990931B0A9A8990931C0A2DC028
:1011E000813051F52BE0CE010196FC01322F119296
:1011F0003A95E9F729830E9473088823E9F09981D9
:101200009131D1F49A81905E9093100A9B819093D2
:10121000120A9C819093140A9D819093150A9E81D5
:101220009093160A9F819093170A9A859093180AB3
:101230009B859093190A01C080E062960FB6F894DE
:10124000DEBF0FBECDBFDF91CF9108951F93CF9327
:10125000DF9300D01F92CDB7DEB782E08983809103
:10126000110A823011F486E101C080E18A83809105
:1012700091088B83CE0101960E94BD07811102C0A7
:1012800080E015C00E94AA08182F8823C9F3909106
:10129000930891FB882780F991FD09C08FED9EE2AC
:1012A0000197F1F700C000000E941E08812F0F90E7
:1012B0000F900F90DF91CF911F910895CF93DF93FF
:1012C000CDB7DEB72A970FB6F894DEBF0FBECDBFFD
:1012D0008AE08983CE0101960E947308882361F019
:1012E0009A819093CB099B819093CC099C81909398
:1012F000CD099D819093FC092A960FB6F894DEBF24
:101300000FBECDBFDF91CF910895CF93DF93CDB7BF
:10131000DEB728970FB6F894DEBF0FBECDBF88E0CA
:10132000E9E2F2E0DE01119601900D928A95E1F773
:1013300083E08E8385E08F83CE0101960E94BD07F6
:1013400081110E945E0928960FB6F894DEBF0FBE89
:10135000CDBFDF91CF9108958091110A813019F4AA
:101360008091160A06C0823011F080E008958091C5
:10137000170A81FD07C08031C1F78091100A885299
:10138000823098F781E008958091160A803139F013
:1013900081E09091170A903119F080E001C081E05E
:1013A00081700895CF93DF9300D000D000D0CDB7E7
:1013B000DEB7CE01019626E0FC0111922A95E9F7ED
:1013C0004091110A20918F0830919008423039F4F1
:1013D00043E0498340E44A833B832C830CC045E0CF
:1013E000498340E44A833B832C832091CE092D839B
:1013F0002091CF092E830E94BD0726960FB6F89440
:10140000DEBF0FBECDBFDF91CF910895CF93DF93A5
:10141000CDB7DEB727970FB6F894DEBF0FBECDBFAE
:10142000CE01019627E0FC0111922A95E9F740913F
:10143000110A20918F0830919008423039F443E02E
:10144000498342E44A833B832C830FC046E04983AF
:1014500042E44A833B832C832091CE092D83209143
:10146000CF092E832091FF092F830E94BD07279665
:101470000FB6F894DEBF0FBECDBFDF91CF910895B8
:10148000CF93DF9300D0CDB7DEB781E0898381E4CD
:101490008A83CE0101960E94BD070F900F90DF91C5
:1014A000CF910895CF93DF93CDB7DEB727970FB6CF
:1014B000F894DEBF0FBECDBFCE01019627E0FC0140
:1014C00011922A95E9F74091110A20918F083091E5
:1014D0009008423039F443E0498341E44A833B8336
:1014E0002C830CC045E0498341E44A833B832C8331
:1014F0002091CE092D832091CF092E830E94BD0714
:1015000027960FB6F894DEBF0FBECDBFDF91CF9107
:1015100008950F93CF93DF93CDB7DEB72A970FB619
:10152000F894DEBF0FBECDBFFE0131969AE0DF0119
:101530001D929A95E9F796E0998390E69A838B83BA
:101540006C834D832E830F83CF010E94BD072A96A3
:101550000FB6F894DEBF0FBECDBFDF91CF910F91D4
:1015600008950F9305E020910F0240910D026091C4
:101570000A0280EA0E94890A882349F02FEF37EA9D
:1015800091E6215030409040E1F700C000000F91FB
:1015900008950F93CF9304E02CEB40EA6EEE82E7C0
:1015A0000E94890AC82F8823E1F02FEF37EA81E6ED
:1015B000215030408040E1F700C0000003E020E00F
:1015C00040EA60EA82EF0E94890A882351F09FEF87
:1015D00027EA31E6915020403040E1F700C000009A
:1015E000C82F8C2FCF910F910895813031F40E9434
:1015F000520A811105C080E008950E94400AF9CF87
:10160000109291080895813031F40E94D20981111D
:1016100007C080E008958230E1F70E94060AF7CF04
:1016200090E89093910808950C94C4090C94AC0927
:101630000E942609882319F082E080939608089575
:101640000E948509882311F082E001C081E0809327
:10165000110A8FE39FE10197F1F700C000000E949B
:10166000180B8091100A8093A0098091110A809331
:10167000A1090895CF93DF93CDB7DEB7E2970FB6F8
:10168000F894DEBF0FBECDBFCE01019622E3FC0170
:1016900011922A95E9F72091A109223009F0A4C1FD
:1016A0002091A009213209F07EC03DE239832A83CE
:1016B0003091CB093B833091CC093C833091CD09EB
:1016C0003D833091CE0938873091CF0939873091E9
:1016D000D0093A873091D1093B873091D2093C87B4
:1016E0003091D3093D873091D4093E873F873091AF
:1016F000D709388B3091D609398B3091D9093A8B7B
:101700003091D8093B8B3091DA093C8B3091DB0961
:101710003D8B3091DC093E8B3091DD093F8B309160
:10172000DE09388F3091DF09398F3091E0093A8F27
:101730003091E1093B8F3091E2093C8F3091E4090F
:101740003D8F3091E5093E8F3091E3093F8F309115
:10175000E90938A33091EA0939A33AA33091EC0999
:101760003BA33091ED093CA33091EF093DA33091AB
:10177000EE093EA33091F0093FA33091F10938A75B
:101780003091F30939A73091F2093AA73091F40961
:101790003BA73091FD093CA730910B0A3DA7309142
:1017A0000C0A3EA7CDC0223209F05EC029832A83ED
:1017B0003091CB093B833091CC093C833091CD09EA
:1017C0003D833091CE0938873091CF0939873091E8
:1017D000D0093A873091D1093B873091D2093C87B3
:1017E0003091D3093D873091D4093E873F873091AE
:1017F000D709388B3091D609398B3091D9093A8B7A
:101800003091D8093B8B3091DA093C8B3091DB0960
:101810003D8B3091DC093E8B3091DD093F8B30915F
:10182000DE09388F3091DF09398F3091E6093A8F20
:101830003091E7093B8F3091E0093C8F3091E1090D
:101840003D8F3091E8093E8F3091E2093F8F309112
:101850000D0A38A33091FD0939A330910B0A3AA340
:1018600030910C0A3BA36CC0243209F069C036E207
:1018700039832A833091CB093B833091CC093C8357
:101880003091CD093D833091FC093E833091CE09E2
:1018900038873091CF0939873091D0093A87309114
:1018A000D1093B873091D2093C873091D3093D87DC
:1018B0003091D4093E873F873091D709388B3091DA
:1018C000D609398B3091D9093A8B3091D8093B8BA5
:1018D0003091DA093C8B3091DB093D8B3091DC098A
:1018E0003E8B3091DD093F8B3091DE09388F30918E
:1018F000DF09398F4091050A4A8F3091060A3B8FE4
:101900004C8F3D8F3091E6093E8F3091E7093F8F34
:101910003091E00938A33091E10939A33091E80909
:101920003AA33091E2093BA330910D0A3CA33091D8
:10193000FD093DA330910B0A3EA330910C0A3FA351
:1019400038ED320F323008F095C031E239832A8306
:101950002091CB092B832091CC092C832091CD0998
:101960002D832091FC092E831F822091CE09288788
:101970002091CF0929872091D0092A872091D10968
:101980002B872091D2092C872091D3092D87209174
:10199000FB092E871F86288B198A2091FE092A8B26
:1019A0002B8B2C8B2D8B2091070A2E8B2091080AD4
:1019B0002F8B188E2091010A298F2091020A2A8FDD
:1019C0002091030A2B8F2091040A2C8F2091FD096E
:1019D0002D8F20910B0A2E8F20910C0A2F8F18A289
:1019E00021E029A31AA246C0213009F043C02BE20E
:1019F00029832091A0092A832091CE092B8320914D
:101A0000CF092C832091F5092D832091F6092E838F
:101A10002091F7092F832091F80928872091F9094F
:101A200029872091FA092A872091FB092B87209189
:101A3000100A28523091FD094091FC092230C0F46F
:101A40002091FE092C872091FF092D872091000A03
:101A50002E872091010A2F872091020A288B20913E
:101A6000030A298B2091040A2A8B4B8B3C8B02C0E2
:101A70004C873D870E94BD07E2960FB6F894DEBF03
:101A80000FBECDBFDF91CF910895CF93DF9300D0EC
:101A9000CDB7DEB781E0898388E48A83CE010196E1
:101AA0000E94BD070F900F90DF91CF91089543E9F9
:101AB00058E062E082E290E00E94D11740EA59E0EB
:101AC00062E08EE190E00E94D11710929708109288
:101AD00098081092990810929A0881E090E09093EB
:101AE0009C0880939B0890939E0880939D0880910A
:101AF00093088F7B8093930881FD47C00E9447061F
:101B0000809193088460809393084FE958E061E0E6
:101B100081E690E00E94D11780919F088823C9F048
:101B20008091930888608093930840EA58E061E0D0
:101B300080E091E00E94D1178091A0088F3F49F486
:101B40001092A00840EA58E061E080E091E00E9435
:101B5000E6178BE0E4EDF8E0DF011D928A95E9F7E6
:101B600083E3E1EAF8E0DF011D928A95E9F744EDAD
:101B700058E06AE08CE690E00E94D11741EA58E014
:101B800062E387E790E00C94D1170C942720CF9361
:101B9000DF93CDB7DEB767970FB6F894DEBF0FBE01
:101BA000CDBF21E02F8B38E13E8B6A877B878C8706
:101BB0009D8780919D0890919E089A83898380914A
:101BC000100A8B838091110A8C838091140A8F8371
:101BD00080919B0890919C089E838D838091CF0972
:101BE00090E0998788871E861F86188A198A1A8A24
:101BF0001B8A1C8A2D8B40EA58E061E080E091E06E
:101C00000E94D1178091A0088F3F29F090919F08E2
:101C1000891708F048C081508E3F50F01092A008FC
:101C2000AE014A5E5F4F62E081E091E00E94E617FC
:101C30008091A00825E1829FC0011124AE014F5F71
:101C40005F4F65E1885E9E4F0E94E6178091A00875
:101C50008F5F8093A00840EA58E061E080E091E067
:101C60000E94E6178091930885FD0AC080628093E8
:101C7000930843E958E062E082E290E00E94E617B0
:101C80009091A00880919F08981323C08091930899
:101C900080618093930843E958E062E082E290E03B
:101CA0000E94E61716C043E958E061E082E290E046
:101CB0000E94D11780919308877F80618093930859
:101CC00043E958E061E082E290E00E94E61780E09C
:101CD00001C081E067960FB6F894DEBF0FBECDBF9E
:101CE000DF91CF910895CF93DF93CDB7DEB767979C
:101CF0000FB6F894DEBF0FBECDBF40EA58E061E0FA
:101D000080E091E00E94D1178091A00881508E3F21
:101D100078F5AE014A5E5F4F62E081E091E00E949B
:101D2000D117AE014F5F5F4F65E18E899F890E9499
:101D3000D117CE0101960E9495058823C9F08E899E
:101D40009F8945969F8B8E8B8091A00881508093B0
:101D5000A008AE014A5E5F4F62E081E091E00E9420
:101D6000E61740EA58E061E080E091E00E94E61763
:101D70008091A00881110DC0809193088F7D8F7E86
:101D80008093930843E958E061E082E290E00E948A
:101D9000E6178091A00867960FB6F894DEBF0FBED5
:101DA000CDBFDF91CF9108951F93CF93DF931F9203
:101DB000CDB7DEB764E670E00E94212D162F40E813
:101DC00061E08AE279830E94BD1366EA8BE20E9499
:101DD0009F138AE20E94B313682F607F62608AE2D9
:101DE0000E949F13612F8DE20E949F137981672FBC
:101DF0008CE20E949F1380E090E00F90DF91CF91E2
:101E00001F9108956FE081E00E949F1360E485E1D7
:101E10000E949F1348E060E088E00E94BD1382E1C9
:101E20000E94B313682F6870606882E10E949F135C
:101E300083E10E94B313682F6870606883E10E9499
:101E40009F136DE689E10E949F1368E486E20E9479
:101E50009F1365E588E10E949F1366E284E20E9479
:101E60009F1364EF87E20E949F1388E893E10E942A
:101E7000D40E43E061E084E10E94BD1340E461E0E0
:101E80008CE00E94BD1384E00E94B31380FFFBCF5F
:101E900061E084E00E949F1388E893E10E94D40EE1
:101EA0006AE18BE00E949F1360E186E10E949F132C
:101EB00064E887E10E949F1360E081E00E949F1325
:101EC00080ED97E00C94D40EAF92BF92CF92DF9248
:101ED000EF92FF920F931F93CF93DF93F82E8B0116
:101EE000EA0162E484E00E949F1360E085E00E94C2
:101EF0009F1360E88AE00E949F1381E00E94B31361
:101F0000682F607F8CE0F81201C06C6081E00E9455
:101F10009F13D0937605C0937505EFE0EF1508F495
:101F200069C02F2D30E0F901EE0FFF1FE25FFA4F7D
:101F3000C081D181F901E250FB4FC080F901E2512B
:101F4000FB4FD080F901E252FB4FA080209709F0AF
:101F500057C082E00E94B313682F6C2982E00E9470
:101F60009F1383E00E94B313682F83E00E949F13A6
:101F7000E12CE0917505F09176058381E81648F42F
:101F8000F801EE0DF11D608189E00E949F13E3943A
:101F9000F0CFFCE0FF1206C040E861E08DE00E9457
:101FA000BD1309C081E00E94B313682F607F6F29C1
:101FB00081E00E949F13DD20A9F0EE24E394FE2C23
:101FC000B12C8B2D8D2179F484E00E94B313B82EAF
:101FD00085E00E94B31381E0E81AF108E114F104EE
:101FE00081F701C0B12CDB20EB2DE170CE2FF0E0AA
:101FF000DF2F06C0A12CC12C82E4D82EC3E0D1E093
:102000004C2D60E082E00E94BD1340E060E083E080
:102010000E94BD13AA2009F47EC0209709F07BC05E
:10202000E0907505F09076058AE00E94B313F70101
:1020300084838CE00E94B313E0917505F0917605DE
:10204000877090E09683858386E00E94B313F82E14
:10205000882309F446C083FD05C081FF05C0C3E0A5
:10206000D0E002C0C6E0D0E0F0FC22C0F4FC23C007
:10207000F2FE19C0E0917505F0917605C481C1307A
:10208000E9F4258136812B7F232BC1F489E00E945E
:10209000B313F8018083E0917505F0917605C48350
:1020A000C2E0D2E00DC0F6FE0BC0C4E0DEE708C01F
:1020B000CBE0D0E005C0C9E0D0E002C0C2E0D0E093
:1020C000F7FC05C0209729F4CCE0D0E002C0CDE0B9
:1020D000D0E060E086E00E949F13C230F2E0DF07AC
:1020E000D1F0C12CE0917505F09176052481C216DE
:1020F00050F47801EC0CF11C89E00E94B313F70155
:102100008083C394EFCF85819681892B21F0222390
:1021100011F0215024836D2D84E00E949F1360E014
:1021200085E00E949F1360E88AE00E949F1361E0AF
:1021300084E00E949F1360E08DE00E949F13CE0117
:10214000DF91CF911F910F91FF90EF90DF90CF9093
:10215000BF90AF9008951F93CF93DF93182FEB019B
:1021600048E060E088E00E94BD1360E88EE00E94D5
:102170009F1340E860E082E10E94BD1340E860E008
:1021800083E10E94BD1367E08DE00E949F131092CF
:10219000320A1092330A1092340A1092360A1092C0
:1021A000380A1092370A1092390A10931E0A81E0F9
:1021B0008093350A80E991E00E94D40E42E35AE010
:1021C0006EE17AE08CE00E94640F882311F0863083
:1021D00089F49091360A923081F42091370A309137
:1021E000380A232B51F420911E0A30911F0A39839B
:1021F000288304C01882198201C08BE090E0DF912F
:10220000CF911F9108957F928F929F92AF92BF922C
:10221000CF92DF92EF92FF920F931F93CF93DF93B2
:10222000D82EC62EEA011092200A1092210A10928E
:10223000220A1092230A1092240A40E860E082E108
:102240000E94BD1340E860E083E10E94BD1360E09E
:102250008EE00E949F13912CA12CB12C00E21AE079
:1022600064E0E62EF12C9110BAC0A114B10409F07B
:10227000B6C020E22C1508F4AFC08C2D8770B82EA4
:102280009C2D969596959695882321F0AA24A39443
:10229000A90E01C0A92ED0921E0A80E28B0DE0E1AA
:1022A0009E9F800D112480931F0ADE01E0E2FAE078
:1022B0008E2F801B8A1518F48D918193F9CFF0E150
:1022C000BF9EB00111246B298DE00E949F131092D4
:1022D000320A1092330A1092340A1092360A10927F
:1022E000380A1092370A1092390A82E08A0D8093D8
:1022F000350A80E197E20E94D40E42E35AE06EE193
:102300007AE08CE00E94640F8630910519F0009706
:1023100009F060C0E091370AF091380A4091360A1E
:102320006E2F28E0429F600D11246B192C2D30E098
:10233000260F311D293231050CF047C0EF2B19F063
:102340004F5F4093360A4A2D50E0BB2059F0FA0106
:102350003197EC0FFD1F208130911E0A232B208323
:1023600071E001C070E0812CD701A41BB50BA72E32
:10237000B12C282D30E02A173B0774F4F901E25EF6
:10238000F54FEA0DFB1D70802C0F3D1F240F351FEC
:10239000F90170828394EDCF8630910521F4C60E49
:1023A00080E090E017C04981588145275A81452730
:1023B0005B814527F901E25EF54FE70FF11D2081B2
:1023C000421306C09924939405C084E090E002C0B3
:1023D00081E095E05C0147CFAA24A394BA2C60E089
:1023E0008DE00E949F1360E88EE00E949F13C5015C
:1023F000DF91CF911F910F91FF90EF90DF90CF90E1
:10240000BF90AF909F908F907F900895FF920F9311
:102410001F93CF93DF93F82EEB018A0140E861E030
:1024200082E10E94BD1340E861E083E10E94BD1398
:10243000F0921E0A80E780931F0ADE01E0E2FAE0D4
:102440008D9181938AE0E432F807D1F789819881F0
:1024500089279A8189279B8189278093240A109252
:10246000320A1092330A1092340A1092360A1092ED
:10247000380A1092370A1092390A87E08093350A99
:1024800080ED97E00E94D40E42E35AE06EE17AE0DC
:102490008CE00E94640F009789F42091360A213065
:1024A00059F42091370A3091380A232B29F42091CE
:1024B0001E0AF801208302C084E090E0DF91CF91F2
:1024C0001F910F91FF900895AF92BF92CF92DF922C
:1024D000EF92FF920F931F93CF93DF93CDB7DEB7A9
:1024E0002E970FB6F894DEBF0FBECDBFE82F7B014D
:1024F0006A018E010F5F1F4F80E090E0B12CEE2348
:1025000039F0E13228F070EEA72EAE0EE0E201C005
:10251000A12C21E0B21629F0A2E0BA120BC027E9E3
:102520000AC02A813B814C81D7012D933D934C9366
:1025300025E901C023E9E03249F00097E9F4A80158
:102540006E2F822F2E870E9403112E850097A1F4F3
:10255000AE01435F5F4FB801822F0E9406120097C1
:1025600019F42D8522FF08C0B3940C5F1F4FB3E010
:10257000BB16F1F0EA2DC3CFE1E0BE1669F0F2E040
:10258000BF1216C04D815E816F817885F701468349
:1025900057836087718716C04D815E816F81788512
:1025A000D70113964D935D936D937C9316970AC054
:1025B00009811A812B813C81D7010D931D932D93A5
:1025C0003C9313972D85F60120832E960FB6F89431
:1025D000DEBF0FBECDBFDF91CF911F910F91FF9056
:1025E000EF90DF90CF90BF90AF900895CF93DF939F
:1025F0001092320A1092330A1092340A1092350A5D
:102600001092360A1092380A1092370A1092390A3C
:1026100080931E0A20931F0A86E0FB01A0E2BAE025
:1026200001900D928A95E1F7FA0180819181A28152
:10263000B3818093260A9093270AA093280AB09327
:10264000290A8CE08093350A80ED97E00E94D40E31
:1026500042E35AE06EE17AE08EE00E94640FEC0102
:10266000009741F488E00E94B3138F70883011F016
:10267000C1E0D2E0CE01DF91CF910895CF93DF93F7
:10268000EB011092320A1092330A1092340A10921F
:10269000360A1092380A1092370A1092390A90E3DB
:1026A00090931E0A80931F0A82E08093350A80E18E
:1026B00097E20E94D40E42E35AE06EE17AE08CE0A9
:1026C0000E94640F0097E9F081309105A1F02091FC
:1026D000370A3091380A2430310569F480911E0A96
:1026E000982F9F7090931E0A8A7019F085E091E0F0
:1026F00002C081E092E020E1FE0111922A95E9F703
:1027000014C02091360A203141F080E1FE0111927F
:102710008A95E9F788E090E008C020E1EEE1FAE070
:10272000DE0101900D922A95E1F7DF91CF91089596
:10273000883011F084E001C081E00C943E13CF9307
:10274000DF931F92CDB7DEB7880F71988E776983BC
:102750000E94F2136981862F0E94F213719A0F90E2
:10276000DF91CF910895880F8E77719880680E94CD
:10277000F2130E94F713719A08951F93CF93DF937A
:1027800000D0CDB7DEB7182F4A8369830E94B313F8
:1027900069814A81662319F0682F642B03C0642F76
:1027A00060956823812F0F900F90DF91CF911F913B
:1027B0000C949F13CF93DF931F92CDB7DEB784B1F4
:1027C000876084B92398289A82E08DB9719A2998F4
:1027D00082E58CBD8DB589838EB589830F90DF919D
:1027E000CF9108958EBD0DB407FEFDCF08958FEFF4
:1027F0008EBD0DB407FEFDCF8EB508950E94DA138D
:102800000C94020FF89488E10FB6F894809360005E
:10281000109260000FBE80E090E00E946C200E9449
:10282000451F0E94052078940E94FC220E94FE13FE
:1028300078940E9436240E94031BFACF80913901BC
:1028400086958170089580917705811104C08091EB
:102850005C0180937705809177050895809146010A
:102860008F71809378051092550B08950E94231460
:10287000823019F080917805089586E1089580915D
:10288000BA0A0895CF93C82F85EF8C0F803118F5C1
:102890000E941E14811121C0809148018F718C17F4
:1028A000F1F0909148018C2F8F71907E892B80934D
:1028B0004801809141018F71863011F0893021F4F7
:1028C000EDE2F1E03197F1F7809148018F718C17BB
:1028D00031F083E405C082E403C084E401C080E4F5
:1028E000CF910895663098F4811104C0809143011E
:1028F000886003C080914301877F8093430180916A
:102900004301887F862B8093430180E4089582E40D
:102910000895809141018F710895E9E3F1E080818C
:102920008D7F80838DE090E00197F1F7E2E4F1E0A4
:102930008081807E8360808383E090E00197F1F75F
:102940000895E9E3F1E080818160808380818D7F5B
:1029500080838DE090E00197F1F780818E7F808306
:102960000895CF93DF931F92CDB7DEB7EDEFF3E07D
:102970003197F1F789830E94A11490914201907ED2
:10298000936090934201EDEFF3E03197F1F79CE40F
:1029900090934E0190914901907F976090934901E7
:1029A000898181110E945D1780E40F90DF91CF91A2
:1029B0000895CF93C82F0E942314823031F4909150
:1029C0000500C0FB97F9909305000E942314833003
:1029D00059F42091040030E2C39FC0011124807299
:1029E0002F7D822B80930400CF9108959091410117
:1029F000892F8F708150823030F09F7181E09E313D
:102A000019F080E0089581E00895CF93C82F88EFF2
:102A10008C0F823038F08C2F8F7E863019F0C931C0
:102A200009F058C00E941E14811156C00E94F6146D
:102A30008111FCCF0E942314823039F40E94941D2E
:102A4000882319F0C63109F4C6E0809141018F71E5
:102A5000C81709F43DC0C83019F40E948D1431C064
:102A6000C93159F48930E1F090914201907E99602A
:102A700090934201863181F40CC0C63189F48930CB
:102A800079F090914201907E996090934201893152
:102A900019F4E3E0F0E002C0E9E6F1E03197F1F784
:102AA000209142019C2F9F71207E922B9093420196
:102AB000883019F4E9E6F1E002C0E3E0F0E0319794
:102AC000F1F7809141018F718C1711F083E405C0FB
:102AD00080E403C082E401C084E4CF910895CF93E1
:102AE000DF9300D000D01F92CDB7DEB780914101B7
:102AF0008F718C838C81813151F08C81863039F0DB
:102B00008C81813021F08C81863109F073C0409135
:102B10007B0150E060E871E08BE39AE00E94403175
:102B200080917B0180933A0AE0917B01F0E0E65CC2
:102B3000F54F80818093BA0A19821B821A822091F4
:102B40003B0A80913C0A90E0982F8827820F911DC4
:102B500090933C0A80933B0A2091400A2F3F81F4D6
:102B60002091410A2F3F61F49C01207F3327232BC2
:102B700039F09C0122273C7C2115384809F46FC0AC
:102B8000813628E8920709F140F4833028E0920763
:102B900081F08115904899F028C083362CE892077F
:102BA00001F1833648EC9407D1F083369848E9F474
:102BB0000EC08091460B8823C1F085E115C00E94AC
:102BC000941D882391F084E10FC080E10DC08091B5
:102BD000440A823031F08B3B31F0813031F487E1AF
:102BE00003C088E101C089E18983CE0101960E947A
:102BF000B81A35C08C81823049F08C81823131F035
:102C00008C81893119F08C81893049F51092550BEE
:102C100019821B821A828091420182958695877063
:102C20008D838D81833049F020F4823040F481E13E
:102C300005C0853021F482E101C083E18983898167
:102C4000882321F0CE0101960E94B81A86E10E94E5
:102C5000051580919400909195000E94072F0F9088
:102C60000F900F900F900F90DF91CF9108951F93C9
:102C7000CF93DF93182FEB0187FD2AC00E94F61433
:102C80008111FCCF89E10E940515809141018F716E
:102C90008931C1F72D813E813093540B2093530B22
:102CA000412F50E04E5F5F4FBE0181E891E00E94EE
:102CB00040311E5F109380018091390182608093C2
:102CC0003901809139018D7F8093390180E401C001
:102CD00082E4DF91CF911F910895EEE6F1E09081BB
:102CE00080FB93F990830895809362019093630130
:102CF000089580936001909361010895E4E6F1E006
:102D0000DC012D91CD012193EC36B1E0FB07C1F739
:102D10000895CF93DF93C82FD09141010E942314CF
:102D2000833039F4DF70D630E9F4C69590E080E066
:102D300009C00E9423148338A9F30E94231487300A
:102D400089F4F0CF9C1781F04091460154E0859FB3
:102D500090011124842F8076829586958770822B2E
:102D60009F5FF0CF0E94032FDF91CF9108950895C8
:102D70001F920F920FB60F9211240BB60F922F9342
:102D80003F934F935F936F937F938F939F93AF93F3
:102D9000BF93EF93FF930E942E14FF91EF91BF9189
:102DA000AF919F918F917F916F915F914F913F91E3
:102DB0002F910F900BBE0F900FBE0F901F90189584
:102DC0001F920F920FB60F9211240BB60F922F93F2
:102DD0003F934F935F936F937F938F939F93AF93A3
:102DE000BF93EF93FF930E946F15FF91EF91BF91F7
:102DF000AF919F918F917F916F915F914F913F9193
:102E00002F910F900BBE0F900FBE0F901F90189533
:102E10001F920F920FB60F9211240BB60F922F93A1
:102E20003F934F935F936F937F938F939F93AF9352
:102E3000BF93EF93FF93809141018F71863111F021
:102E40000E946F15FF91EF91BF91AF919F918F916C
:102E50007F916F915F914F913F912F910F900BBE9A
:102E60000F900FBE0F901F9018951F920F920FB6E4
:102E70000F9211240BB60F922F933F934F935F93B2
:102E80006F937F938F939F93AF93BF93EF93FF9332
:102E90000E94511EFF91EF91BF91AF919F918F9131
:102EA0007F916F915F914F913F912F910F900BBE4A
:102EB0000F900FBE0F901F901895DF92EF92FF9228
:102EC0000F931F93CF93DF9300D0CDB7DEB78091E0
:102ED0007905882311F081E05AC081E0809379055B
:102EE00000916600F89461E00E947214D090B100E5
:102EF000E0908100F09080001092B100109281006B
:102F00001092800088EE93E053E066E04FEF50931C
:102F1000B100609381001092B2001092850010926F
:102F2000840046BB47BBB89BFECF20918400309104
:102F300085003A832983109281001092B100298183
:102F40003A812D3F314020F420916600215008C085
:102F500029813A812330324050F0209166002F5F62
:102F6000209366000197009791F610E001C011E0F0
:102F700060E081E00E947214D092B100E092810082
:102F8000F09280001111A7CF0093660080E00F90AF
:102F90000F90DF91CF911F910F91FF90EF90DF90F5
:102FA0000895CF93DF931F92CDB7DEB79C01CA017E
:102FB0004FB74983F894462F50E0B9010E948132FF
:102FC00089818FBF0F90DF91CF910895CF93DF93C9
:102FD0001F92CDB7DEB79C01CA014FB74983F89461
:102FE000462F50E0B9010E94A33289818FBF0F9014
:102FF000DF91CF9108951F93CF93DF93CDB7DEB7C5
:1030000028970FB6F894DEBF0FBECDBF182F2FEF55
:103010003FEF30934A0B2093490B30934C0B209396
:103020004B0B1092460B30934E0B20934D0B30936D
:10303000500B20934F0B1092510B1092550B81E0C7
:103040008093560B0E94B1141093520B1F3F19F03E
:10305000812F0E94421481E00E94D91488E00E94CE
:1030600005150E94B71686E10E9405154EE35BE048
:1030700068E080E090E00E94D11780E00E946D1629
:103080008FEF9FEF0E9479168FEF9FEF0E947416CB
:1030900080916C018F70806280936C0180913E0BF7
:1030A000898380913F0B8A838091400B8B83809131
:1030B000410B8C838091420B8D838091430B8E83D7
:1030C0008091440B8F838091450B8887CE010196B8
:1030D0000E947E160E944B1928960FB6F894DEBF08
:1030E0000FBECDBFDF91CF911F9108958093520BFA
:1030F0000C9442148091A6060E94151F9091460BD5
:1031000081E089270C941E22CF93DF93EC01862F58
:103110000E94761883E698EC9093BE0A8093BD0ACD
:10312000E8E4FBE0808191E0980F90838093BF0AF0
:103130008091490B90914A0B9093C10A8093C00AE9
:10314000D093C30AC093C20AAEE3BBE0E4ECFAE05A
:103150008C91808311968C911197818312968C911A
:103160001297828313968C911397838314968C9174
:103170001497848315968C911597858316968C9158
:103180001697868317968C91878381E08093CC0A6B
:10319000D093CE0AC093CD0A82E08093CF0A6DEB24
:1031A0007AE083E10E9437166AE778E188EE93E0DF
:1031B0000E94821E8093A606DF91CF91089500970A
:1031C00079F0EAE7F5E0208131812817390731F0FD
:1031D000339626E0E63AF207B1F702C081E008959F
:1031E00080E00895EAE7F5E020E030E04081518199
:1031F0004817590761F4F901EE0FFF1FE20FF31FA3
:10320000E458FA4F80818E7F8D7F808308952F5FF1
:103210003F4F33962436310549F7EAE7F5E020E0E1
:1032200030E040815181452BA9F4A901440F551F7D
:10323000420F531FFA01E658FA4F91838083FA0137
:10324000E458FA4F90819E7F9D7F9083822F90E07B
:103250000C9417222F5F3F4F33962436310509F720
:103260000895EAE7F5E020E030E040815181481719
:10327000590751F4F901EE0FFF1FE20FF31FE65853
:10328000FA4F1182108208952F5F3F4F33962436F4
:10329000310559F7089508950895FC0125852F7784
:1032A0002587089580E090E89093BE0A8093BD0A38
:1032B000E7E4FBE0808191E0980F90838093BF0A60
:1032C0008091490B90914A0B9093C10A8093C00A58
:1032D00080914B0B90914C0B9093C30A8093C20A40
:1032E0008FEF90E09093C50A8093C40A86E08093A4
:1032F000C60A8091510B8093C70A6DEB7AE08BE090
:103300000C9437166DEB7AE08091BC0A0C9437165A
:103310000F931F93CF93DF9300D000D0CDB7DEB7CC
:103320008C0180914B0B90914C0B0817190709F4F5
:1033300072C00F3F3FEF130709F46DC03091460B89
:10334000332309F468C0E1E6F8E8F093BE0AE0939D
:10335000BD0A3091480B71E0730F7093480B3093A6
:10336000BF0AE091490BF0914A0BF093C10AE09338
:10337000C00A9093C50A8093C40A1093C70A0093A9
:10338000C60A9093C90A8093C80AC8012A834B834E
:103390005C8369830E94631D2A814B815C81698102
:1033A000263029F41093C30A0093C20A08C0809102
:1033B0004D0B90914E0B9093C30A8093C20A2093B9
:1033C000CA0AFA018BEC9AE0DC013A2F381B361757
:1033D00018F431913D93F9CF8091C20A9091C30ABC
:1033E00040914B0B50914C0B84179507A1F001961F
:1033F00091F0625F6093BC0A2650223018F480E09E
:1034000090E002C087E090E062E879E10E94821ECD
:1034100081E08093550B0F900F900F900F90DF91EC
:10342000CF911F910F91089521E00C9488198091FC
:10343000480A8F77833029F128F4813041F08230B7
:10344000D1F00895843019F1863019F008950C9464
:10345000ED218091490A90914A0A4091420A509187
:10346000430A20914D0B30914E0B42175307A9F49C
:1034700099270C944C198091460A9091470A0C9414
:103480008B218091460A9091470A0C948F2180915C
:10349000490A90914A0A0C9431190895CF93DF9309
:1034A000CDB7DEB760970FB6F894DEBF0FBECDBFC5
:1034B00081E698E89A838983E8E4FBE0808191E0E3
:1034C000980F90838B838091490B90914A0B9D8339
:1034D0008C8380914B0B90914C0B998788879D87AB
:1034E0008C878091A9069091AA069B878A878091F4
:1034F000A7068E870E9436148F870E943F14888B00
:1035000080914D0B90914E0B9F838E83BE016F5F18
:103510007F4F80E10E94371660960FB6F894DEBFA9
:103520000FBECDBFDF91CF91089520914B0B30910D
:103530004C0B6217730791F09091460B992371F031
:103540007093AA066093A90690E09093A8068093D2
:10355000A7060E944E1A81E08093550B0895209192
:10356000570B9091580B81E0291301C080E008951A
:103570001F93CF93DF93EC011091570B212F30E075
:103580004091580BC90101966EE170E00E94352D03
:1035900050E084179507A1F0F901EE0FFF1FE20F2D
:1035A000F31FE95AF44F88819981AA81828393831A
:1035B000A48381E0810F8E3108F080E08093570B67
:1035C000DF91CF911F910895CF93DF931F92CDB7D5
:1035D000DEB78091580B8983298130E089818F5F24
:1035E000898389818E3108F0198289818093580BF3
:1035F000C901880F991F820F931F875A944F0F900C
:10360000DF91CF910895CF93C1E00E94AF1A882334
:1036100009F480C00E94E41ADC014C9150E0FA01E8
:103620007097EA30F10588F7E057FF4F0C946B2D47
:103630008091460B8111E9CF0E94971DE6CFDC01F6
:103640001196ED91FC9112970995DFCF8091460B71
:103650008823D9F28BE39AE00E944D192091440A05
:103660003091450A80914B0B90914C0B28173907EC
:1036700019F40E94171AC9CF0E94081DC6CF809165
:10368000460B882311F262E579E181E090E00E9427
:10369000821EBBCF8091460B882309F4B6CF0E94CF
:1036A000671CB3CF80913C0A8C38D9F480913B0AD7
:1036B0008336B9F4C093460B8091480A9091490A29
:1036C00090934E0B80934D0B80914B0A90914C0A36
:1036D00090934C0B80934B0B0E9479160E947A18A2
:1036E00094CF8091460B882309F48FCF0E94D81B7A
:1036F0008CCF8091460B882309F487CF0E948C1BC6
:1037000084CF0E94A52181CF0E94A6217ECF0E9456
:1037100097217BCFCF91089580913A0A92E8EAE30E
:10372000FAE0ACEBBAE001900D929A95E1F7909136
:10373000460B9923E1F18C508695E82FF0E0EE0FCF
:10374000FF1FEB53F54F208131813093500B2093B5
:103750004F0B823060F1815023E638E83093BE0A87
:103760002093BD0A9091480B21E0290F2093480B2C
:103770009093BF0A90E0FC01EE0FFF1FE953F54F55
:10378000208131813093C30A2093C20A20914B0BD0
:1037900030914C0B3093C50A2093C40A9BEB909355
:1037A000C60A8B5F6DEB7AE0880F0C94371608958C
:1037B0008091460B882309F489C02091450A3091F5
:1037C000460A80914B0B90914C0B2817390709F052
:1037D0004BC083E69CE89093BD0A8093BC0A80911D
:1037E000480B91E0980F9093480B8093BE0A80910C
:1037F000490B90914A0B9093C00A8093BF0A809125
:10380000470A8093C10A8091480A8093C20A809136
:10381000490A8093C30A80914A0A8093C40A80911E
:103820004B0A8093C50A80914C0A8093C60A809106
:103830004D0A8093C70A80914E0A8093C80A30933C
:10384000CA0A2093C90A82E08093CB0A80914F0A6A
:103850009091500A9093CD0A8093CC0A0E94F2185E
:103860006CEB7AE082E130C022E8EAE3FAE0ACEB0C
:10387000BAE001900D922A95E1F72091480B31E0D2
:10388000320F3093480B2093BF0A20914F0B309199
:10389000500B3093C30A2093C20A9093C50A8093B9
:1038A000C40A8091C70A9091C80A0E94DF18882331
:1038B00041F08091C70A9091C80A9093C30A8093FF
:1038C000C20A6DEB7AE086E10C9437160895CF9327
:1038D000DF93CDB7DEB765970FB6F894DEBF0FBEA6
:1038E000CDBF60913C0AE091480B4091490B50914B
:1038F0004A0B20914D0B30914E0B80914B0B9091C8
:103900004C0BB091470AA091480AF091490A683CD3
:1039100081F563E678E87A83698361E06E0F6093EE
:10392000480BEB835D834C833F832E839987888785
:1039300081E08A8780914B0A90914C0A9C878B8703
:103940008091420A8D878091430A8E878091440A34
:103950008F878091450A888B8091460A898BBA8B24
:10396000AB8BFC8B80914D0A8D8BBE016F5F7F4FBF
:1039700043C063E678E87093BD0A6093BC0A61E0D7
:103980006E0F6093480BE093BE0A5093C00A4093B9
:10399000BF0A3093C20A2093C10A9093C40A80934D
:1039A000C30A81E08093C50A8091450A9091460A36
:1039B0009093C70A8093C60AB093C80AA093C90A15
:1039C000F093CA0A80914A0A8093CB0A80914B0AED
:1039D0008093CC0A80914C0A8093CD0A80914D0A45
:1039E0008093CE0A80914E0A8093CF0A80914F0A2D
:1039F0008093D00A6CEB7AE085E10E9437166596D9
:103A00000FB6F894DEBF0FBECDBFDF91CF91089502
:103A100082E8EAE3FAE0ACEBBAE001900D928A9515
:103A2000E1F7A09A61E671E28AE090E00E94821ECE
:103A30008091C60A9091C70A0E94DF186091480BD6
:103A400020914B0B30914C0B882359F081E0860F6D
:103A50008093480B6093BF0A8091C60A9091C70A71
:103A60001CC080914D0B90914E0B4091C40A509117
:103A7000C50A4817590759F481E0860F8093480B0F
:103A80006093BF0A80914F0B9091500B06C041E0AC
:103A9000460F4093480B6093BF0A9093C30A8093EC
:103AA000C20A3093C50A2093C40A8091C20A909139
:103AB000C30A019639F08091BC0A6DEB7AE082501E
:103AC0000C943716089580E008952091BA0A8091E9
:103AD0003B0A90913C0A84E0989F812D99271124FC
:103AE0008093B30B80913E0A90913F0A9093B50B5F
:103AF0008093B40B8091400A9091410A9093B70B48
:103B00008093B60B8091450A8093BC0B8091520B39
:103B100081508093B80B1092B90B2093BD0B0E947B
:103B200036148093BE0B08958091AB060895CF9311
:103B30004091BA0A2091420A3091430A8091AB0623
:103B4000882361F18091440A863041F58091BA0B57
:103B50009091BB0B3093BB0B2093BA0B2091BB0B06
:103B600027FF05C09093BB0B8093BA0B17C08091C1
:103B7000BD0B841718F4CF910C94651D84130EC0EF
:103B80009091BC0B8091450A8917A8F3981306C041
:103B9000C091BE0B0E943614C81768F3CF910895E8
:103BA000CF93C1E08091B80B8F3F11F4C0E01BC0F0
:103BB0008091B40B9091B50B90934A0B8093490B75
:103BC0002091B60B3091B70B30934E0B20934D0BD9
:103BD0000E9474168091B80B0E9476189091BC0BCD
:103BE0009F5F9093510B8C2FCF910C943922209191
:103BF000520B2F3FB1F481E08093AB0686E1E3EBFB
:103C0000FBE0DF011D928A95E9F72093B80B8BE06A
:103C10008093520B80911B028038A1F08093520B4D
:103C200011C02B3140F430E080911B0290E00196EE
:103C30002817390739F41092AB068FEF8093520B97
:103C40000C94D01D8091520B0E94761883E098E06E
:103C50009093BE0A8093BD0A8091470B91E0980F24
:103C60009093470B8093BF0A8FEF9FEF9093C10A09
:103C70008093C00A9093C30A8093C20A87E080931E
:103C8000C40A6DEB7AE088E00E9437168091520BEF
:103C90008F5F8093520B67EF7DE184E190E00C949D
:103CA000821E08958091AC068F5F09F481E0E6E101
:103CB000F7E091E02081281301C090E0359627E0DD
:103CC000EA37F207B9F7E2EBF6E02081281301C0EA
:103CD00090E0359627E0E631F207B9F7992321F312
:103CE0008093AC0608958091AF0681110AC01092AE
:103CF00095001092940082E08093710081E080939F
:103D0000AF0608950F931F93CF93DF931F92CDB704
:103D1000DEB7009719F4FB01099512C02FB729836C
:103D2000F894A4E1B7E020E030E04D915C91119768
:103D3000452B41F02F5F3F4F159624313105A9F7F0
:103D400080E023C045E0429FD001439FB00D112485
:103D5000AC5EB84F009711F481E090E08D939C9396
:103D600085E0829F8001839F100D11240C5E184F07
:103D7000F801748363830E94521EF80182830E94BB
:103D8000731E89818FBFF80182810F90DF91CF91DF
:103D90001F910F910895EF92FF920F931F93CF936E
:103DA000DF931F92CDB7DEB7009719F4FB01099599
:103DB0000FC0A0EBB6E000E010E02D913C91119710
:103DC000232B41F00F5F1F4F159604311105A9F702
:103DD00080E023C025E0209F7001219FF00C11247A
:103DE00097012055394F7901F901918380837483BC
:103DF00063830E94521EF70182838FB78983F894F0
:103E00000E94731E89818FBF85E0809FF001819F92
:103E1000F00D1124E055F94F82810F90DF91CF9181
:103E20001F910F91FF90EF900895E6E1F7E020E0F9
:103E300030E09081981309C085E0829FF001839F54
:103E4000F00D1124EC5EF84F15C02F5F3F4F3596F3
:103E50002431310571F7E2EBF6E020E030E09081AB
:103E600098130CC085E0829FF001839FF00D112410
:103E7000E055F94F11821082128208952F5F3F4F53
:103E800035962431310559F70895E1E9F0E0808154
:103E90008A60808380ED97E09093990080939800EA
:103EA00080919400909195000C94072F1F920F928F
:103EB0000FB60F9211240BB60F92FF920F931F9320
:103EC0002F933F934F935F936F937F938F939F9322
:103ED000AF93BF93EF93FF93CF93DF9300D01F92E5
:103EE000CDB7DEB78091AD069091AE060196909366
:103EF000AE068093AD0680911C0290911D02019741
:103F000090931D0280931C02892B29F004E117E095
:103F100096E1F92E24C084EF91E090931D028093E6
:103F20001C0200EB16E086E1F82EF80180819181F9
:103F3000009771F0019791838083892B49F4F9826E
:103F4000838194819B838A83CE0101960E94B81A53
:103F50000B5F1F4FF7E004311F0739F7D7CFF80188
:103F600080819181009771F0019791838083892BE3
:103F700049F4F982838194819B838A83CE010196DF
:103F80000E94B81A0B5F1F4FF7E008371F0739F779
:103F90000F900F900F90DF91CF91FF91EF91BF9114
:103FA000AF919F918F917F916F915F914F913F91D1
:103FB0002F911F910F91FF900F900BBE0F900FBE8E
:103FC0000F901F9018951F920F920FB60F92112409
:103FD0008F9382E0809379078F910F900FBE0F909F
:103FE0001F9018951F920F920FB60F9211248F9366
:103FF00081E0809378078F910F900FBE0F901F90F4
:10400000189581E080930E0A089582E085BB809325
:104010006E0016BC1092CD0B089515BC08958EE469
:1040200087BD82E084BD85E085BD08951F920F9213
:104030000FB60F9211248F938091CD0B8F5F8093D9
:10404000CD0B8F910F900FBE0F901F90189599E197
:104050009093CA091092CE0984E68093CF091092FA
:10406000F5099093F6091092F7098093F8091092D8
:10407000F9098093FA0991E09093FB091092FC09E9
:1040800082E08093FD0983E08093FE092FE0209376
:10409000FF092CE32093000A1092010A9093020A70
:1040A0008093030A89E08093040A0895FC019181BA
:1040B000DF01A90FB11D12968C912081921729F072
:1040C0009F5F97FD90E0918308958FEF0895109280
:1040D0007F0710927E07089510927F0710927E0747
:1040E000109201081092000828E92093C90026E0E8
:1040F0002093CA001092CD0027E62093CC00909325
:104100007D0780937C07089590917A0791112AC0CA
:104110007894909100089F5F97FD90E030917B0725
:1041200020910108921303C03323D1F308C0E0911A
:104130000008F0E0E050F84F8283909300088091EF
:10414000C90085FD0FC08091C80085FFFCCF80E0CD
:1041500098E00E9456208093CE008091C900806232
:104160008093C900089580917E0790E020917F0799
:10417000821B910997FF02C080589F4F089580913C
:104180007E0790E020917F07821B910997FF02C074
:1041900080589F4F882399F38EE797E00C94562020
:1041A0001F920F920FB60F9211240BB60F922F93FE
:1041B0003F934F935F936F937F938F939F93AF93AF
:1041C000BF93EF93FF938091CE0091E090937B0794
:1041D00090917E079F5F97FD90E020917F07921757
:1041E00041F0E0917E07F0E0E258F84F828390932F
:1041F0007E0710927B07E0917C07F0917D07309756
:1042000009F00995FF91EF91BF91AF919F918F9127
:104210007F916F915F914F913F912F910F900BBEC6
:104220000F900FBE0F901F9018951F920F920FB610
:104230000F9211240BB60F922F933F934F935F93DE
:104240006F937F938F939F93AF93BF93EF93FF935E
:104250009091000880910108981739F080E098E06B
:104260000E9456208093CE0005C08091C9008F7DAA
:104270008093C900FF91EF91BF91AF919F918F9172
:104280007F916F915F914F913F912F910F900BBE56
:104290000F900FBE0F901F901895982F80ED890FEB
:1042A0008A3070F08FEB890F863010F489EC05C0EE
:1042B0008FE9890F863018F489EA890F089580E024
:1042C0000895A0980895A198089581E080938508A5
:1042D000089581E080938708E3E9F8E080818F7B8F
:1042E0008083089581E080938608089581E080931B
:1042F0002002089581E08093960808958FEF0E9430
:10430000FB170C94F71D6091B80B8091B60B909140
:10431000B70B0C948418BC0183E00C94951A0E948E
:104320003614882319F081E08093460B089520917C
:10433000530B3091540B80914D0B90914E0B2817DD
:10434000390711F41092840808950895CF930E94BC
:10435000941D811140C020914D0B30914E0BC1E056
:104360008091530B9091540B8217930711F0C0E08A
:1043700005C040E050E060E00E94141A809184087B
:104380008F5F80938408833030F1CC23A9F01092A2
:10439000460B88E00E948916282F30E02E5C3F4FA4
:1043A0004EE1429FC001439F900D11246EE771E2E0
:1043B00088519C4F0E94821E8091530B9091540B08
:1043C0000E94DF18882339F08091530B9091540B91
:1043D000CF910C943119CF91089580913A0A10929F
:1043E000A309882319F18091480A8F778130F1F46D
:1043F0002091490A2093830880E8E0E4FCE0DF0193
:104400001D928A95E9F78AE49AE0DF01FC013E2FCC
:10441000381B321718F431913D93F9CF80E49CE0BA
:104420000E94590380939508109292080895A19ACA
:1044300063E671E28AE090E00C94821E811106C06E
:10444000A19A63E671E28AE090E011C088E00E94E0
:104450008916282F30E02E5C3F4F4EE1429FC0016D
:10446000439F900D11246EE771E288519C4F0C948C
:10447000821E882329F063E871E28EE190E00EC08D
:1044800088E00E94891690E005966EE771E22AE0C6
:10449000AC01249FC001259F900D11240C94821E15
:1044A0008F929F92AF92BF92CF92DF92EF92FF9244
:1044B0000F931F93CF93DF93CDB7DEB762970FB6FD
:1044C000F894DEBF0FBECDBF87E0898BAE01475F9A
:1044D0005F4F68E080E090E00E94D11789849A8461
:1044E000AB84BC84CD84DE84EF84F8882FEF821601
:1044F0009206A206B20609F06CC09401A501B601AD
:10450000C70100E20E94732DC901DA018F3F5FEFFE
:104510009507A507B50709F04FC08E010F5F1F4F24
:1045200088E0F80111928A95E9F780E00E94B114C1
:1045300086E00E940515780130E0DD24DA943430FD
:1045400018F4F701D08219C03A8B0E9489148F7E2B
:104550003A89863091F444E020914601F701808148
:10456000F4E08F9FC00111242076229526952770B4
:10457000282BF7012083415079F73F5FFFEFEF1AB7
:10458000FF0A3830E1F6A80168E080E090E00E9480
:10459000E617AE014F5E5F4F62E082E290E00E945C
:1045A000E61760E08CE690E00E94913260E087E7D9
:1045B00090E00E9491320DC0892B8A2B8B2B49F001
:1045C000AE014F5E5F4F62E082E290E00E94E6172C
:1045D000000062960FB6F894DEBF0FBECDBFDF912C
:1045E000CF911F910F91FF90EF90DF90CF90BF90F0
:1045F000AF909F908F9008950F931F93CF93DF9369
:104600001F92CDB7DEB783B3876083BB84B3887F47
:1046100084BB84B3876084BB6B9A739884B3887FB0
:1046200084BBA09A83E18093950861E671E289E1F9
:1046300090E00E94821E81E0809396080E945022A2
:104640000E94570D61E070E280E197E20E94821EB5
:10465000082F10E080910E0A81111EC090919608DB
:10466000913051F40E94200B6AE771E28CE291E0F4
:104670000E94821E182FEECF923039F4802F0E94B4
:10468000151F812F0E94151F07C00E94AF1A882393
:1046900009F30E94031BDECF6AE771E28CE291E02E
:1046A0000E94821EAE014F5F5F4F61E08EE190E09D
:1046B0000E94D11789819091100A8F3F79F4992334
:1046C00069F040E15AE061E08EE190E00E94E61777
:1046D00041E15AE061E08FE190E01AC09817D1F013
:1046E00040E15AE061E08EE190E00E94E61741E18E
:1046F0005AE061E08FE190E00E94E6178091930814
:1047000082608093930843E958E061E082E290E0A0
:104710000E94E6170E947E2180919608823069F4FB
:104720000E9445068091930881FD07C00E943A0BC4
:1047300010920F0A82E00E94F50A00000F90DF91AC
:10474000CF911F910F9108950F931F93CF93DF93F4
:104750008A01EB0109900020E9F72197C61BD70BCE
:104760000E947E310097D1F09C012C0F311DE90190
:10477000B801C9010E947E31009781F08C010C1BA9
:104780001D0BA801BE0184ED9BE00E944031F801A1
:10479000EC52F44F108284ED9BE002C080E090E088
:1047A000DF91CF911F910F9108950E94180B6AE736
:1047B00071E28CE291E00C94821E7F928F929F9224
:1047C000AF92BF92CF92DF92EF92FF920F931F931F
:1047D000CF93DF936C01762E4A01EC010990002003
:1047E000E9F72197C81BD90BFA0101900020E9F7DE
:1047F0008F0101501109041B150BA62EB12CCA15EF
:10480000DB0520F5C50101960E948F2D7C01872DC7
:1048100090E0C817D90748F4A801B401C7010E9465
:1048200064317A94E00EF11EF2CFAE01B601C701F9
:104830000E946431CE0DDF1D1882CA19DB09A50163
:10484000BE01C6010E946431CE0102C080E090E04A
:10485000DF91CF911F910F91FF90EF90DF90CF905C
:10486000BF90AF909F908F907F9008958F929F926E
:10487000AF92BF92CF92DF92EF92FF920F931F936E
:10488000CF93DF93CDB7DEB7A8970FB6F894DEBF0E
:104890000FBECDBF1092A30980919608813041F5DB
:1048A0000E94D52380919608823011F58FE19EE415
:1048B0000197F1F700C000008091930881FF02C0CA
:1048C00082E014C09091460B911102C083FF02C098
:1048D00084FF02C083E00AC086FF0AC08091950869
:1048E000873019F087E08093950884E00E941D06C8
:1048F0002091460B211104C08091930883FF00C3CF
:104900008091950890E0FC013197E832F10508F0BC
:10491000F7C2E656FF4F0C946B2D8091930883FFEE
:1049200004C081FD02C081E0E6C281FB992790F9B5
:1049300081FD02C080FF0BC02091100A222329F0C4
:1049400081E0809320028AE0D6C29111D9C282FF11
:10495000EACF109285080E94BB0280E8E0E4FCE008
:10496000DF011D928A95E9F765E671E28CE390E03C
:104970000E94CB1E84E1BFC20E94140B882309F45D
:10498000B7C280E1B8C280911E0290911F028035AB
:10499000910530F4019690931F0280931E0205C08A
:1049A000909A10921F0210921E02BE016F5F7F4FFD
:1049B00082E50E94AB10892B09F0A2C286E0E1E3F8
:1049C000F2E0DE015F9601900D928A95E1F7AE016B
:1049D000495D5F4FBE016F5F7F4F80E00E946412B0
:1049E000892B09F08DC28FA1883069F480938808E3
:1049F00020E0AE014F5F5F4FBE01615E7F4F80E6FA
:104A00000E94F61202C0109288088CE080939508EC
:104A10000E94612175C28E010F5F1F4F8AE0F8016D
:104A200011928A95E9F7B801809188080E9498133D
:104A3000892B09F08CC043E355E069E0C8010E946E
:104A4000DD234AE050E060E070E0C8010E94122FD0
:104A50006093890870938A0880938B0890938C08E0
:104A60008091460B8823A1F11F930F9387E395E074
:104A70009F938F9301EE18E01F930F930E94F431E0
:104A8000F80101900020E9F7E25EF840E093E008C9
:104A900061E06E0F6093A30940EE58E080E090E083
:104AA0000E94141A80E8E0E4FCE0DF011D928A9580
:104AB000E9F787E08093950880919308806480935C
:104AC00093080F900F900F900F900F900F903AC097
:104AD0008091930883FF33C084FD31C020E030E033
:104AE00048EC52E46091CE0B7091CF0B8091D00BCB
:104AF0009091D10B0E94BE2C0E94042C70939008C0
:104B000060938F0881E00E94030B8823D9F088E02E
:104B100080939508109286080E94160B882341F016
:104B20008091CA0962E771E290E00E94CB1E0AC040
:104B300062E771E284EF91E00E94821E03C082E08E
:104B4000809395081092870869E671E2C7C18DE0ED
:104B5000D2C18091DF0880FFD3C18E7F8093DF08B0
:104B6000C9C18091400C882309F4B7C08091930893
:104B70008F7B809393088DE08093950863E475E0C4
:104B800080E49CE00E947E31009709F4A3C04AE0D3
:104B900050E060E070E004960E94122F6093890854
:104BA00070938A0880938B0890938C0868E475E072
:104BB00080E49CE00E947E318C017C01B9E0EB0E28
:104BC000F11C6EE270E0C7010E944931282F2E19B6
:104BD000C70128A70E94263028A5223038F49F93C9
:104BE0008F937F936F9382E595E008C0223091F414
:104BF0009F938F937F936F9383E595E09F938F931C
:104C0000FF92EF920E94F4310FB6F894DEBF0FBE10
:104C1000CDBF05C068E575E0C7010E945D31D801D0
:104C200019968C91199790E0C09748EE53E0849FB5
:104C30009001859F300D949F300D11241A968C9110
:104C40001A9790E0C09764E6689FA001699F500D95
:104C50001124240F351F1C968C911C9790E0C0974F
:104C60006AE0689FA001699F500D1124240F351F31
:104C70001D968C91280F311D2053310930939008D7
:104C800020938F0885E00E941D06BFEFE1EEF4E05F
:104C9000B150E040F040E1F700C0000081E00E9428
:104CA000030B882309F42CC188E0809395081092A7
:104CB00086080E94160B882331F08091CA0962E7AA
:104CC00071E290E00DC162E771E284EF91E00E9431
:104CD000821E16C10E94692113C18091870881300C
:104CE00011F021110DC182E00E94F50A882309F418
:104CF00007C1809193088F7B8093930881E00E9485
:104D00001D06F8C08091150A8654823010F48FE099
:104D1000F2C080918608813009F0F2C00E94F50A45
:104D2000882309F4EDC0E4C00E94450D882309F4EE
:104D30005BC08090890890908A08A0908B08B09002
:104D40008C088A869B86AC86BD86C090CE0BD090A0
:104D5000CF0BE090D00BF090D10B20E030E048EC8E
:104D600052E4C701B6010E94BE2C0E94042C798730
:104D7000688780919D0890919E089A83898380918D
:104D80009B0890919C089E838D838091A0098B83C2
:104D90008091A1098C838091460B81110BC0809179
:104DA000930883FF07C081E08D8BC501B4010E9489
:104DB000C70D17C01D8A60918F087091900880E020
:104DC00090E00E94302CA70196010E94372B0E9490
:104DD000042C7093900860938F08CE0101960E9476
:104DE000950580E18093950881E00E94F50A88C0CE
:104DF00080912002882309F483C00E94D5230E9459
:104E000092021092200266E771E288E790E068C0A3
:104E10004AE453E06EE575E080E49CE00E94A42340
:104E20008C01009709F450C0FC0101900020E9F7C3
:104E30003197CE2EC81A42E858E061E087E590E04D
:104E40000E94D117AE01415E5F4F6091820888E5F4
:104E500090E00E94D117D12C8D2D880F8C15C8F4AD
:104E60007801E80EF11CD7018C910E944D21B82EDB
:104E7000F70181810E944D21A1E0B0E0AC0FBD1F80
:104E8000AD0DB11DF0E1BF9E800D11248C93D39424
:104E9000E3CF4091820850E0BE016F5F7F4FCE01AB
:104EA0004F960E943331892B49F4809193088B7F70
:104EB0008093930883E18093950806C08AE08093ED
:104EC000950881E080932002809185088823C1F0B5
:104ED000109285080E94BB0265E671E28CE390E0C7
:104EE0000E94CB1E0DC010920F0A82E00E94F50AAC
:104EF00082E001C087E28093950802C00E94FC22F4
:104F0000A8960FB6F894DEBF0FBECDBFDF91CF914C
:104F10001F910F91FF90EF90DF90CF90BF90AF90D7
:104F20009F908F9008952F923F924F925F926F9231
:104F30007F928F929F92AF92BF92CF92DF92EF9229
:104F4000FF920F931F93CF93DF93CDB7DEB7639795
:104F50000FB6F894DEBF0FBECDBF7C011B016A0106
:104F6000FC0117821682838181FF66C3BE016F5FD9
:104F70007F4F4B01F7019381F10193FD859193FFE1
:104F800081911F01882309F453C3853239F493FDBD
:104F9000859193FF81911F01853239F4B70190E02B
:104FA0000E94C23156016501E5CF10E0512C20E08E
:104FB0002032A0F48B3269F030F4803259F0833221
:104FC00069F420612CC08D3239F0803339F42160CE
:104FD00026C02260246023C0286021C027FD27C08E
:104FE00030ED380F3A3078F426FF06C0FAE01F9F04
:104FF000300D1124132F13C06AE0569E300D11247A
:10500000532E20620CC08E3221F426FD11C3206481
:1050100006C08C3611F4206802C0883641F4F101D4
:1050200093FD859193FF81911F018111C1CF9BEB6E
:10503000980F933018F42061805E06C09BE9980FAA
:10504000933008F0AAC12F7E26FF16E02F73722E30
:10505000853621F4F22FF0647F2E08C0863621F4C5
:10506000622F6068762E02C01111115077FE07C0C2
:105070001C3348F444244394410E27E00BC01830FD
:1050800030F4212F06C027E04CE3442E03C027E074
:1050900017E0412C560174E0A70EB11CF6016081A7
:1050A000718182819381042DA4010E9448306C019A
:1050B000098100FF02C003FF06C071FC07C072FC3B
:1050C00008C0612C08C03DE2632E05C02BE2622EB1
:1050D00002C090E2692E802F8C7099F1662011F049
:1050E00084E001C083E0851510F0512C0BC0581AE4
:1050F00073FC08C0B70180E290E00E94C2315A946C
:10510000C9F7F3CF662029F0B701862D90E00E9401
:10511000C23103FD03C008E811E002C004E811E059
:10512000F72DF0717F2EF8018491882309F476C25F
:1051300071108052B70190E00E94C2310F5F1F4F83
:10514000F2CF77FE0FC04C0C04FF04C08A8181337C
:1051500009F44A94141474F5F8E0F41578F588E02D
:10516000482E2CC076FC2AC0812F90E08C159D051E
:105170009CF06CEFC6166FEFD60674F0772D706852
:10518000772E0AC0E2E0F0E0EC0FFD1FE10FF11D09
:105190008081803319F411501111F4CF77FE0EC0C5
:1051A00044244394410E812F90E0C816D9062CF474
:1051B0001C1904C04424439401C010E077FE07C0CA
:1051C0001C141D043CF496012F5F3F4F05C025E0E1
:1051D00030E002C021E030E0662011F02F5F3F4F49
:1051E000112331F0412F50E04F5F5F4F240F351FE7
:1051F000452D50E02417350714F4521A01C0512CE4
:10520000872D897049F4552039F0B70180E290E08C
:105210000E94C2315A94F7CF662029F0B701862D3B
:1052200090E00E94C23173FC09C0552039F0B701EB
:1052300080E390E00E94C2315A94F7CF77FE5FC0BE
:105240009C2D8D2DD7FE02C090E080E0692E782E37
:1052500040E050E0C601841991099D878C87960132
:1052600026193709280D391D812F90E0EE27FF27D9
:10527000E81BF90BFF87EE87FFEF6F167F0669F4D7
:10528000B7018EE290E02B8B3A8B488B598B0E94B2
:10529000C231598948893A892B89C614D70454F0F8
:1052A0006C857D85661577052CF4F901E40FF51FF3
:1052B000818101C080E371E0671A71084F5F5F4F21
:1052C000EE85FF856E167F066CF0B70190E02B8BA4
:1052D0003A8B488B598B0E94C2312B893A89488975
:1052E0005989CACF6C147D0439F49A81963318F425
:1052F000953311F404FF81E3B70190E04BC08A813C
:10530000813309F00F7EB70190E00E94C231111184
:1053100005C074FE18C085E490E017C0B7018EE2A6
:1053200090E00E94C23182E066246394680EF4012A
:10533000E80FF11D8081B70190E00E94C231115049
:1053400041F3862DF1CF85E690E0B7010E94C2318E
:10535000D7FC05C0C114D10439F404FF05C0D194B1
:10536000C194D1088DE201C08BE2B70190E00E94A8
:10537000C23180E36AE0C616D1042CF08F5FFAE0F8
:10538000CF1AD108F7CFB70190E00E94C231B70120
:10539000C601C0960E94C23141C1833631F08337C5
:1053A00079F0833509F058C021C0560172E0A70E8C
:1053B000B11CF6018081898301E010E0640114C012
:1053C0005601F2E0AF0EB11CF601C080D18026FF7D
:1053D00003C0612F70E002C06FEF7FEFC6012B8B1F
:1053E0000E9473318C012B892F7715C05601F2E092
:1053F000AF0EB11CF601C080D18026FF03C0612F23
:1054000070E002C06FEF7FEFC6012B8B0E94283146
:105410008C012B892068722E23FD1AC0852D90E007
:1054200008171907A8F4B70180E290E00E94C23182
:105430005A94F4CFF60177FC859177FE81916F0144
:10544000B70190E00E94C23151105A9401501109E5
:105450000115110579F7E2C0843611F0893651F54E
:10546000560127FF09C0F4E0AF0EB11CF6016081C0
:105470007181828193810AC0F2E0AF0EB11CF60106
:1054800060817181882777FD8095982F022F0F7694
:1054900097FF08C090958095709561957F4F8F4FCD
:1054A0009F4F00682AE030E0A4010E942332C82EFA
:1054B000C8183EC0022F853721F40F7E2AE030E065
:1054C0001DC0097F8F3691F018F4883559F0B0C0AF
:1054D000803719F0883711F0ABC0006104FF09C0B4
:1054E000046007C024FF08C0066006C028E030E062
:1054F00005C020E130E002C020E132E0560107FFA4
:1055000009C0F4E0AF0EB11CF601608171818281A7
:10551000938108C0F2E0AF0EB11CF6016081718189
:1055200080E090E0A4010E942332C82EC8180F77B3
:1055300006FF0BC0202F2E7FC11650F404FF0AC0B7
:1055400002FD08C0202F2E7E05C0DC2C202F03C0BA
:10555000DC2C01C0D12E24FF0DC0FE01EC0DF11D8D
:105560008081803311F4297E09C022FF06C0D394C4
:10557000D39404C0822F867809F0D39423FD13C0FE
:1055800020FF06C01C2DD51418F4150D1D19D52C9F
:10559000D51468F4B70180E290E02B8B0E94C231F1
:1055A000D3942B89F5CFD51410F45D1801C0512C7C
:1055B00024FF12C0B70180E390E02B8B0E94C23120
:1055C0002B8922FF17C021FF03C088E590E002C0AD
:1055D00088E790E0B7010CC0822F867859F021FD52
:1055E00002C080E201C08BE227FD8DE2B70190E0AE
:1055F0000E94C231C11638F4B70180E390E00E94E6
:10560000C2311150F7CFCA94F401EC0DF11D808125
:10561000B70190E00E94C231C110F5CF552009F4C6
:10562000C2CCB70180E290E00E94C2315A94F6CF1A
:10563000F7018681978102C08FEF9FEF63960FB6C7
:10564000F894DEBF0FBECDBFDF91CF911F910F91B8
:10565000FF90EF90DF90CF90BF90AF909F908F9092
:105660007F906F905F904F903F902F90089550588B
:10567000BB27AA270ED048C139D130F03ED120F047
:1056800031F49F3F11F41EF42EC10EF4E095E7FBB8
:1056900024C1E92F4AD180F3BA1762077307840740
:1056A000950718F071F49EF562C10EF4E0950B2E8B
:1056B000BA2FA02D0B01B90190010C01CA01A00164
:1056C0001124FF27591B99F0593F50F4503E68F1BF
:1056D0001A16F040A22F232F342F4427585FF3CF00
:1056E000469537952795A795F0405395C9F77EF4D1
:1056F0001F16BA0B620B730B840BBAF09150A1F01A
:10570000FF0FBB1F661F771F881FC2F70EC0BA0F9F
:10571000621F731F841F48F4879577956795B79527
:10572000F7959E3F08F0B3CF9395880F08F099271F
:10573000EE0F9795879508950CD0E6C0DED040F027
:10574000D5D030F021F45F3F19F0C7C0511110C11E
:10575000CAC0EBD098F39923C9F35523B1F3951B35
:10576000550BBB27AA2762177307840738F09F5F82
:105770005F4F220F331F441FAA1FA9F333D00E2EF1
:105780003AF0E0E830D091505040E695001CCAF75E
:1057900029D0FE2F27D0660F771F881FBB1F261723
:1057A00037074807AB07B0E809F0BB0B802DBF01F6
:1057B000FF2793585F4F2AF09E3F510568F08DC038
:1057C000D7C05F3FECF3983EDCF3869577956795FD
:1057D000B795F7959F5FC9F7880F911D96958795A7
:1057E00097F90895E1E0660F771F881FBB1F6217C6
:1057F00073078407BA0720F0621B730B840BBA0B84
:10580000EE1F88F7E095089598D088F09F5790F0A4
:10581000B92F9927B751A0F0D1F0660F771F881FD5
:10582000991F1AF0BA95C9F712C0B13081F09FD014
:10583000B1E008959CC0672F782F8827B85F39F0B2
:10584000B93FCCF3869577956795B395D9F73EF434
:1058500090958095709561957F4F8F4F9F4F0895DC
:10586000E89409C097FB3EF49095809570956195FA
:105870007F4F8F4F9F4F9923A9F0F92F96E9BB27B0
:105880009395F695879577956795B795F111F8CF2C
:10589000FAF4BB0F11F460FF1BC06F5F7F4F8F4F97
:1058A0009F4F16C0882311F096E911C0772321F08D
:1058B0009EE8872F762F05C0662371F096E8862F25
:1058C00070E060E02AF09A95660F771F881FDAF77C
:1058D000880F9695879597F9089597F99F6780E8BF
:1058E00070E060E008959FEF80EC089500240A9432
:1058F0001616170618060906089500240A941216AB
:105900001306140605060895092E0394000C11F4DD
:10591000882352F0BB0F40F4BF2B11F460FF04C08A
:105920006F5F7F4F8F4F9F4F089557FD9058440FE3
:10593000551F59F05F3F71F04795880F97FB991FEE
:1059400061F09F3F79F087950895121613061406AB
:10595000551FF2CF4695F1DF08C016161706180638
:10596000991FF1CF86957105610508940895E89413
:10597000BB2766277727CB0197F908950BD0C4CFB3
:10598000B5DF28F0BADF18F0952309F0A6CFABCF2A
:105990001124EECFCADFA0F3959FD1F3950F50E00D
:1059A000551F629FF001729FBB27F00DB11D639FD1
:1059B000AA27F00DB11DAA1F649F6627B00DA11D77
:1059C000661F829F2227B00DA11D621F739FB00D1D
:1059D000A11D621F839FA00D611D221F749F33278D
:1059E000A00D611D231F849F600D211D822F762F26
:1059F0006A2F11249F5750408AF0E1F088234AF023
:105A0000EE0FFF1FBB1F661F771F881F915050406E
:105A1000A9F79E3F510570F060CFAACF5F3FECF32E
:105A2000983EDCF3869577956795B795F795E7955A
:105A30009F5FC1F7FE2B880F911D9695879597F96B
:105A40000895AA1BBB1B51E107C0AA1FBB1FA617C5
:105A5000B70710F0A61BB70B881F991F5A95A9F717
:105A600080959095BC01CD01089597FB072E16F403
:105A7000009407D077FD09D00E94212D07FC05D0A6
:105A80003EF4909581959F4F0895709561957F4F55
:105A90000895A1E21A2EAA1BBB1BFD010DC0AA1F6F
:105AA000BB1FEE1FFF1FA217B307E407F50720F087
:105AB000A21BB30BE40BF50B661F771F881F991F02
:105AC0001A9469F760957095809590959B01AC014B
:105AD000BD01CF010895EE0FFF1F0590F491E02D59
