:100000000C942F010C944E010C944E010C944E0153
:100010000C944E010C944E010C944E010C944E0124
:100020000C944E010C944E010C944E010C944E0114
:100030000C9429200C944E010C944E010C944E010A
:100040000C944E010C944E010C944E010C944E01F4
:100050000C944E010C944D200C944E010C944E01C6
:100060000C944E010C944E010C944E010C944E01D4
:100070000C944E010C944E010C944E010C944E01C4
:100080000C948D1F0C944E010C944E010C941A206C
:100090000C9409210C944E210C944E010C944E01A9
:1000A0000C944E010C944E010C944E010C944E0194
:1000B0000C944E010C944E010C944E010C944E0184
:1000C0000C944E010C944E010C944E010C944E0174
:1000D0000C944E010C944E010C944E010C944E0164
:1000E0000C944E010C944E010C944E010C94E516A8
:1000F0000C940D170C9462170C944E010C94351748
:100100000C944E010C944E010C944E010C944E0133
:100110000C944E010C944E010C944E010C944E0123
:100120006E616E00696E660000407A10F35A00A09E
:10013000724E18090010A5D4E80000E876481700B0
:1001400000E40B54020000CA9A3B000000E1F505F0
:10015000000080969800000040420F000000A0863A
:1001600001000000102700000000E803000000006C
:100170006400000000000A00000000000100000010
:1001800000002C76D888DC674F0823DFC1DFAE592A
:10019000E1B1B796E5E3E453C63AE651997696E8BD
:1001A000E6C28426EB898C9B62ED407C6FFCEFBC41
:1001B0009C9F40F2BAA56FA5F490055A2AF75C936C
:1001C0006B6CF9676DC11BFCE0E40D47FEF520E6A2
:1001D000B500D0ED902E0300943577050080841E85
:1001E000080000204E0A000000C80C333333330FE0
:1001F000986E12831141EF8D2114893BE65516CF7D
:10020000FEE6DB18D1844B381BF77C1D901DA4BB88
:10021000E424203284725E228100C9F124ECA1E53D
:100220003D27494E46494E4954594E414E00002003
:10023000410000C84200401C4620BCBE4CCA1B0EF8
:100240005AAEC59D74CDCCCC3D0AD7233C17B7D14F
:100250003877CC2B329595E6241FB14F0A00112434
:100260001FBEC0E0D0E4DEBFCDBF15E0A0E0B2E02D
:10027000E4E0F9E600E00BBF02C007900D92A4375E
:10028000B107D9F72CE0A4E7B5E001C01D92A13F6A
:10029000B207E1F70E9425140C9480340C940000FE
:1002A0008091DF0881608093DF080895BF92CF922C
:1002B000DF92EF92FF920F931F93CF93DF93EC01A6
:1002C0008B01E82FFD2FDF010D900020E9F711973A
:1002D000CA2EC81AD12C15C07E01ED0CF11CF701F5
:1002E00080810E948621B82EF70181810E9486219B
:1002F000F0E1BF9E800D1124F80181938F01D3940A
:10030000D394DC1448F38C2D8695DF91CF911F9107
:100310000F91FF90EF90DF90CF90BF900895CF9313
:10032000DF93EB01833009F456C030F4813069F07B
:10033000823009F086C028C0853009F45AC008F41C
:1003400051C0863009F07DC05BC08091A1091F9229
:100350008F938091A0091F928F9387E392E09F93E0
:100360008F9381E492E09F938F93CB0101969F93AB
:100370008F930E94C0318DB79EB70A960FB6F8943E
:100380009EBF0FBE8DBF5DC08091A1091F928F934C
:100390008091A0091F928F9380919C088F938091E8
:1003A0009B088F9380919E088F9380919D088F93D7
:1003B0008AE792E09F938F93CB0101969F938F934F
:1003C0000E94C0318DB79EB70C960FB6F8949EBFB1
:1003D0000FBE8DBF36C061EE72E0CE0101960E9465
:1003E0002C312FC084ED98E09F938F9385EF92E09E
:1003F0001AC081EA98E09F938F938FE093E013C037
:1004000040EA58E061E080E091E00E94FD178091B1
:10041000A0088F3F11F41092A0088091A0081F92AD
:100420008F938FE293E09F938F93CE0101969F93DA
:100430008F930E94C0310F900F900F900F900F90EC
:100440000F90FE013196DF010D900020E9F7AE1B01
:10045000A8838A2F8095881F8827881FDF91CF91D6
:100460000895CF93DF93CDB7DEB7A3970FB6F89477
:10047000DEBF0FBECDBFBE016F5F7F4F83E2FB01CA
:1004800011928A95E9F786E00E948F01AE014E5FD6
:100490005F4F698180E090E00E943C1A81E0A39662
:1004A0000FB6F894DEBF0FBECDBFDF91CF91089598
:1004B000CF93DF93CDB7DEB7C555D1090FB6F8940A
:1004C000DEBF0FBECDBFBE016F5F7F4F85E5FB0175
:1004D00011928A95E9F785E00E948F01AE014E5F87
:1004E0005F4F698180E090E00E943C1A81E0CB5A26
:1004F000DF4F0FB6F894DEBF0FBECDBFDF91CF91B7
:100500000895CF93DF93CDB7DEB7A3970FB6F894D6
:10051000DEBF0FBECDBFBE016F5F7F4F83E2FB0129
:1005200011928A95E9F784E00E948F01AE014E5F37
:100530005F4F698180E090E00E943C1A81E0A396C1
:100540000FB6F894DEBF0FBECDBFDF91CF910895F7
:10055000CF93DF93CDB7DEB769970FB6F894DEBFC0
:100560000FBECDBFBE016F5F7F4F89E1FB011192CE
:100570008A95E9F783E00E948F01AE014E5F5F4FDD
:10058000698180E090E00E943C1A81E069960FB694
:10059000F894DEBF0FBECDBFDF91CF910895CF930A
:1005A000DF93CDB7DEB7C058D1090FB6F894DEBFE0
:1005B0000FBECDBFBE016F5F7F4F80E8FB01119280
:1005C0008A95E9F782E00E948F01AE014E5F5F4F8E
:1005D000698180E090E00E943C1A81E0C058DF4FC2
:1005E0000FB6F894DEBF0FBECDBFDF91CF91089557
:1005F000CF93DF93CDB7DEB7C058D1090FB6F894CB
:10060000DEBF0FBECDBFBE016F5F7F4F80E8FB0135
:1006100011928A95E9F781E00E948F01882351F0B9
:10062000AE014E5F5F4F698180E090E00E943C1A0E
:1006300081E001C080E0C058DF4F0FB6F894DEBF04
:100640000FBECDBFDF91CF910895CF92DF92FF9281
:100650000F931F93CF93DF93CDB7DEB7CE54D1095D
:100660000FB6F894DEBF0FBECDBF2F969FAF8EAFF3
:100670002F97FE01ED5BFF4F88E0DF01982F1D9261
:100680009A95E9F7FE01FB96DF011D928A95E9F73D
:10069000CC24C394D12CCC0EDD1E82E3F601119242
:1006A0008A95E9F72D961FAE2D97F09095082F9615
:1006B0000EAD1FAD2F976DE373E0C8010E944D3161
:1006C000892B09F4BCC04AE453E06CE473E0C80130
:1006D0000E94C823009749F1B6010E9456012C964A
:1006E0008FAF2C97682F6150A60184E290E00E94A2
:1006F00012182C968FAD2C97FE01E80FF11D80810A
:1007000080939F084FE958E061E081E690E00E9405
:100710001218809193088D7F8093930843E958E0E5
:1007200061E082E290E00E9412184AE453E06AE538
:1007300073E02F968EAD9FAD2F970E94C823009730
:10074000D1F0BE016F5F7F4F0E9456012C968FAF94
:100750002C97AE01455B5F4F61E087E590E00E941A
:100760001218AE014F5F5F4F2C966FAD2C9788E546
:1007700090E00E9412184AE453E06BE673E02F9673
:100780008EAD9FAD2F970E94C823009709F441C0FA
:100790000E94F92F9C012D964FAD2D9780E023C02C
:1007A000E42FF0E0813061F083E490E08C0F9D1F36
:1007B000E80FF91FC9018F709927808381E00EC06F
:1007C000A3E4B0E0AC0FBD1FEA0FFB1F922F929580
:1007D000907F8081892B80834F5F80E064E0369535
:1007E00027956A95E1F721153105D1F62D964FAF82
:1007F0002D97AE014D5B5F4F68E080E090E00E9476
:100800001218AE01455C5F4F68E080E090E00E9406
:10081000FD17BE01655C7F4FCE018D5B9F4F0E942F
:100820002331009709F060C1809193088E7F8093F7
:10083000930843E958E061E082E290E030C066E767
:1008400073E0C8010E944D31892B09F045C163E86E
:1008500073E0C8010E944D31892B09F040C166E95F
:1008600073E0C8010E944D31892B19F00E94F802F3
:100870003BC169EA73E0C8010E944D31892BA1F0A8
:1008800088E0E1E2F2E0DE01D39601900D928A95D4
:10089000E1F7AE014D5C5F4F68E080E090E00E94C0
:1008A000121850E2F52E20C165EB73E0C8010E94DA
:1008B0004D31892B09F43CC042E55BE061E082EFF9
:1008C0009FE00E94121849E45BE062E084EF9FE041
:1008D0000E9412184BE45BE062E086EF9FE00E940A
:1008E000121881E02D968FAF2D97AE01445B5F4FBC
:1008F00061E080EF9FE00E9412182F96EEADFFADF1
:100900002F9711821082AE01435B5F4F66E08AEF42
:100910009FE00E941218F8942FE088E190E00FB653
:10092000F894A895809360000FBE20936000FFCFDD
:1009300065EC73E0C8010E944D31892B71F14AE4E6
:1009400053E06AEC73E0C8010E94C823BC01009721
:1009500009F4CAC0FC0101900020E9F73197E81BB7
:10096000F90B1E2F2C96EFAF2C97E33308F0BCC089
:1009700081EA98E00E942C31612F6F5F2C966FAF57
:100980002C9741EA58E087E790E00E941218809186
:1009900093088F77809393083EC061ED73E0C801A0
:1009A0000E944D31892B19F00E9458029DC066EDBE
:1009B00073E0C8010E944D31892BA9F14AE453E04C
:1009C00066EE73E0C8010E94C823BC01009709F4D9
:1009D0008BC0FC0101900020E9F73197E81BF90B6F
:1009E0001E2F2C96EFAF2C97EB3008F07DC084EDD6
:1009F00098E00E942C31612F6F5F2C966FAF2C977F
:100A000044ED58E08CE690E00E9412188091940822
:100A10008E7F8093940843E958E061E082E290E0A1
:100A20000E94121861C068EF73E0C8010E944D3146
:100A3000892B19F00E94810257C068E074E0C80158
:100A40000E944D31892B69F00E94310260E571E00E
:100A50008CE390E00E940F1F8093740548E2F42E0F
:100A600043C06FE074E0C8010E944D31892BD1F57D
:100A70006BE174E0C8010E944D31892BA9F12C96DD
:100A80001FAE2C974AE453E065E274E0C8010E946F
:100A9000C823009749F1BE01655B7F4F0E94560154
:100AA0002C968FAD2C978630F9F4B8E2FB121CC05F
:100AB000809174050E944C1F0E94840E882349F087
:100AC00060E571E08CE390E00E940F1F8093740555
:100AD0000BC037E2F32E08C02AE0F22E05C094E1E5
:100AE000F92E02C08FE1F82E8F2DC25BDF4F0FB6BB
:100AF000F894DEBF0FBECDBFDF91CF911F910F9154
:100B0000FF90DF90CF900895EF92FF920F931F9385
:100B1000CF93DF93CDB7DEB7CA58D1090FB6F8949B
:100B2000DEBF0FBECDBF7C018E010F571F4F8AE085
:100B3000D8011D928A95E9F7FE01319680E8DF0120
:100B40001D928A95E9F7F701618572858385948501
:100B50002AE030E0A8010E946F31D70154968C91B1
:100B600054971F928F9313968C9113971F928F9384
:100B700012968C9112971F928F9315968C911597C0
:100B80008F9314968C9114978F9311968C91119743
:100B90008F938C918F9317966D917C91189780E02D
:100BA00090E00E94082C20E030E048EC52E40E94E3
:100BB000742B9F938F937F936F931F930F9381E376
:100BC00094E09F938F938E010E5F1F4F1F930F939F
:100BD0000E94C031F80101900020E9F76E2F601BE0
:100BE00069830FB6F894DEBF0FBECDBF67FD07C0A7
:100BF000A80180E090E00E943C1A81E001C080E002
:100C0000C657DF4F0FB6F894DEBF0FBECDBFDF91E2
:100C1000CF911F910F91FF90EF9008950F93813026
:100C200019F40F910C94D40A823029F405E020E0E5
:100C30004CE76AED16C0843031F405E02CED4AED46
:100C40006CE788EF0FC0833031F405E020E040EA24
:100C500062EF8AED07C0853039F400E020E040E023
:100C600060E080E00E94910A0F9108950C94B90A07
:100C70000F931F93CF93DF93CDB7DEB7E2970FB6F5
:100C8000F894DEBF0FBECDBFAE014F5F5F4F82E372
:100C9000FA0111928A95E9F78091A009982F915253
:100CA000923018F0843209F0CFC060E184E290E025
:100CB0000E94FD170A811B81702F60E0610F711D7A
:100CC000882777FD8095982F0E940A2C20E030E03D
:100CD00048EC52E40E94742B6093CE0B7093CF0BC0
:100CE0008093D00B9093D10B89818093CA09009394
:100CF000CE091093CF091092F50929E12093F60946
:100D00001092F70984E68093F8099C859093F9097D
:100D10009D859093FA099E859093FB093F853093BA
:100D2000FC0998899093FD099C819093050A9D8107
:100D30009093060A9091A109923009F000C1109297
:100D4000D0098093D1091092D2098093D3091092CF
:100D5000D4098093D5091092D6098093D7091092AF
:100D6000D8098093D9091092DA098093DB0910928F
:100D7000DC098093DD091092DE098093DF09809100
:100D8000A009813259F51092E0092093E10981E030
:100D90008093E2098AE08093E4091092E5091092B9
:100DA000E3098093E90994E09093EA091092EB0932
:100DB00027E02093EC098093ED099093EE091092BF
:100DC000EF0926E02093F0098093F1099093F2094E
:100DD0001092F30985E08093F4092AC0823289F4E5
:100DE0001092E00982E38093E1091092E6092093D2
:100DF000E7099093E80983E08093E20990930D0A54
:100E000017C08432A9F41092E00982E38093E109CB
:100E10001092E6092093E7099093E80983E0809314
:100E2000E2099093E90984E08093EA091092EB09C2
:100E300033FF04C08DE180930B0A02C010920B0AAD
:100E4000307230930C0A7BC08852823008F077C031
:100E500062E184E290E00E94FD170A811B81702FFD
:100E600060E0610F711D882777FD8095982F0E94A3
:100E70000A2C20E030E048EC52E40E94742B60938E
:100E8000CE0B7093CF0B8093D00B9093D10B8981B5
:100E90008093CA090093CE091093CF092E81209325
:100EA000F5099F819093F6092093F7099093F8092B
:100EB00088858093F90989858093FA098A858093CA
:100EC000FB098B858093FC093C853093FD093D85AA
:100ED0003093FE093E853093FF093093000A3F8529
:100EE0003093010A38893093020A39893093030A12
:100EF0003A893093040A3C813093050A3D8130934E
:100F0000060A3091A1093230D1F40093D009109330
:100F1000D1092093D2099093D3099091080A99237B
:100F200019F091E09093070A83FF04C09DE190932C
:100F30000B0A02C010920B0A807280930C0AE29690
:100F40000FB6F894DEBF0FBECDBFDF91CF911F91DA
:100F50000F910895AF92BF92CF92DF92EF92FF92DE
:100F60000F931F93CF93DF938C0198E0D92EA02E7F
:100F70000E949E20F801B080B39482E00E94BB20C2
:100F8000C02FD12F82E0C82E07C07E0189910E9418
:100F9000BB20F7018081C8268C2F8A198B15A8F3F6
:100FA0008C2D0E94BB201092CD0B78940E9446207D
:100FB00010C00E94EC20882339F00E9444208091C8
:100FC000CD0B8634A8F00AC00E94D51A81110E9468
:100FD0002A1B8091CD0B863460F3EFCF8FED9EE21C
:100FE0000197F1F700C00000DA9409F0C1CF06C004
:100FF0000E94F820863021F0893081F780E001C01E
:1010000081E0DF91CF911F910F91FF90EF90DF90E2
:10101000CF90BF90AF900895CF93DF93CDB7DEB759
:1010200028970FB6F894DEBF0FBECDBF8091110A8E
:10103000823009F587E0898388E18A838091140AE8
:1010400081110AC08091940881FF06C08091050A31
:101050008B838091060A05C08091CE098B83809195
:10106000CF098C831D821E828091080A8F83809114
:10107000090A88871BC084E0898382E18A83809182
:10108000140A81110AC08091940881FF06C08091E2
:10109000050A8B838091060A05C08091CE098B8357
:1010A0008091CF098C8380910A0A8D83CE010196AD
:1010B0000E94AA0728960FB6F894DEBF0FBECDBFD8
:1010C000DF91CF910895DF92EF92FF920F931F93DC
:1010D000CF93DF938C010E94F820C82F823009F54E
:1010E0000E94F820E82EF80180818E15D0F0FE2CA9
:1010F000FC26D02EC02FD12F04C00E94F820899347
:10110000F8268C2F8D198E15C0F30E94F820F81246
:1011100005C086E00E94BB2081E004C085E10E94FA
:10112000BB2080E0DF91CF911F910F91FF90EF9056
:10113000DF900895CF93DF93CDB7DEB72A970FB630
:10114000F894DEBF0FBECDBF8AE08983CE01019641
:101150000E946308882371F08A818093CB098B8178
:101160008093CC098C818093CD098D818093FC097B
:1011700081E001C080E02A960FB6F894DEBF0FBE72
:10118000CDBFDF91CF910895CF93DF93CDB7DEB779
:1011900028970FB6F894DEBF0FBECDBF88E0E9E216
:1011A000F2E0DE01119601900D928A95E1F783E05D
:1011B0008E8385E08F83CE0101960E94AA07882343
:1011C00019F00E949A0801C080E028960FB6F894A2
:1011D000DEBF0FBECDBFDF91CF910895CF93DF93D8
:1011E000CDB7DEB762970FB6F894DEBF0FBECDBFA6
:1011F0008091110A8230C1F522E1CE010196FC01F5
:10120000322F11923A95E9F729830E9463088823C7
:1012100009F457C08981873109F053C08A81805E03
:101220008093100A8C818093140A8D818093150A13
:101230008E818093160A8F818093170A8A85809306
:10124000180A8B858093190A8E858093120A8F85E0
:101250008093130A888980931A0A898980931B0ACC
:101260008A8980931C0A2BC0813059F52BE0CE016E
:101270000196FC01322F11923A95E9F729830E94D9
:1012800063088823F1F089818131D9F48A81805EF5
:101290008093100A8B818093120A8C818093140AA8
:1012A0008D818093150A8E818093160A8F81809399
:1012B000170A8A858093180A8B858093190A81E022
:1012C00001C080E062960FB6F894DEBF0FBECDBFBE
:1012D000DF91CF910895CF93DF9300D01F92CDB7C8
:1012E000DEB782E089838091110A823011F486E1B1
:1012F00001C080E18A83809191088B83CE010196A1
:101300000E94AA07811102C080E011C00E94EE086D
:101310008823D1F38091930881FD08C08FED9EE270
:101320000197F1F700C000000E940C0881E00F90C7
:101330000F900F90DF91CF9108958091110A813025
:1013400039F48091160A08C0803149F080E0089590
:101350008230E1F78091170A81FD07C0F5CF8091B7
:10136000100A893211F0883289F781E0089580915E
:10137000160A803149F081E090E02091170A20316F
:1013800029F080E090E002C081E090E08170089553
:10139000CF93DF9300D000D000D0CDB7DEB7FE01F1
:1013A000319686E0DF011D928A95E9F78091110A56
:1013B000823059F483E0898380E48A8380918F08A6
:1013C000909190089B838C8310C085E0898380E492
:1013D0008A8380918F08909190089B838C83809161
:1013E000CE098D838091CF098E83CE0101960E9414
:1013F000AA0726960FB6F894DEBF0FBECDBFDF91C9
:10140000CF910895CF93DF93CDB7DEB727970FB66F
:10141000F894DEBF0FBECDBFFE01319687E0DF013D
:101420001D928A95E9F78091110A823059F483E080
:10143000898382E48A8380918F08909190089B83AE
:101440008C8313C086E0898382E48A8380918F082D
:10145000909190089B838C838091CE098D8380919D
:10146000CF098E838091FF098F83CE0101960E9460
:10147000AA0727960FB6F894DEBF0FBECDBFDF9147
:10148000CF910895CF93DF9300D0CDB7DEB781E041
:10149000898381E48A83CE0101960E94AA070F9076
:1014A0000F90DF91CF910895CF93DF93CDB7DEB743
:1014B00027970FB6F894DEBF0FBECDBFFE01319661
:1014C00087E0DF011D928A95E9F78091110A823049
:1014D00059F483E0898381E48A8380918F08909115
:1014E00090089B838C8310C085E0898381E48A8384
:1014F00080918F08909190089B838C838091CE0976
:101500008D838091CF098E83CE0101960E94AA0718
:1015100027960FB6F894DEBF0FBECDBFDF91CF91F7
:1015200008950F93CF93DF93CDB7DEB72A970FB609
:10153000F894DEBF0FBECDBFFE0131969AE0DF0109
:101540001D929A95E9F796E0998390E69A838B83AA
:101550006C834D832E830F83CF010E94AA072A96A6
:101560000FB6F894DEBF0FBECDBFDF91CF910F91C4
:1015700008950F9305E020910F0240910D026091B4
:101580000A0280EA0E94910A882359F02FEF87EA25
:1015900091E6215080409040E1F700C0000081E0DA
:1015A00001C080E00F9108950F9304E02CEB40EA16
:1015B0006EEE82E70E94910A8823E1F02FEF87EA1E
:1015C00091E6215080409040E1F700C0000003E028
:1015D00020E040EA60EA82EF0E94910A882361F0ED
:1015E0002FEF87EA91E6215080409040E1F700C05C
:1015F000000002C080E001C081E00F9108958130B9
:1016000031F40E94540A811105C080E008950E94BF
:10161000420AF9CF1092910881E00895813031F4A7
:101620000E94C809811107C080E008958230E1F767
:101630000E94020AF7CF80E88093910881E0089524
:101640000C94B7090C949D090E946B09882319F02A
:1016500082E08093960808950E94C408882311F0C0
:1016600082E001C081E08093110A8FE39FE101973E
:10167000F1F700C000000E94240B8091100A8093B3
:10168000A0098091110A8093A1090895CF93DF9357
:10169000CDB7DEB7E2970FB6F894DEBF0FBECDBF71
:1016A000FE01319682E3DF011D928A95E9F7809170
:1016B000A109823009F0A4C18091A009813209F00A
:1016C0007EC09DE299838A839091CB099B83909100
:1016D000CC099C839091CD099D839091CE099887E8
:1016E0009091CF0999879091D0099A879091D109CB
:1016F0009B879091D2099C879091D3099D87909167
:10170000D4099E879F879091D709988B9091D6098D
:10171000998B9091D9099A8B9091D8099B8B909134
:10172000DA099C8B9091DB099D8B9091DC099E8B53
:101730009091DD099F8B9091DE09988F9091DF0940
:10174000998F9091E0099A8F9091E1099B8F9091E8
:10175000E2099C8F9091E4099D8F9091E5099E8FFD
:101760009091E3099F8F9091E90998A39091EA09DC
:1017700099A39AA39091EC099BA39091ED099CA346
:101780009091EF099DA39091EE099EA39091F0098D
:101790009FA39091F10998A79091F30999A790912F
:1017A000F2099AA79091F4099BA79091FD099CA733
:1017B00090910B0A9DA790910C0A9EA7CDC08232F2
:1017C00009F05EC089838A839091CB099B839091B5
:1017D000CC099C839091CD099D839091CE099887E7
:1017E0009091CF0999879091D0099A879091D109CA
:1017F0009B879091D2099C879091D3099D87909166
:10180000D4099E879F879091D709988B9091D6098C
:10181000998B9091D9099A8B9091D8099B8B909133
:10182000DA099C8B9091DB099D8B9091DC099E8B52
:101830009091DD099F8B9091DE09988F9091DF093F
:10184000998F9091E6099A8F9091E7099B8F9091DB
:10185000E0099C8F9091E1099D8F9091E8099E8FFE
:101860009091E2099F8F90910D0A98A39091FD09A4
:1018700099A390910B0A9AA390910C0A9BA36CC018
:10188000843209F069C096E299838A839091CB09EA
:101890009B839091CC099C839091CD099D839091DD
:1018A000FC099E839091CE0998879091CF099987E2
:1018B0009091D0099A879091D1099B879091D209F4
:1018C0009C879091D3099D879091D4099E879F878B
:1018D0009091D709988B9091D609998B9091D909BD
:1018E0009A8B9091D8099B8B9091DA099C8B90915F
:1018F000DB099D8B9091DC099E8B9091DD099F8B7C
:101900009091DE09988F9091DF09998F2091050AB7
:101910002A8F9091060A9B8F2C8F9D8F9091E609BC
:101920009E8F9091E7099F8F9091E00998A39091E5
:10193000E10999A39091E8099AA39091E2099BA3E8
:1019400090910D0A9CA39091FD099DA390910B0A83
:101950009EA390910C0A9FA3982F9852923008F062
:1019600099C091E299838A838091CB098B8380917E
:10197000CC098C838091CD098D838091FC098E8365
:101980001F828091CE0988878091CF0989878091B5
:10199000D0098A878091D1098B878091D2098C8761
:1019A0008091D3098D878091FB098E871F86888B54
:1019B000198A8091FE098A8B8B8B8C8B8D8B809101
:1019C000070A8E8B8091080A8F8B188E8091010AEE
:1019D000898F8091020A8A8F8091030A8B8F809170
:1019E000040A8C8F8091FD098D8F80910B0A8E8F58
:1019F00080910C0A8F8F18A281E089A31AA24AC095
:101A0000813009F047C08BE289838091A0098A83E5
:101A10008091CE098B838091CF098C838091F509C9
:101A20008D838091F6098E838091F7098F83809151
:101A3000F80988878091F90989878091FA098A874E
:101A40008091FB098B878091100A88528230E0F4E4
:101A50008091FE098C878091FF098D878091000A13
:101A60008E878091010A8F878091020A888B8091EE
:101A7000030A898B8091040A8A8B8091FC098B8BE5
:101A80008091FD098C8B06C08091FC098C87809128
:101A9000FD098D87CE0101960E94AA07E2960FB636
:101AA000F894DEBF0FBECDBFDF91CF910895CF93E5
:101AB000DF9300D0CDB7DEB781E0898388E48A83E5
:101AC000CE0101960E94AA070F900F90DF91CF914F
:101AD000089543E958E062E082E290E00E94FD1739
:101AE00040EA59E062E08EE190E00E94FD1710921A
:101AF0009708109298081092990810929A0881E01D
:101B000090E090939C0880939B0890939E0880930C
:101B10009D08809193088F7B8093930881FD47C037
:101B20000E943806809193088460809393084FE95F
:101B300058E061E081E690E00E94FD1780919F08E7
:101B40008823C9F08091930888608093930840EAC5
:101B500058E061E080E091E00E94FD178091A008CC
:101B60008F3F49F41092A00840EA58E061E080E01D
:101B700091E00E9412188BE0E4EDF8E0DF011D9285
:101B80008A95E9F783E3E1EAF8E0DF011D928A959F
:101B9000E9F744ED58E06AE08CE690E00E94FD171A
:101BA00041EA58E062E387E790E00C94FD170C945B
:101BB0005E20CF93DF93CDB7DEB767970FB6F8946B
:101BC000DEBF0FBECDBF21E02F8B38E13E8B6A8791
:101BD0007B878C879D8780919D0890919E089A8332
:101BE00089838091100A8B838091110A8C83809164
:101BF000140A8F8380919B0890919C089E838D830B
:101C00008091CF09888719861E861F86188A198AAF
:101C10001A8A1B8A1C8A2D8B40EA58E061E080E01A
:101C200091E00E94FD178091A0088F3F29F09091CC
:101C30009F08891708F048C081508E3F50F01092DD
:101C4000A008AE014A5E5F4F62E081E091E00E9431
:101C500012188091A00825E1829FC0011124AE01D5
:101C60004F5F5F4F65E1885E9E4F0E941218809122
:101C7000A0088F5F8093A00840EA58E061E080E010
:101C800091E00E9412188091930885FD0AC080623D
:101C90008093930843E958E062E082E290E00E947A
:101CA00012189091A00880919F08981323C08091EA
:101CB000930880618093930843E958E062E082E2F0
:101CC00090E00E94121816C043E958E061E082E2F9
:101CD00090E00E94FD1780919308877F8061809338
:101CE000930843E958E061E082E290E00E94121814
:101CF00080E001C081E067960FB6F894DEBF0FBEAA
:101D0000CDBFDF91CF910895CF93DF93CDB7DEB7ED
:101D100067970FB6F894DEBF0FBECDBF40EA58E01C
:101D200061E080E091E00E94FD178091A008815061
:101D30008E3F78F5AE014A5E5F4F62E081E091E050
:101D40000E94FD17AE014F5F5F4F65E18E899F894D
:101D50000E94FD17CE0101960E9484058823C9F0D8
:101D60008E899F8945969F8B8E8B8091A00881508C
:101D70008093A008AE014A5E5F4F62E081E091E08F
:101D80000E94121840EA58E061E080E091E00E9471
:101D900012188091A00881110DC0809193088F7D49
:101DA0008F7E8093930843E958E061E082E290E0FF
:101DB0000E9412188091A00867960FB6F894DEBFB3
:101DC0000FBECDBFDF91CF9108951F93CF93DF93C7
:101DD0001F92CDB7DEB764E670E00E94F92C162F93
:101DE00040E861E08AE279830E94E21366EA8BE2CE
:101DF0000E94C4138AE20E94D813682F607F626039
:101E00008AE20E94C413612F8DE20E94C41379817B
:101E1000672F8CE20E94C41380E090E00F90DF9166
:101E2000CF911F9108956FE081E00E94C41360E498
:101E300085E10E94C41348E060E088E00E94E2135C
:101E400082E10E94D813682F6870606882E10E9466
:101E5000C41383E10E94D813682F6870606883E11F
:101E60000E94C4136DE689E10E94C41368E486E20F
:101E70000E94C41365E588E10E94C41366E284E20F
:101E80000E94C41364EF87E20E94C41388E893E1C0
:101E90000E94E50E43E061E084E10E94E21340E429
:101EA00061E08CE00E94E21384E00E94D81380FF7E
:101EB000FBCF61E084E00E94C41388E893E10E94B4
:101EC000E50E6AE18BE00E94C41360E186E10E94A6
:101ED000C41364E887E10E94C41360E081E00E94BB
:101EE000C41380ED97E00C94E50EAF92BF92CF92B1
:101EF000DF92EF92FF920F931F93CF93DF93F82E11
:101F00008B01EA0162E484E00E94C41360E085E092
:101F10000E94C41360E88AE00E94C41381E00E941A
:101F2000D813682F607F8CE0F81201C06C6081E0EC
:101F30000E94C413D0937605C0937505EFE0EF15AA
:101F400008F468C02F2D30E0F901EE0FFF1FE252B8
:101F5000FB4FC081D181F901E250FB4FC080F901F4
:101F6000E25FFA4FD080F901E25EFA4FA08020973D
:101F700009F056C082E00E94D813682F6C2982E0D5
:101F80000E94C41383E00E94D813682F83E00E944C
:101F9000C413E12C08C0F801EE0DF11D608189E049
:101FA0000E94C413E394E0917505F0917605838156
:101FB000E81688F3FCE0FF1206C040E861E08DE01F
:101FC0000E94E21316C081E00E94D813682F607F40
:101FD0006F2981E00E94C4130CC084E00E94D813D2
:101FE000B82E85E00E94D81381E0E81AF10839F490
:101FF0000BC0DD2041F0EE24E394FE2CB12C8B2DA0
:102000008D2159F301C0B12CDB20B0FE09C0C1E025
:10201000D0E006C0A12CC12C82E4D82EC3E0D1E0D0
:102020004C2D60E082E00E94E21340E060E083E03B
:102030000E94E213AA2009F482C0209709F07FC011
:10204000E0907505F09076058AE00E94D813F701BC
:1020500084838CE00E94D813E0917505F091760599
:1020600087708583168286E00E94D813F82E882315
:1020700009F44BC083FD05C081FF05C0C3E0D0E07B
:1020800002C0C6E0D0E0F0FC23C0F4FC24C0F2FEA5
:102090001CC0E0917505F091760584818130F1F4E2
:1020A000258136812430310511F0232BB9F489E0E4
:1020B0000E94D813F8018083E0917505F0917605B0
:1020C00081E08483C2E0D2E00EC0F6FC0AC00BC0FF
:1020D000CBE0D0E008C0C9E0D0E005C0C2E0D0E06D
:1020E00002C0C4E0DEE7F7FC03C0209721F005C082
:1020F000CDE0D0E002C0CCE0D0E060E086E00E941D
:10210000C413C230F2E0DF07D1F0C12C09C078015E
:10211000EC0CF11C89E00E94D813F7018083C39472
:10212000E0917505F09176052481C21680F38581D2
:102130009681892B21F0222311F0215024836D2DCB
:1021400084E00E94C41360E085E00E94C41360E84C
:102150008AE00E94C41361E084E00E94C41360E03E
:102160008DE00E94C413CE01DF91CF911F910F919A
:10217000FF90EF90DF90CF90BF90AF9008951F93A6
:10218000CF93DF93182FEB0148E060E088E00E94D6
:10219000E21360E88EE00E94C41340E860E082E150
:1021A0000E94E21340E860E083E10E94E21367E0EE
:1021B0008DE00E94C4131092320A1092330A1092DA
:1021C000340A1092360A1092380A1092370A109286
:1021D000390A10931E0A81E08093350A80E991E064
:1021E0000E94E50E42E35AE06EE17AE08CE00E9444
:1021F000750F882311F0863089F49091360A923059
:1022000081F42091370A3091380A232B51F4209120
:102210001E0A30911F0A3983288304C0188219824C
:1022200001C08BE090E0DF91CF911F9108957F92E4
:102230008F929F92AF92BF92CF92DF92EF92FF92D6
:102240000F931F93CF93DF93D82EC62EEA011092DF
:10225000200A1092210A1092220A1092230A109248
:10226000240A40E860E082E10E94E21340E860E076
:1022700083E10E94E21360E08EE00E94C413912C7F
:10228000A12CB12C00E21AE074E0E72EF12CAFC0D3
:1022900020E22C1508F4B2C067E0A62EAC209C2DDD
:1022A000969596959695B92EA110B394D0921E0A44
:1022B0008A2D805EE0E19E9F800D112480931F0A8D
:1022C000DE01E0E2FAE002C08D9181938E2F801B47
:1022D0008B15D0F3F0E1AF9EB00111246A298DE097
:1022E0000E94C4131092320A1092330A1092340AD8
:1022F0001092360A1092380A1092370A1092390A50
:102300008B2D8E5F8093350A80E197E20E94E50E67
:1023100042E35AE06EE17AE08CE00E94750F86306D
:10232000910519F0009709F061C04091370A50916A
:10233000380A7091360A642F28E0729F600D1124CC
:102340006A192C2D30E0260F311D293231050CF091
:1023500048C0452B19F07F5F7093360AAA2061F0C0
:10236000EB2DF0E03197EC0FFD1F208130911E0A1C
:10237000232B208371E001C070E0812C4B2D50E0B5
:10238000D701A41BB50BA72EB12C0DC0F901E25E3D
:10239000F54FEA0DFB1D70802C0F3D1F240F351FDC
:1023A000F90170828394282D30E02A173B0774F3DB
:1023B0008630910521F4C60E80E090E017C0498177
:1023C000588145275A8145275B814527F901E25EFF
:1023D000F54FE70FF11D2081421306C09924939415
:1023E00005C084E090E002C081E095E05C019110BE
:1023F00008C0A114B10409F44BCF03C0AA24A394CC
:10240000BA2C60E08DE00E94C41360E88EE00E9468
:10241000C413C501DF91CF911F910F91FF90EF90F1
:10242000DF90CF90BF90AF909F908F907F90089556
:10243000FF920F931F93CF93DF93F82EEB018A0146
:1024400040E861E082E10E94E21340E861E083E15C
:102450000E94E213F0921E0A80E780931F0A88818F
:102460008093200A89818093210A8A818093220A9D
:102470008B818093230A8981988189279A81892772
:102480009B8189278093240A1092320A1092330A82
:102490001092340A1092360A1092380A1092370AB3
:1024A0001092390A87E08093350A80ED97E00E9408
:1024B000E50E42E35AE06EE17AE08CE00E94750F8F
:1024C0009C01009789F48091360A813059F48091FB
:1024D000370A9091380A892B29F480911E0AF80155
:1024E000808302C024E030E0C901DF91CF911F91C9
:1024F0000F91FF900895AF92BF92CF92DF92EF922B
:10250000FF920F931F93CF93DF93CDB7DEB72E9734
:102510000FB6F894DEBF0FBECDBF7B016A018E01FE
:102520000F5F1F4FA82EE0E0F0E0B12CAA2039F099
:1025300080E28A1530F4A0EEAA0E60E204C060E0EA
:1025400002C06A2DA12CB1E0BB1629F082E0B812BE
:102550000BC027E90AC02A813B814C81D7012D930A
:102560003D934C9325E901C023E9603249F030974F
:10257000E9F4A801822F2E870E941711FC012E85F5
:102580003097A1F4AE01435F5F4FB801822F0E94E4
:102590001812FC01009719F48D8582FF07C0B394CF
:1025A0000C5F1F4FB3E0BB12C1CF1FC081E0B81654
:1025B00021F0A2E0BA1219C00CC04D815E816F817A
:1025C0007885D70113964D935D936D937C93169701
:1025D00016C04D815E816F817885D70116964D9327
:1025E0005D936D937C9319970AC009811A812B81A1
:1025F0003C81D7010D931D932D933C9313978D85AB
:10260000D6018C93CF012E960FB6F894DEBF0FBE85
:10261000CDBFDF91CF911F910F91FF90EF90DF9091
:10262000CF90BF90AF900895CF93DF931092320A6E
:102630001092330A1092340A1092350A1092360A18
:102640001092380A1092370A1092390A80931E0AA3
:1026500020931F0A86E0FB01A0E2BAE001900D92F0
:102660008A95E1F7FA0180819181A281B3818093FB
:10267000260A9093270AA093280AB093290A8CE08F
:102680008093350A80ED97E00E94E50E42E35AE020
:102690006EE17AE08EE00E94750FEC01009741F444
:1026A00088E00E94D8138F70883011F0C1E0D2E02A
:1026B000CE01DF91CF910895CF93DF93D62FC72F0F
:1026C0001092320A1092330A1092340A1092360A8B
:1026D0001092380A1092370A1092390A90E39093B8
:1026E0001E0A80931F0A82E08093350A80E197E2F8
:1026F0000E94E50E42E35AE06EE17AE08CE00E942F
:10270000750F9C010097F1F08130910599F080914F
:10271000370A9091380A049769F480911E0A982F1D
:102720009F7090931E0A8A7019F025E031E002C074
:1027300021E032E0ED2FFC2F80E1DF011D928A9530
:10274000E9F717C08091360A803151F0ED2FFC2F48
:1027500080E1DF011D928A95E9F728E030E009C0A9
:1027600080E1EEE1FAE0AD2FBC2F01900D928A9549
:10277000E1F7C901DF91CF910895883011F084E02D
:1027800001C081E00C945C13CF93DF931F92CDB70F
:10279000DEB7880F71988E7769830E94151469815E
:1027A000862F0E941514719A0F90DF91CF91089592
:1027B000880F8E77719880680E9415140E941A14F1
:1027C000719A08951F93CF93DF9300D0CDB7DEB7F2
:1027D000182F4A8369830E94D81369814A8166232E
:1027E00019F0682F642B03C0642F60956823812F34
:1027F0000F900F90DF91CF911F910C94C413CF9342
:10280000DF931F92CDB7DEB787E084B9289A82E0C4
:102810008DB9719A299882E58CBD8DB589838EB565
:1028200089830F90DF91CF9108958EBD0DB407FE7F
:10283000FDCF08958FEF8EBD0DB407FEFDCF8EB591
:1028400008950E94FF130C94130FF89488E10FB6BB
:10285000F89480936000109260000FBE80E090E0DA
:102860000E94A3200E947C1F0E943C2078940E941A
:1028700021230E94211478940E9461240E942A1B23
:10288000FACF8091390186958170089580917705FE
:10289000811104C080915C01809377058091770558
:1028A0000895809146018F71809378051092550BA1
:1028B00008950E944614823019F080917805089599
:1028C00086E108958091BA0A0895CF93C82F8B505E
:1028D000803118F50E944114811121C08091480176
:1028E0008F718C17F1F0909148018C2F8F71907E31
:1028F000892B80934801809141018F71863011F0BE
:10290000893021F4EDE2F1E03197F1F7809148014F
:102910008F718C1731F083E405C082E403C084E436
:1029200001C080E4CF910895663098F4811104C00D
:1029300080914301886003C080914301877F809329
:10294000430180914301887F862B8093430180E47B
:10295000089582E40895809141018F710895E9E31B
:10296000F1E080818D7F80838DE090E00197F1F729
:10297000E2E4F1E08081807E8360808383E090E008
:102980000197F1F70895E9E3F1E0808181608083A8
:1029900080818D7F80838DE090E00197F1F78081C9
:1029A0008E7F808308950F931F93CF93DF931F92A1
:1029B000CDB7DEB70DEF13E0F8013197F1F789835A
:1029C0000E94C31490914201907E936090934201C3
:1029D000F8013197F1F79CE490934E0190914901F1
:1029E000907F976090934901898181110E948A1795
:1029F00080E40F90DF91CF911F910F910895CF93B5
:102A0000C82F0E944614823031F490910500C0FB1B
:102A100097F9909305000E944614833031F4909109
:102A20000400C0FB95F990930400CF910895209184
:102A300041012F71822F8151823058F0223049F0AC
:102A400081E090E0213041F02E3131F080E090E0E3
:102A5000089581E090E008950895CF93C82F8830BD
:102A600049F0863039F0893029F0863119F0893102
:102A700009F058C00E944114811156C00E941715D8
:102A80008111FCCF0E944614823039F40E94D91D76
:102A9000882319F0C63109F4C6E0809141018F7195
:102AA000C81709F43DC0C83019F40E94AF1431C0F2
:102AB000C93159F48930E1F090914201907E9960DA
:102AC00090934201863181F40CC0C63189F489307B
:102AD00079F090914201907E996090934201893102
:102AE00019F4E3E0F0E002C0E9E6F1E03197F1F734
:102AF000209142019C2F9F71207E922B9093420146
:102B0000883019F4E9E6F1E002C0E3E0F0E0319743
:102B1000F1F7809141018F718C1711F083E405C0AA
:102B200080E403C082E401C084E4CF910895CF9390
:102B3000DF9300D000D01F92CDB7DEB78091410166
:102B40008F718C838C81813151F08C81863039F08A
:102B50008C81813021F08C81863109F072C04091E6
:102B60007B012BE33AE050E060E871E0C9010E948C
:102B70000F3180917B0180933A0AE0917B01F0E074
:102B8000E65CF54F80818093BA0A19821B821A8213
:102B900020913B0A90913C0A80E0820F911D909316
:102BA0003C0A80933B0A2091400A2F3F81F42091F8
:102BB000410A2F3F61F49C01207F3327232B39F0FA
:102BC0009C0122273C7C2115384809F471C08136CC
:102BD00028E8920709F140F4833028E0920781F059
:102BE0008115904849F512C083362CE8920701F10F
:102BF000833648EC9407D1F083369848E9F40EC048
:102C00008091460B8823C1F085E115C00E94D91D33
:102C1000882391F084E10FC080E10DC08091440AC7
:102C2000823031F08B3B31F0813031F487E103C0E9
:102C300088E101C089E18983CE0101960E94DE1AF4
:102C400037C08C81823049F08C81823131F08C81A7
:102C5000893119F08C81893059F51092550B198200
:102C60001B821A82809142018295869587708D839E
:102C70008D81833049F018F4823050F403C08530E0
:102C800039F404C081E103C083E101C082E189839A
:102C90008981882321F0CE0101960E94DE1A86E107
:102CA0000E942D1580919400909195000E94E02E35
:102CB0000F900F900F900F900F90DF91CF9108958C
:102CC0001F93CF93DF93182FEB0187FD2BC00E943A
:102CD00017158111FCCF89E10E942D1580914101CA
:102CE0008F718931C1F72D813E813093540B209330
:102CF000530B212F30E02E5F3F4FA901BE0181E829
:102D000091E00E940F311E5F109380018091390184
:102D1000826080933901809139018D7F80933901E0
:102D200080E401C082E4DF91CF911F910895EEE627
:102D3000F1E0908180FB93F9908308958093620184
:102D400090936301089580936001909361010895C9
:102D5000E4E6F1E0DC012D91CD012193EC36B1E008
:102D6000FB07C1F70895CF93DF93D82FC09141019E
:102D7000CF710E944614833019F4C63051F40BC051
:102D80000E9446148338C9F30E9446148730B9F470
:102D9000F4CFC631A1F4D69590E080E00DC040910B
:102DA000460154E0859F90011124842F80768295FE
:102DB00086958770822B9F5F9D13F1CF02C00E9482
:102DC000DC2EDF91CF91089508951F920F920FB6D8
:102DD0000F9211240BB60F922F933F934F935F9353
:102DE0006F937F938F939F93AF93BF93EF93FF93D3
:102DF0000E945114FF91EF91BF91AF919F918F91DC
:102E00007F916F915F914F913F912F910F900BBEEA
:102E10000F900FBE0F901F9018951F920F920FB634
:102E20000F9211240BB60F922F933F934F935F9302
:102E30006F937F938F939F93AF93BF93EF93FF9382
:102E40000E949715FF91EF91BF91AF919F918F9144
:102E50007F916F915F914F913F912F910F900BBE9A
:102E60000F900FBE0F901F9018951F920F920FB6E4
:102E70000F9211240BB60F922F933F934F935F93B2
:102E80006F937F938F939F93AF93BF93EF93FF9332
:102E9000809141018F71863111F00E949715FF9149
:102EA000EF91BF91AF919F918F917F916F915F91C2
:102EB0004F913F912F910F900BBE0F900FBE0F902F
:102EC0001F9018951F920F920FB60F9211240BB6F8
:102ED0000F922F933F934F935F936F937F938F93B3
:102EE0009F93AF93BF93EF93FF930E94951EFF9123
:102EF000EF91BF91AF919F918F917F916F915F9172
:102F00004F913F912F910F900BBE0F900FBE0F90DE
:102F10001F901895DF92EF92FF920F931F93CF931C
:102F2000DF9300D0CDB7DEB780917905811159C00C
:102F300081E08093790500916600F89461E00E9439
:102F40009414D090B100E0908100F0908000109235
:102F5000B100109281001092800088EE93E053E05F
:102F600066E04FEF5093B100609381001092B20081
:102F7000109285001092840046BB47BBB89BFECFE1
:102F800020918400309185003A832983109281003A
:102F90001092B10029813A812D3F314020F42091D7
:102FA0006600215008C029813A812330324048F020
:102FB000209166002F5F20936600019799F610E03C
:102FC00001C011E060E081E00E949414D092B10051
:102FD000E0928100F0928000111104C0009366001D
:102FE00001C011E0812F0F900F90DF91CF911F91C1
:102FF0000F91FF90EF90DF900895CF93DF931F9292
:10300000CDB7DEB79C01CA014FB74983F894462F6C
:1030100050E0B9010E944D3289818FBF0F90DF913E
:10302000CF910895CF93DF931F92CDB7DEB79C0168
:10303000CA014FB74983F894462F50E0B9010E9466
:103040006F3289818FBF0F90DF91CF9108951F93C9
:10305000CF93DF93CDB7DEB728970FB6F894DEBFD6
:103060000FBECDBF182F2FEF3FEF30934A0B2093A9
:10307000490B30934C0B20934B0B1092460B309323
:103080004E0B20934D0B3093500B20934F0B10920F
:10309000510B1092550B81E08093560B0E94D31474
:1030A0001093520B1F3F19F0812F0E94651481E08D
:1030B0000E94FF1488E00E942D150E94E41686E10C
:1030C0000E942D154EE35BE068E080E090E00E94F6
:1030D000FD1780E00E9497168FEF9FEF0E94A316C6
:1030E0008FEF9FEF0E949E1680916C018F7080621F
:1030F00080936C0180913E0B898380913F0B8A8382
:103100008091400B8B838091410B8C838091420B8B
:103110008D838091430B8E838091440B8F838091AC
:10312000450B8887CE0101960E94A8160E9475194A
:1031300028960FB6F894DEBF0FBECDBFDF91CF91BA
:103140001F9108958093520B0C94651480917A0519
:103150000E944C1F9091460B81E089270C944D22D0
:10316000CF93DF93EC01862F0E94A21883E698ECA0
:103170009093BE0A8093BD0AE8E4FBE080818093CF
:10318000BF0A8F5F80838091490B90914A0B909387
:10319000C10A8093C00AD093C30AC093C20AAEE3A7
:1031A000BBE0E4ECFAE08C91808311968C9111974E
:1031B000818312968C911297828313968C91139728
:1031C000838314968C911497848315968C9115970C
:1031D000858316968C911697868317968C91878394
:1031E00081E08093CC0AD093CE0AC093CD0A82E0CE
:1031F0008093CF0A6DEB7AE083E10E94601666EA65
:1032000078E188EE93E00E94C61E80937A05DF91F4
:10321000CF910895009761F0EBE7F5E020813181CF
:103220002817390739F0339626E0E73AF207B1F765
:1032300080E0089581E00895EBE7F5E0DF0120E00C
:1032400030E04D915C9111974817590761F4F901ED
:10325000EE0FFF1FE20FF31FE358FA4F80818E7FBE
:103260008D7F808308952F5F3F4F1396243631055D
:1032700041F720E030E040815181452BA9F4A901BC
:10328000440F551F420F531FFA01E558FA4F91831F
:103290008083FA01E358FA4F80818E7F8D7F80838F
:1032A000822F90E00C9446222F5F3F4F33962436B6
:1032B000310509F70895EBE7F5E020E030E04081C3
:1032C00051814817590751F4F901EE0FFF1FE20F22
:1032D000F31FE558FA4F1182108208952F5F3F4F78
:1032E00033962436310559F7089508950895FC0161
:1032F00025852F772587089580E090E89093BE0A72
:103300008093BD0AE7E4FBE080818093BF0A8F5F72
:1033100080838091490B90914A0B9093C10A8093CE
:10332000C00A80914B0B90914C0B9093C30A8093F1
:10333000C20A8FEF90E09093C50A8093C40A86E09A
:103340008093C60A8091510B8093C70A6DEB7AE097
:103350008BE00C9460166DEB7AE08091BC0A0C94C3
:1033600060160F931F93CF93DF9300D000D0CDB79B
:10337000DEB78C0180914B0B90914C0B081719070D
:1033800009F471C00F3F3FEF130709F46CC030918F
:10339000460B332309F467C0E1E6F8E8F093BE0A70
:1033A000E093BD0A3091480B3093BF0A3F5F3093E2
:1033B000480BE091490BF0914A0BF093C10AE0935E
:1033C000C00A9093C50A8093C40A1093C70A009359
:1033D000C60A9093C90A8093C80AC8012A834B83FE
:1033E0005C8369830E94AB1D2A814B815C8169816A
:1033F000263029F41093C30A0093C20A08C08091B2
:103400004D0B90914E0B9093C30A8093C20A209368
:10341000CA0AFA018BEC9AE0DC0102C031913D93BB
:103420003A2F381B3617D0F38091C20A9091C30A05
:1034300040914B0B50914C0B84179507A1F00196CE
:1034400091F0625F6093BC0A2650223018F480E04D
:1034500090E002C087E090E06BEA79E10E94C61E2E
:1034600081E08093550B0F900F900F900F90DF919C
:10347000CF911F910F91089521E00C94B119809183
:10348000480A8F77833029F128F4813041F0823067
:1034900061F519C0843019F1863039F502C00C94F9
:1034A0001C228091490A90914A0A4091420A509107
:1034B000430A20914D0B30914E0B42175307A9F44C
:1034C00099270C9476198091460A9091470A0C949A
:1034D000C0218091460A9091470A0C94C4218091A2
:1034E000490A90914A0A0C945B190895CF93DF938F
:1034F000CDB7DEB760970FB6F894DEBF0FBECDBF75
:1035000081E698E89A838983E8E4FBE080818B83F5
:103510008F5F80838091490B90914A0B9D838C83B0
:1035200080914B0B90914C0B998788879D878C8756
:103530008091A7069091A8069B878A878091A9060B
:103540008E870E9459148F870E946214888B809105
:103550004D0B90914E0B9F838E83BE016F5F7F4F0B
:1035600080E10E94601660960FB6F894DEBF0FBE31
:10357000CDBFDF91CF91089520914B0B30914C0B33
:103580006217730789F09091460B992369F0709345
:10359000A8066093A7068093A9061092AA060E9427
:1035A000761A81E08093550B08952091570B9091E6
:1035B000580B81E0291301C080E008951F93CF9339
:1035C000DF93EC011091570B212F30E04091580B05
:1035D000C90101966EE170E00E940D2D50E0841744
:1035E0009507A1F0F901EE0FFF1FE20FF31FE95A53
:1035F000F44F88819981AA8182839383A483812F48
:103600008F5F8E3108F080E08093570BDF91CF9170
:103610001F910895CF93DF931F92CDB7DEB78091AE
:10362000580B8983898190E029812F5F2983298123
:103630002E3108F0198229812093580B9C01220F0A
:10364000331F280F391F275A344FC9010F90DF91BC
:10365000CF910895CF93C1E097C00E940A1BDC016F
:103660002C91243109F178F4213109F48BC020F434
:10367000203109F089C026C0223109F480C02331ED
:1036800009F082C079C0273109F442C030F42531F5
:1036900099F1263109F078C00EC0283109F43FC0F5
:1036A000293109F071C061C08091460B81116CC055
:1036B0000E94DC1D69C0DC011196ED91FC9112970E
:1036C000099562C08091460B882309F45DC08BE3A5
:1036D0009AE00E9477192091440A3091450A80911E
:1036E0004B0B90914C0B2817390719F40E943F1A85
:1036F0004BC00E944F1D48C08091460B882309F49F
:1037000043C06CE779E181E090E00E94C61E3CC0B6
:103710008091460B8823C1F10E94A21C35C0809184
:103720003C0A8C38D9F480913B0A8336B9F4C093B3
:10373000460B8091480A9091490A90934E0B8093D2
:103740004D0B80914B0A90914C0A90934C0B8093B7
:103750004B0B0E94A3160E94A61816C08091460B20
:10376000882391F00E94151C0FC08091460B88237E
:1037700059F00E94CA1B08C00E94DA2105C00E94AD
:10378000DB2102C00E94CC210E94D51A811165CF95
:10379000CF91089580913A0A92E8EAE3FAE0ACEB1F
:1037A000BAE001900D929A95E1F79091460B99231A
:1037B000D9F18C508695E82FF0E0EE0FFF1FEB5308
:1037C000F54F208131813093500B20934F0B823085
:1037D00058F1815023E638E83093BE0A2093BD0AA1
:1037E0009091480B9093BF0A9F5F9093480B90E095
:1037F000FC01EE0FFF1FE953F54F2081318130931B
:10380000C30A2093C20A20914B0B30914C0B30938A
:10381000C50A2093C40A9BEB9093C60A8B5F6DEB9D
:103820007AE0880F0C94601608958091460B8823E7
:1038300009F487C02091450A3091460A80914B0BCC
:1038400090914C0B2817390709F04AC083E69CE891
:103850009093BD0A8093BC0A8091480B8093BE0A66
:103860008F5F8093480B8091490B90914A0B909306
:10387000C00A8093BF0A8091470A8093C10A809151
:10388000480A8093C20A8091490A8093C30A8091B2
:103890004A0A8093C40A80914B0A8093C50A80919A
:1038A0004C0A8093C60A80914D0A8093C70A809182
:1038B0004E0A8093C80A3093CA0A2093C90A82E04C
:1038C0008093CB0A80914F0A9091500A9093CD0A31
:1038D0008093CC0A0E941C196CEB7AE082E12FC025
:1038E00022E8EAE3FAE0ACEBBAE001900D922A9507
:1038F000E1F72091480B2093BF0A2F5F2093480BDC
:1039000020914F0B3091500B3093C30A2093C20A81
:103910009093C50A8093C40A8091C70A9091C80AFF
:103920000E940A19882341F08091C70A9091C80A21
:103930009093C30A8093C20A6DEB7AE086E10C94FF
:1039400060160895CF93DF93CDB7DEB765970FB6B6
:10395000F894DEBF0FBECDBF20913C0A4091480BCA
:103960008091490B90914A0B283CE9F523E638E811
:103970003A8329834B834F5F4093480B9D838C830D
:1039800080914D0B90914E0B9F838E8380914B0BBA
:1039900090914C0B9987888781E08A8780914B0AA8
:1039A00090914C0A9C878B878091420A8D878091E9
:1039B000430A8E878091440A8F878091450A888BBD
:1039C0008091460A898B8091470A8A8B8091480AA8
:1039D0008B8B8091490A8C8B80914D0A8D8BBE0117
:1039E0006F5F7F4F50C023E638E83093BD0A2093C5
:1039F000BC0A4093BE0A4F5F4093480B9093C00AA5
:103A00008093BF0A80914D0B90914E0B9093C20A08
:103A10008093C10A80914B0B90914C0B9093C40AF8
:103A20008093C30A81E08093C50A8091450A9091F2
:103A3000460A9093C70A8093C60A8091470A8093EA
:103A4000C80A8091480A8093C90A8091490A8093E4
:103A5000CA0A80914A0A8093CB0A80914B0A8093CC
:103A6000CC0A80914C0A8093CD0A80914D0A8093B4
:103A7000CE0A80914E0A8093CF0A80914F0A80939C
:103A8000D00A6CEB7AE085E10E94601665960FB66D
:103A9000F894DEBF0FBECDBFDF91CF91089582E8CD
:103AA000EAE3FAE0ACEBBAE001900D928A95E1F717
:103AB000A09A66E971E28AE090E00E94C61E8091B9
:103AC000C60A9091C70A0E940A198823A1F0809122
:103AD000480B8093BF0A8F5F8093480B8091C60A82
:103AE0009091C70A9093C30A8093C20A80914B0BAE
:103AF00090914C0B1EC020914D0B30914E0B40917C
:103B0000C40A5091C50A6091480B80914B0B90916B
:103B10004C0B6093BF0A6F5F6093480B42175307CB
:103B200021F420914F0B3091500B3093C30A209316
:103B3000C20A9093C50A8093C40A8091C20A9091E8
:103B4000C30A019639F08091BC0A6DEB7AE082508D
:103B50000C946016089580E008952091BA0A80912F
:103B60003C0A82958695869583708093B30B8091ED
:103B70003E0A90913F0A9093B50B8093B40B8091CD
:103B8000400A9091410A9093B70B8093B60B8091B5
:103B9000450A8093BC0B8091520B81508093B80BE7
:103BA0001092B90B2093BD0B0E9459148093BE0B49
:103BB00008958091AB060895CF934091BA0A209161
:103BC000420A3091430A8091AB06882361F18091CB
:103BD000440A863041F58091BA0B9091BB0B30932B
:103BE000BB0B2093BA0B2091BB0B27FF05C0909312
:103BF000BB0B8093BA0B17C08091BD0B841718F4D0
:103C0000CF910C94AD1D84130EC09091BC0B80918C
:103C1000450A8917A8F3981306C0C091BE0B0E94ED
:103C20005914C81768F3CF910895CF93C1E08091DC
:103C3000B80B8F3F11F4C0E01BC08091B40B909182
:103C4000B50B90934A0B8093490B2091B60B3091A2
:103C5000B70B30934E0B20934D0B0E949E16809114
:103C6000B80B0E94A2189091BC0B9F5F9093510BD0
:103C70008C2FCF910C9462222091520B2F3FB1F4E4
:103C800081E08093AB0686E1E3EBFBE0DF011D9270
:103C90008A95E9F72093B80B8BE08093520B8091C3
:103CA0001B028038A1F08093520B11C02B3140F4DD
:103CB00030E080911B0290E001962817390739F413
:103CC0001092AB068FEF8093520B0C94151E8091CF
:103CD000520B0E94A21883E098E09093BE0A809352
:103CE000BD0A8091470B8093BF0A8F5F8093470B7B
:103CF0008FEF9FEF9093C10A8093C00A9093C30AFD
:103D00008093C20A87E08093C40A6DEB7AE088E072
:103D10000E9460168091520B8F5F8093520B6CE370
:103D20007EE184E190E00C94C61E08958091120714
:103D30008F5F09F481E0E0EBF6E091E02081281349
:103D400001C090E0359627E0E431F207B9F7E5E1EC
:103D5000F7E02081281301C090E0359627E0E9378D
:103D6000F207B9F7992321F3809312070895809100
:103D7000770781110AC0109295001092940082E09A
:103D80008093710081E08093770708950F931F93CC
:103D9000CF93DF931F92CDB7DEB7009719F4FB01E5
:103DA000099512C02FB72983F894AEEAB6E020E057
:103DB00030E04D915C911197452B41F02F5F3F4FC3
:103DC000159624313105A9F780E023C045E0429FD4
:103DD000D001439FB00D1124A255B94F009711F4A3
:103DE00081E090E08D939C9385E0829F8001839F8A
:103DF000100D11240255194FF801748363830E943A
:103E0000961EF80182830E94B71E89818FBFF80138
:103E100082810F90DF91CF911F910F9108950F93A1
:103E20001F93CF93DF931F92CDB7DEB7009719F49E
:103E3000FB0109950FC0A3E1B7E020E030E04D9110
:103E40005C911197452B41F02F5F3F4F1596243120
:103E50003105A9F780E01AC045E0429F8001439FE9
:103E6000100D11240D5E184FF80191838083748327
:103E700063830E94961EF80182838FB78983F8942A
:103E80000E94B71E89818FBFF80182810F90DF9158
:103E9000CF911F910F910895E0EBF6E020E030E024
:103EA0009081981309C085E0829FF001839FF00DF7
:103EB0001124E255F94F15C02F5F3F4F359624313D
:103EC000310571F7E5E1F7E020E030E090819813EB
:103ED0000CC085E0829FF001839FF00D1124ED5E00
:103EE000F84F11821082128208952F5F3F4F35964E
:103EF0002431310559F70895E1E9F0E080818A60C5
:103F0000808380ED97E09093990080939800809152
:103F10009400909195000C94E02E1F920F920FB692
:103F20000F9211240BB60F92FF920F931F932F93B2
:103F30003F934F935F936F937F938F939F93AF9331
:103F4000BF93EF93FF93CF93DF9300D01F92CDB732
:103F5000DEB78091AC069091AD0601969093AD06C8
:103F60008093AC0680911C0290911D020197909362
:103F70001D0280931C02892B29F00EEA16E096E1BF
:103F8000F92E24C084EF91E090931D0280931C02CF
:103F900003E117E086E1F82EF80180819181009716
:103FA00071F0019791838083892B49F4F982838191
:103FB00094819B838A83CE0101960E94DE1A0B5F57
:103FC0001F4FF7E007371F0739F7D7CFF801808178
:103FD0009181009771F0019791838083892B49F437
:103FE000F982838194819B838A83CE0101960E940A
:103FF000DE1A0B5F1F4FF7E002311F0739F70F90F2
:104000000F900F90DF91CF91FF91EF91BF91AF9102
:104010009F918F917F916F915F914F913F912F91E0
:104020001F910F91FF900F900BBE0F900FBE0F903E
:104030001F9018951F920F920FB60F9211248F9315
:1040400082E0809379078F910F900FBE0F901F90A1
:1040500018951F920F920FB60F9211248F9381E043
:10406000809378078F910F900FBE0F901F90189537
:1040700081E080930E0A089582E085BB80936E00F4
:1040800016BC1092CD0B089515BC08958EE487BD23
:1040900082E084BD85E085BD08951F920F920FB622
:1040A0000F9211248F938091CD0B8F5F8093CD0B56
:1040B0008F910F900FBE0F901F90189599E19093DC
:1040C000CA091092CE0984E68093CF091092F509AF
:1040D0009093F6091092F7098093F8091092F90964
:1040E0008093FA0991E09093FB091092FC0982E019
:1040F0008093FD0983E08093FE092FE02093FF0960
:104100002CE32093000A1092010A9093020A8093F4
:10411000030A89E08093040A0895FC019181DF017C
:10412000A90FB11D12968C912081921729F09F5FE3
:1041300097FD90E0918308958FEF089510927B078B
:1041400010927A07089510927B0710927A071092C6
:10415000FD071092FC0728E92093C90026E0209370
:10416000CA001092CD0027E62093CC0090937F08E0
:1041700080937E0808959091800891112CC07894C6
:104180009091FC079F5F97FF05C003C0332321F088
:104190000FC090E0309181082091FD079217B1F394
:1041A000E091FC07F0E0E450F84F82839093FC0725
:1041B0008091C90085FD0FC08091C80085FFFCCFAC
:1041C0008CEF97E00E948D208093CE008091C900F3
:1041D00080628093C900089580917A0790E02091D1
:1041E0007B07821B910997FF02C080589F4F08955B
:1041F00080917A0790E020917B07821B910997FFBD
:1042000002C080589F4F882399F38AE797E00C9467
:104210008D201F920F920FB60F9211240BB60F92A2
:104220002F933F934F935F936F937F938F939F93BE
:10423000AF93BF93EF93FF938091CE0091E0909363
:10424000810890917A079F5F97FD90E020917B070E
:10425000921741F0E0917A07F0E0E658F84F828338
:1042600090937A0710928108E0917E08F0917F0880
:10427000309709F00995FF91EF91BF91AF919F9110
:104280008F917F916F915F914F913F912F910F90FF
:104290000BBE0F900FBE0F901F9018951F920F929C
:1042A0000FB60F9211240BB60F922F933F934F939B
:1042B0005F936F937F938F939F93AF93BF93EF938E
:1042C000FF939091FC078091FD07981739F08CEFD0
:1042D00097E00E948D208093CE0005C08091C90098
:1042E0008F7D8093C900FF91EF91BF91AF919F9116
:1042F0008F917F916F915F914F913F912F910F908F
:104300000BBE0F900FBE0F901F901895982F8053E3
:104310008A3058F08151863008F404C0892F8156C4
:10432000863010F4865F089580E00895A09808957F
:10433000A198089581E080938208089581E0809398
:104340008408E3E9F8E080818F7B8083089581E031
:1043500080938308089581E080932002089581E08E
:104360008093960808956091B80B8091B60B909158
:10437000B70B0C94B0188FEF0E9427180C943C1EBA
:10438000BC0183E00C94BC1A0E945914882319F0D4
:1043900081E08093460B08952091530B3091540B8C
:1043A00080914D0B90914E0B2817390711F4109204
:1043B000850808950895CF930E94D91D81113AC0B0
:1043C00020914D0B30914E0BC1E08091530B909199
:1043D000540B8217930711F0C0E005C040E050E095
:1043E00060E00E943C1A809185088F5F8093850869
:1043F000833000F1CC2379F01092460B88E00E94C4
:10440000B3162EE1829FC00111246BEB71E28C5335
:10441000964F0E94C61E8091530B9091540B0E94A0
:104420000A19882339F08091530B9091540BCF9146
:104430000C945B19CF91089580913A0A1092A309C8
:10444000882319F18091480A8F778130F1F4209107
:10445000490A2093860880E8E0E4FCE0DF011D9231
:104460008A95E9F78AE49AE0DF01FC0102C0319104
:104470003D933E2F381B3217D0F380E49CE00E941E
:10448000250380939508109292080895A19A68E9EF
:1044900071E28AE090E00C94C61E811106C0A19AD8
:1044A00068E971E28AE090E00BC088E00E94B316F0
:1044B0002EE1829FC00111246BEB71E28C53964F69
:1044C0000C94C61E882329F063EB71E28EE190E024
:1044D0000AC088E00E94B3162AE0829FC00111241E
:1044E0006BEB71E2C2960C94C61E8F929F92AF92B4
:1044F000BF92CF92DF92EF92FF920F931F93CF93D1
:10450000DF93CDB7DEB761970FB6F894DEBF0FBE6D
:10451000CDBF87E0898BAE01475F5F4F68E080E0E9
:1045200090E00E94FD1789849A84AB84BC84CD847A
:10453000DE84EF84F8882FEF82169206A206B20678
:1045400009F06CC09401A501B601C70100E20E9408
:10455000432DC901DA018F3F4FEF9407A407B40739
:1045600009F04FC08E010F5F1F4F88E0F8011192D4
:104570008A95E9F780E00E94D31486E00E942D1509
:10458000780110E00FEF143018F4F701008318C021
:104590000E94AB14863011F0863191F434E0209102
:1045A0004601F7018081F4E08F9FC001112420763D
:1045B000229526952770282BF7012083315079F713
:1045C0001F5FFFEFEF1AFF0A1830E9F6AE014F5FE9
:1045D0005F4F68E080E090E00E941218AE014F5EED
:1045E0005F4F62E082E290E00E94121860E08CE689
:1045F00090E00E945D3260E087E790E00E945D32CB
:104600000DC0892B8A2B8B2B49F0AE014F5E5F4F7B
:1046100062E082E290E00E941218000061960FB6FC
:10462000F894DEBF0FBECDBFDF91CF911F910F91E8
:10463000FF90EF90DF90CF90BF90AF909F908F90C2
:1046400008950F931F93CF93DF931F92CDB7DEB7DB
:1046500083B3876083BB84B3887F84BB84B3876064
:1046600084BB6B9A739884B3887F84BBA09A83E1E0
:104670008093950866E971E289E190E00E94C61E88
:1046800081E0809396080E9475220E94690D68E37C
:1046900070E280E197E20E94C61E082F10E01CC065
:1046A00090919608913051F40E942C0B6FEA71E2C0
:1046B0008CE291E00E94C61E182F0EC0923039F491
:1046C000802F0E944C1F812F0E944C1F09C00E9406
:1046D000D51A81110E942A1B80910E0A882301F3AA
:1046E0006FEA71E28CE291E00E94C61EAE014F5F5C
:1046F0005F4F61E08EE190E00E94FD17898190910B
:10470000100A8F3F79F4992369F040E15AE061E0A3
:104710008EE190E00E94121841E15AE061E08FE1E1
:1047200090E01AC09817D1F040E15AE061E08EE1C4
:1047300090E00E94121841E15AE061E08FE190E0C0
:104740000E9412188091930882608093930843E935
:1047500058E061E082E290E00E9412180E94BB21C2
:1047600080919608823069F40E9436068091930801
:1047700081FD07C00E94460B10920F0A82E00E9442
:10478000FF0A00000F90DF91CF911F910F910895C4
:104790000F931F93CF93DF938A01EB0109900020C1
:1047A000E9F72197C61BD70B0E944D310097D9F02E
:1047B0009C012C0F311DE901B801C9010E944D3146
:1047C000009789F08C010C1B1D0B24ED3BE0A80128
:1047D000BE01C9010E940F31F801EC52F44F108262
:1047E00024ED3BE002C020E030E0C901DF91CF9131
:1047F0001F910F9108950E94240B6FEA71E28CE2E1
:1048000091E00C94C61E7F928F929F92AF92BF92BE
:10481000CF92DF92EF92FF920F931F93CF93DF938C
:104820005C01762E942E852EEC0109900020E9F78C
:104830002197C81BD90BE42FF52FDF010D90002025
:10484000E9F77D0181E0E81AF108EE1AFF0AC62EA9
:10485000D12CCC15DD0520F5C60101960E94522D04
:104860008C0109C0A701692D782DC8010E94333140
:104870007A940E0D1F1D872D90E0C817D90790F36D
:10488000AE01B501C8010E943331C00FD11F18829B
:10489000CC19DD09A601BE01C5010E94333102C059
:1048A000C0E0D0E0CE01DF91CF911F910F91FF903A
:1048B000EF90DF90CF90BF90AF909F908F907F90C0
:1048C0000895BF92CF92DF92EF92FF920F931F93C2
:1048D000CF93DF93CDB7DEB7A8970FB6F894DEBFBE
:1048E0000FBECDBF1092A30980919608813051F57B
:1048F0000E94FB2380919608823021F58FE19EE48F
:104900000197F1F700C000008091930881FF02C079
:1049100082E016C09091460B911102C083FF04C043
:104920008091930884FF02C083E00AC086FF0AC01A
:1049300080919508873019F087E08093950884E08E
:104940000E940E069091460B911104C0809193082D
:1049500083FF0FC3809195088F3009F432C2C0F4F1
:10496000883009F41CC250F4823009F465C08730E5
:1049700009F44EC1813009F0FCC257C08C3009F4F3
:10498000A3C08D3009F4E8C28A3009F0F2C269C2CE
:104990008A3109F4E8C248F48331B1F0843109F472
:1049A00070C2803109F0E5C2DCC2803209F4DFC296
:1049B00020F48F3109F0DDC22BC1873209F4D1C256
:1049C000883209F0D6C21CC18091930883FF02C0CF
:1049D00081FF29C081FB992790F981FD02C080FFEA
:1049E0000BC08091100A882329F081E08093200277
:1049F0008AE0BAC29111BDC28091930882FF13C0B0
:104A0000109282080E94A80280E8E0E4FCE0DF0146
:104A10001D928A95E9F76AE971E28CE390E00E94C1
:104A20000F1F84E1A1C281E09FC20E94200B882356
:104A300009F497C280E198C280911E0290911F02F2
:104A40008035910530F4019690931F0280931E02E9
:104A500005C0909A10921F0210921E02BE016F5F55
:104A60007F4F82E50E94BF10892B09F082C286E049
:104A7000E1E3F2E0DE015F9601900D928A95E1F7A5
:104A8000AE01495D5F4FBE016F5F7F4F80E00E94C6
:104A90007B12892B09F06DC28FA1883069F4809355
:104AA000880820E0AE014F5F5F4FBE01615E7F4F1F
:104AB00080E60E94141302C0109288088CE0809354
:104AC00095080E94962155C28E010F5F1F4F8AE004
:104AD000F80111928A95E9F7B801809188080E943F
:104AE000BD13892B09F08AC043E355E069E0C80192
:104AF0000E9403244AE050E060E070E0C8010E9498
:104B0000EB2E6093890870938A0880938B089093AA
:104B10008C088091460B8823A1F11F930F9387E3A4
:104B200095E09F938F9301EE18E01F930F930E94DF
:104B3000C031F80101900020E9F7E25EF840E0930F
:104B4000E0086E2F6F5F6093A30940EE58E080E0AD
:104B500090E00E943C1A80E8E0E4FCE0DF011D9256
:104B60008A95E9F787E0809395088091930880649F
:104B7000809393080F900F900F900F900F900F90CD
:104B800038C08091930883FF31C084FD2FC020E09E
:104B900030E048EC52E46091CE0B7091CF0B8091E5
:104BA000D00B9091D10B0E94962C0E94DC2B70931D
:104BB000900860938F0881E00E940E0B8823C9F053
:104BC00088E080939508109283080E94220B67EA80
:104BD00071E2882331F08091CA0990E00E940F1F92
:104BE00008C084EF91E00E94C61E03C082E080935B
:104BF0009508109284086EE971E2A9C18DE0B4C1F4
:104C00008091DF0880FFB5C18E7F8093DF08ABC144
:104C10008091400C882309F4ADC0809193088F7B6C
:104C2000809393088DE08093950863E475E080E4B9
:104C30009CE00E944D31009709F499C04AE050E091
:104C400060E070E004960E94EB2E609389087093F8
:104C50008A0880938B0890938C0868E475E080E460
:104C60009CE00E944D318C017C01B9E0EB0EF11CFF
:104C70006EE270E0C7010E941831282F2E19C7017B
:104C800028A70E94F52F28A5223038F49F938F93F0
:104C90007F936F9382E595E008C0223091F49F9353
:104CA0008F937F936F9383E595E09F938F93FF920C
:104CB000EF920E94C0310FB6F894DEBF0FBECDBF99
:104CC00005C068E575E0C7010E942C31D8011A962D
:104CD0007C911A971C966C911C9719968C9190E078
:104CE000C09748EE53E0849F9001859F300D949FBC
:104CF000300D1124B4E67B9F200D311D1124EAE014
:104D00006E9F200D311D1124205A3441D8011D966B
:104D10008C91280F311D2053310930939008209336
:104D20008F0885E00E940E06BFEFE1EEF4E0B1507F
:104D3000E040F040E1F700C0000081E00E940E0B6F
:104D4000882309F416C188E080939508109283089F
:104D50000E94220B67EA71E2882321F08091CA0940
:104D600090E0F7C084EF91E00E94C61E02C10E944D
:104D70009E21FFC080918408813011F09111F9C00B
:104D800082E00E94FF0A882309F4F3C0809193080F
:104D90008F7B8093930881E00E940E06E4C080918F
:104DA000150A8654823010F48FE0DEC080918308AB
:104DB000813009F0DEC00E94FF0A882309F4D9C0BF
:104DC000D0C00E94570D882309F447C0C0908908BD
:104DD000D0908A08E0908B08F0908C08CA86DB8619
:104DE000EC86FD8620E030E048EC52E46091CE0B8A
:104DF0007091CF0B8091D00B9091D10B0E94962C8B
:104E00000E94DC2B7987688780919D0890919E088D
:104E10009A83898380919B0890919C089E838D83BF
:104E20008091A0098B838091A1098C838091460B8E
:104E300081110BC08091930883FF07C081E08D8BA7
:104E4000C701B6010E94D90D05C01D8ACE01019689
:104E50000E94840580E18093950881E00E94FF0A0A
:104E600088C080912002882309F483C00E94FB231C
:104E70000E94CF02109220026BEA71E288E790E074
:104E800068C04AE453E06EE575E080E49CE00E946F
:104E9000C8238C01009709F450C0DC010D9000205C
:104EA000E9F71197CA2EC81A47E858E061E087E58C
:104EB00090E00E94FD17AE01415E5F4F6091870850
:104EC00088E590E00E94FD17D12C18C07801E80E0B
:104ED000F11CD7018C910E948621B82EF7018181A7
:104EE0000E948621E1E0F0E0EC0FFD1FED0DF11DC9
:104EF00020E1B29E800D11248083D3948D2D880FE4
:104F00008C1520F34091870850E0BE016F5F7F4F02
:104F1000CE014F960E940231009749F48091930888
:104F20008B7F8093930883E18093950806C08AE085
:104F30008093950881E080932002809182088823E5
:104F4000C1F0109282080E94A8026AE971E28CE323
:104F500090E00E940F1F0DC010920F0A82E00E9485
:104F6000FF0A82E001C087E28093950802C00E9498
:104F70002123A8960FB6F894DEBF0FBECDBFDF91F8
:104F8000CF911F910F91FF90EF90DF90CF90BF9046
:104F900008952F923F924F925F926F927F928F92DD
:104FA0009F92AF92BF92CF92DF92EF92FF920F93B8
:104FB0001F93CF93DF93CDB7DEB762970FB6F89408
:104FC000DEBF0FBECDBF7C011B016A01FC01178251
:104FD0001682838181FD03C06BC3650105C08824EF
:104FE0008394912C8C0E9D1EF7019381F10193FD0A
:104FF000859193FF81911F01882309F455C3853260
:1050000039F493FD859193FF81911F01853231F42D
:10501000B70190E00E9494315601DFCF712C612CD2
:1050200020E02032A8F48B3261F028F4803251F075
:10503000833271F40BC08D3239F0803349F4216032
:1050400028C02260246025C0286023C0206121C0C0
:1050500027FD27C0382F30533A3078F426FF06C09A
:10506000FAE07F9E300D1124732E13C04AE0649E37
:10507000300D1124632E20620CC08E3221F426FDE7
:1050800013C3206406C08C3611F4206802C0883631
:1050900041F4F10193FD859193FF81911F018111ED
:1050A000C0CF982F9554933018F42061805E06C0CD
:1050B000982F9556933008F0A4C12F7E26FD02C08C
:1050C00016E0712EBFE35B2E5222853619F4F0E410
:1050D0005F2A07C0863619F440E8542A02C07110CE
:1050E0007A9457FE07C05BE3571548F0472C43946A
:1050F00027E00DC087E0871530F0272D07C027E097
:10510000ACE34A2E04C027E0F7E07F2E412C560185
:1051100094E0A90EB11CF6016081718182819381B6
:10512000042DA4010E9417308C0149814C8740FF57
:1051300002C043FF07C051FC08C052FE09C0E0E2B4
:10514000DE2E07C07DE2D72E04C06BE2D62E01C052
:10515000D12C8C858C70A1F1DD2011F084E001C090
:1051600083E0861510F0612C0BC0681A53FC08C050
:10517000B70180E290E00E9494316A94C9F7F3CFBE
:10518000DD2029F0B7018D2D90E00E9494315C85DF
:1051900053FD03C004E211E00CC000E211E009C0BD
:1051A00051108052B70190E00E9494310F5F1F4F61
:1051B00002C080E15822F80184918111F1CF71C2BF
:1051C00057FE0EC0400E4C8544FF04C08A818133D7
:1051D00009F44A9414144CF558E0541548F12CC0C5
:1051E00056FC2AC0872D90E08017910744F00C3FB1
:1051F0008FEF180724F090E8592A01C07A9477209D
:1052000049F0E2E0F0E0EC0FFD1FE70DF11D8081B9
:105210008033A1F357FE10C0472C4394872D90E0B4
:105220000817190744F4701A07C04424439404C0B3
:1052300058E0452E01C0712C57FE07C0101611060C
:105240003CF498012F5F3F4F05C025E030E002C0DD
:1052500021E030E0DD2011F02F5F3F4F772031F06B
:10526000472D50E04F5F5F4F240F351F462D50E014
:105270002417350714F4621A01C0612C852D89703A
:1052800049F406C0B70180E290E00E9494316A942C
:105290006110F8CFDD2029F0B7018D2D90E00E943C
:1052A000943153FC09C006C0B70180E390E00E942E
:1052B00094316A946110F8CF57FE56C0680117FF09
:1052C00002C0C12CD12C20E030E0A80144195109C2
:1052D0005E874D8728014C185D08480C591C872DA6
:1052E00090E044275527481B590B588B4F875FEF99
:1052F000C516D50649F4B7018EE290E02A8B398BAA
:105300000E94943139892A890C151D0554F04D8568
:105310005E854C155D052CF4F201E20FF31F8181CF
:1053200001C080E351E0C51AD1082F5F3F4F4F8580
:105330005889C416D5064CF0B70190E02A8B398BFA
:105340000E9494312A893989D2CFC016D10649F4F6
:105350009A81963328F4953321F45C8554FD01C07D
:1053600081E3B70190E04AC08A81813319F04C850E
:105370004F7E4C87B70190E00E949431711005C0B8
:1053800054FE16C085E490E015C0B7018EE290E0AF
:105390000E94943142E0D42EF401ED0DF11DD3941E
:1053A000B701808190E00E9494317A94A9F7E8CF08
:1053B00085E690E0B7010E94943117FD06C0011503
:1053C000110541F45C8554FF05C011950195110943
:1053D0008DE201C08BE2B70190E00E94943180E33E
:1053E00003C08F5F0A5011090A301105D4F7B701C5
:1053F00090E00E949431B701C801C0960E94943198
:1054000050C1833631F0833781F0833509F05EC0B7
:1054100024C0560182E0A80EB11CF6018081898368
:10542000CC24C394D12C840114C05601F2E0AF0EF9
:10543000B11CF6010081118126FF03C0672D70E0C9
:1054400002C06FEF7FEFC8012A8B0E9442316C01CE
:105450002A899FE7592E522217C05601F2E0AF0E5B
:10546000B11CF6010081118126FF03C0672D70E099
:1054700002C06FEF7FEFC8012A8B0E94F7306C01EA
:105480002A8980E8582E522A53FC1CC006C0B70156
:1054900080E290E00E9494316A94862D90E0C816D4
:1054A000D906A8F30FC0F80157FC859157FE8191EA
:1054B0008F01B70190E00E94943161106A94F1E08D
:1054C000CF1AD108C114D10471F7EBC0843611F0A2
:1054D000893651F5560127FF09C044E0A40EB11CDE
:1054E000F60160817181828193810AC0F2E0AF0E82
:1054F000B11CF60160817181882777FD8095982F16
:10550000122F1F7697FF08C0909580957095619532
:105510007F4F8F4F9F4F10682AE030E0A4010E9418
:10552000EF31D82ED81840C0122F853721F41F7EB6
:105530002AE030E01FC0197F8F36A1F020F48835B3
:1055400009F0B2C00BC0803721F0883709F0ACC039
:1055500001C0106114FF09C0146007C024FF08C017
:10556000166006C028E030E005C020E130E002C04F
:1055700020E132E0560117FF09C0F4E0AF0EB11C84
:10558000F601608171818281938108C0F2E0AF0EE3
:10559000B11CF6016081718180E090E0A4010E945D
:1055A000EF31D82ED8181F7716FF0BC0212F2E7F72
:1055B000D71450F414FF0AC012FD08C0212F2E7E0C
:1055C00005C00D2D212F03C00D2D01C0072D24FF77
:1055D0000CC0FE01ED0DF11D8081803311F4297E98
:1055E00008C022FF05C00E5F04C0822F867809F034
:1055F0000F5F23FD14C020FF0FC07D2C061560F443
:10560000760C701A062D08C0B70180E290E02A8B54
:105610000E9494310F5F2A890615B0F304C0061565
:1056200010F4601A01C0612C24FF12C0B70180E39E
:1056300090E02A8B0E9494312A8922FF1EC021FF0C
:1056400003C088E590E002C088E790E0B7010CC095
:10565000822F867891F021FD02C080E201C08BE2AA
:1056600027FD8DE2B70190E00E94943106C0B7019A
:1056700080E390E00E9494317A94D714C0F3DA94D6
:10568000F401ED0DF11DB701808190E00E9494318D
:10569000D110F5CF06C0B70180E290E00E949431AE
:1056A0006A946110F8CF99CCF7012681378102C046
:1056B0002FEF3FEFC90162960FB6F894DEBF0FBE21
:1056C000CDBFDF91CF911F910F91FF90EF90DF90B1
:1056D000CF90BF90AF909F908F907F906F905F9092
:1056E0004F903F902F9008950CD0E6C0DED040F050
:1056F000D5D030F021F45F3F19F0C7C0511110C16F
:10570000CAC0EBD098F39923C9F35523B1F3951B85
:10571000550BBB27AA2762177307840738F09F5FD2
:105720005F4F220F331F441FAA1FA9F333D00E2E41
:105730003AF0E0E830D091505040E695001CCAF7AE
:1057400029D0FE2F27D0660F771F881FBB1F261773
:1057500037074807AB07B0E809F0BB0B802DBF0146
:10576000FF2793585F4F2AF09E3F510568F08DC088
:10577000D7C05F3FECF3983EDCF38695779567954D
:10578000B795F7959F5FC9F7880F911D96958795F7
:1057900097F90895E1E0660F771F881FBB1F621716
:1057A00073078407BA0720F0621B730B840BBA0BD4
:1057B000EE1F88F7E095089598D088F09F5790F0F5
:1057C000B92F9927B751A0F0D1F0660F771F881F26
:1057D000991F1AF0BA95C9F712C0B13081F09FD065
:1057E000B1E008959CC0672F782F8827B85F39F003
:1057F000B93FCCF3869577956795B395D9F73EF485
:1058000090958095709561957F4F8F4F9F4F08952C
:10581000E89409C097FB3EF490958095709561954A
:105820007F4F8F4F9F4F9923A9F0F92F96E9BB2700
:105830009395F695879577956795B795F111F8CF7C
:10584000FAF4BB0F11F460FF1BC06F5F7F4F8F4FE7
:105850009F4F16C0882311F096E911C0772321F0DD
:105860009EE8872F762F05C0662371F096E8862F75
:1058700070E060E02AF09A95660F771F881FDAF7CC
:10588000880F9695879597F9089597F99F6780E80F
:1058900070E060E008959FEF80EC089500240A9482
:1058A0001616170618060906089500240A941216FB
:1058B0001306140605060895092E0394000C11F42E
:1058C000882352F0BB0F40F4BF2B11F460FF04C0DB
:1058D0006F5F7F4F8F4F9F4F089557FD9058440F34
:1058E000551F59F05F3F71F04795880F97FB991F3F
:1058F00061F09F3F79F087950895121613061406FC
:10590000551FF2CF4695F1DF08C016161706180688
:10591000991FF1CF86957105610508940895E89463
:10592000BB2766277727CB0197F908950BD0C4CF03
:10593000B5DF28F0BADF18F0952309F0A6CFABCF7A
:105940001124EECFCADFA0F3959FD1F3950F50E05D
:10595000551F629FF001729FBB27F00DB11D639F21
:10596000AA27F00DB11DAA1F649F6627B00DA11DC7
:10597000661F829F2227B00DA11D621F739FB00D6D
:10598000A11D621F839FA00D611D221F749F3327DD
:10599000A00D611D231F849F600D211D822F762F76
:1059A0006A2F11249F5750408AF0E1F088234AF073
:1059B000EE0FFF1FBB1F661F771F881F91505040BF
:1059C000A9F79E3F510570F060CFAACF5F3FECF37F
:1059D000983EDCF3869577956795B795F795E795AB
:1059E0009F5FC1F7FE2B880F911D9695879597F9BC
:1059F0000895AA1BBB1B51E107C0AA1FBB1FA61716
:105A0000B70710F0A61BB70B881F991F5A95A9F767
:105A100080959095BC01CD01089597FB072E16F453
:105A2000009407D077FD09D00E94F92C07FC05D01F
:105A30003EF4909581959F4F0895709561957F4FA5
:105A40000895A1E21A2EAA1BBB1BFD010DC0AA1FBF
:105A5000BB1FEE1FFF1FA217B307E407F50720F0D7
:105A6000A21BB30BE40BF50B661F771F881F991F52
:105A70001A9469F760957095809590959B01AC019B
:105A8000BD01CF0108950F930F7351F0969587953F
:105A90007795679557954795379527950A95B1F767
:105AA0000F9108950F931F93CF93DF938230910549
:105AB00010F482E090E0E091ED0CF091EE0C20E02B
:105AC00030E0C0E0D0E023C0408151814817590741
:105AD000A8F04817590761F482819381209719F043
