:100000000C9461010C9480010C9480010C9480018B
:100010000C9480010C9480010C9480010C9480015C
:100020000C9480010C9480010C9480010C9480014C
:100030000C94C91F0C9480010C9480010C948001D5
:100040000C9480010C9480010C9480010C9480012C
:100050000C9480010C94ED1F0C9480010C94800191
:100060000C9480010C9480010C9480010C9480010C
:100070000C9480010C9480010C9480010C948001FC
:100080000C942E1F0C9480010C9480010C94BA1FC8
:100090000C9497200C94DC200C9480010C9480012B
:1000A0000C9480010C9480010C9480010C948001CC
:1000B0000C9480010C9480010C9480010C948001BC
:1000C0000C9480010C9480010C9480010C948001AC
:1000D0000C9480010C9480010C9480010C9480019C
:1000E0000C9480010C9480010C9480010C94B41643
:1000F0000C94DC160C9431170C9480010C940417AA
:100100000C9480010C9480010C9480010C9480016B
:100110000C9480010C9480010C9480010C9480015B
:100120000F1B701B6D1B6A1B011B281B081B331B3D
:100130003B1B621B6F24762442274227422742271B
:10014000642536264227BA264227BE243527422771
:1001500047263A27422742274024CA2642274227D9
:100160004227422742273C2742274227422742274D
:100170006425402742274227422742274227422719
:100180003A275C256E616E00696E660000407A1049
:10019000F35A00A0724E18090010A5D4E80000E838
:1001A0007648170000E40B54020000CA9A3B000096
:1001B00000E1F505000080969800000040420F0025
:1001C0000000A08601000000102700000000E803E6
:1001D000000000006400000000000A0000000000B1
:1001E0000100000000002C76D888DC674F0823DF70
:1001F000C1DFAE59E1B1B796E5E3E453C63AE65143
:10020000997696E8E6C28426EB898C9B62ED407C69
:100210006FFCEFBC9C9F40F2BAA56FA5F490055A05
:100220002AF75C936B6CF9676DC11BFCE0E40D472A
:10023000FEF520E6B500D0ED902E0300943577054D
:100240000080841E080000204E0A000000C80C3305
:100250003333330F986E12831141EF8D2114893B94
:10026000E65516CFFEE6DB18D1844B381BF77C1D14
:10027000901DA4BBE424203284725E228100C9F167
:1002800024ECA1E53D274E414E494E495459494E73
:1002900046CDCCCC3D0AD7233C17B7D13877CC2BF1
:1002A000329595E6241FB14F0A000020410000C896
:1002B0004200401C4620BCBE4CCA1B0E5AAEC59D17
:1002C000740011241FBECFEFD1E4DEBFCDBF15E017
:1002D000A0E0B2E0E6ECF9E600E00BBF02C0079058
:1002E0000D92A437B107D9F72CE0A4E7B5E001C01F
:1002F0001D92A13FB207E1F70E9404140C94E1346F
:100300000C9400008091DF0881608093DF080895DD
:100310009F92AF92BF92CF92DF92EF92FF920F9394
:100320001F93CF93DF937C016B01FC0101900020B0
:10033000E9F73197EF01C81BD90B0C2F10E010170C
:10034000A8F45701A10EB11CF50180810E9414216F
:10035000982EF50181810E941421F0E19F9E800D6D
:100360001124F60181936F011E5FE9CF8C2F8695D2
:10037000DF91CF911F910F91FF90EF90DF90CF9081
:10038000BF90AF909F9008950F931F93CF93DF93EB
:100390008B01EB012196833009F44EC050F581307A
:1003A00071F1823009F07FC08091A1091F928F9373
:1003B0008091A0091F928F9380919C088F938091C8
:1003C0009B088F9380919E088F9380919D088F93B7
:1003D0008AE792E09F938F93DF93CF930E94053239
:1003E000ADB7BEB71C960FB6F894BEBF0FBEADBF7B
:1003F0005AC0853071F130F18630B1F154C080912E
:10040000A1091F928F938091A0091F928F9387E378
:1004100092E09F938F9381E492E09F938F93DF9379
:10042000CF930E940532ADB7BEB71A960FB6F894B7
:10043000BEBF0FBEADBF37C061EE72E0CE010E94FD
:10044000683131C084ED98E09F938F9385EF92E0FF
:100450001EC081EA98E09F938F938FE093E09F9373
:100460008F93DF93CF9317C040EA58E061E080E0BC
:1004700091E00E94CE178091A0088F3F11F4109256
:10048000A0088091A0081F928F938FE293E09F9322
:100490008F93DF93CF930E9405320F900F900F90B0
:1004A0000F900F900F90FE0101900020E9F7EC1BD8
:1004B000D801EC938E2F8095881F8827881FDF91A5
:1004C000CF911F910F9108951F93CF93DF93CDB7D5
:1004D000DEB7C058D1090FB6F894DEBF0FBECDBF4E
:1004E000BE016F5F7F4F80E8FB0111928A95E9F7AB
:1004F00081E00E94C401182F882341F0AE014E5FB5
:100500005F4F698180E090E00E94FC19812FC05804
:10051000DF4F0FB6F894DEBF0FBECDBFDF91CF9196
:100520001F910895CF93DF93CDB7DEB7C058D1099F
:100530000FB6F894DEBF0FBECDBFBE016F5F7F4F19
:1005400080E8FB0111928A95E9F782E00E94C401DC
:10055000AE014E5F5F4F698180E090E00E94FC1920
:1005600081E0C058DF4F0FB6F894DEBF0FBECDBF9D
:10057000DF91CF910895CF93DF93CDB7DEB7699721
:100580000FB6F894DEBF0FBECDBFBE016F5F7F4FC9
:1005900089E1FB0111928A95E9F783E00E94C40189
:1005A000AE014E5F5F4F698180E090E00E94FC19D0
:1005B00081E069960FB6F894DEBF0FBECDBFDF9124
:1005C000CF910895CF93DF93CDB7DEB7A3970FB642
:1005D000F894DEBF0FBECDBFBE016F5F7F4F83E2D9
:1005E000FB0111928A95E9F784E00E94C401AE01F3
:1005F0004E5F5F4F698180E090E00E94FC1981E0CE
:10060000A3960FB6F894DEBF0FBECDBFDF91CF919A
:100610000895CF93DF93CDB7DEB7C555D1090FB697
:10062000F894DEBF0FBECDBFBE016F5F7F4F85E583
:10063000FB0111928A95E9F785E00E94C401AE01A1
:100640004E5F5F4F698180E090E00E94FC1981E07D
:10065000CB5ADF4F0FB6F894DEBF0FBECDBFDF9190
:10066000CF910895CF93DF93CDB7DEB7A3970FB6A1
:10067000F894DEBF0FBECDBFBE016F5F7F4F83E238
:10068000FB0111928A95E9F786E00E94C401AE0150
:100690004E5F5F4F698180E090E00E94FC1981E02D
:1006A000A3960FB6F894DEBF0FBECDBFDF91CF91FA
:1006B00008958F929F92AF92BF92CF92DF92FF9256
:1006C0000F931F93CF93DF93CDB7DEB7CD54D109EE
:1006D0000FB6F894DEBF0FBECDBF2E969FAF8EAF84
:1006E0002E976E0183E4C80ED11C88E0F601982F86
:1006F00011929A95E9F75E01EBE3AE0EB11CF5019C
:1007000011928A95E9F7CE0101964C0182E3F4013A
:1007100011928A95E9F72C961FAE2C97F0909508C8
:100720002E960EAD1FAD2E976DE373E0C8010E94AB
:100730008931892B09F49AC04AE453E06CE473E0F0
:10074000C8010E945723009729F1B4010E94880133
:100750008BAB6FEF680FA40184E290E00E94E31777
:100760008BA9FE01E80FF11D808180939F084FE95E
:1007700058E061E081E690E00E94E31780919308E1
:100780008D7F8093930843E958E061E082E290E036
:100790000E94E3174AE453E06AE573E02E968EADBB
:1007A0009FAD2E970E945723009791F0B4010E94AD
:1007B00088018BABAE014D5C5F4F61E087E590E057
:1007C0000E94E317A4016BA988E590E00E94E3175B
:1007D0004AE453E06BE673E02E968EAD9FAD2E9704
:1007E0000E945723009781F10E9434302C963FAD30
:1007F0002C9720E00097C9F0E32FF0E0EC0DFD1DF1
:10080000213029F0282F2F70208321E008C040815B
:10081000282F2295207F242B20833F5F20E064E057
:10082000969587956A95E1F7E5CF2C963FAF2C9783
:10083000A60168E080E090E00E94E317A50168E06F
:1008400080E090E00E94CE17B501C6010E945F31A2
:10085000892B09F053C1809193088E7F8093930870
:1008600043E958E061E082E290E030C066E773E07F
:10087000C8010E948931892B09F038C163E873E00F
:10088000C8010E948931892B09F033C166E973E000
:10089000C8010E948931892B19F00E9464022EC17F
:1008A00069EA73E0C8010E948931892BA1F088E0D0
:1008B000E1E2F2E0DE01D39601900D928A95E1F734
:1008C000AE014D5C5F4F68E080E090E00E94E3176E
:1008D00050E2F52E13C165EB73E0C8010E94893127
:1008E000892B09F43BC042E55BE061E082EF9FE0C9
:1008F0000E94E31749E45BE062E084EF9FE00E941E
:10090000E3174BE45BE062E086EF9FE00E94E317B1
:1009100081E02C968FAF2C97AE01455B5F4F61E075
:1009200080EF9FE00E94E3172E96EEADFFAD2E976D
:1009300011821082AE01445B5F4F66E08AEF9FE058
:100940000E94E317F8949FE088E10FB6F894A89509
:10095000809360000FBE90936000FFCF65EC73E062
:10096000C8010E948931892B51F14AE453E06AECB5
:1009700073E0C8010E945723009709F4BFC0FC012F
:1009800001900020E9F731978F01081B190B0BAB81
:10099000033308F0B3C0BC0181EA98E00E946831DB
:1009A00061E0600F6BAB41EA58E087E790E00E949E
:1009B000E317809193088F77809393083AC061ED95
:1009C00073E0C8010E948931892B19F00E94090344
:1009D00095C066ED73E0C8010E948931892B89F1C9
:1009E0004AE453E066EE73E0C8010E945723009783
:1009F00009F484C0FC0101900020E9F731978F01D0
:100A0000081B190B0BAB0B3008F078C0BC0184ED50
:100A100098E00E94683161E0600F6BAB44ED58E0F4
:100A20008CE690E00E94E317809194088E7F80937B
:100A3000940843E958E061E082E290E00E94E31705
:100A40005DC068EF73E0C8010E948931892B19F0FD
:100A50000E94E20253C068E074E0C8010E9489313C
:100A6000892B69F00E94320362E871E08CE390E028
:100A70000E94B01E8093740548E2F42E3FC06FE0E0
:100A800074E0C8010E948931892BB1F56BE174E0F3
:100A9000C8010E948931892B89F11BAA4AE453E0DD
:100AA00065E274E0C8010E945723009739F1BE0146
:100AB0006D5C7F4F0E9488018BA98630F9F4F8E2C3
:100AC000FF121CC0809174050E94ED1E0E946207F7
:100AD000882349F062E871E08CE390E00E94B01E48
:100AE000809374050BC037E2F32E08C02AE0F22E83
:100AF00005C094E1F92E02C08FE1F82E8F2DC35B63
:100B0000DF4F0FB6F894DEBF0FBECDBFDF91CF91A0
:100B10001F910F91FF90DF90CF90BF90AF909F906B
:100B20008F900895EF92FF920F931F93CF93DF93CF
:100B3000CDB7DEB7CA58D1090FB6F894DEBF0FBEE5
:100B4000CDBF8C017E0181E8E80EF11C8AE0D7015F
:100B50001D928A95E9F7FE01319680E8DF011D922A
:100B60008A95E9F7F80161857285838594852AE085
:100B7000A7010E94AB31D80154968C9154971F92D3
:100B80008F9313968C9113971F928F9312968C913B
:100B900012971F928F9315968C9115978F93149699
:100BA0008C9114978F9311968C9111978F938C91B0
:100BB0008F9317966D917C91189780E090E00E943A
:100BC000052C20E030E048EC52E40E94642B9F9317
:100BD0008F937F936F93FF92EF9281E394E09F93C3
:100BE0008F938E010E5F1F4F1F930F930E9405324C
:100BF000F80101900020E9F76E2F601B69830FB6A2
:100C0000F894DEBF0FBECDBF67FD07C0A80180E02E
:100C100090E00E94FC1981E001C080E0C657DF4FE0
:100C20000FB6F894DEBF0FBECDBFDF91CF911F91FD
:100C30000F91FF90EF9008950F93813019F40F9169
:100C40000C943C0C823029F405E020E04CE76AED7E
:100C500016C0843031F405E02CED4AED6CE788EFE6
:100C60000FC0833031F405E020E040EA62EF8AED06
:100C700007C0853039F400E020E040E060E080E02B
:100C80000E94FD0B0F9108950C94250C43E958E048
:100C900062E082E290E00E94CE1740EA59E062E012
:100CA0008EE190E00E94CE1710929708109298085B
:100CB0001092990810929A0881E090E090939C0815
:100CC00080939B0890939E0880939D088091930841
:100CD0008F7B8093930881FD47C00E94C30780915A
:100CE00093088460809393084FE958E061E081E6BF
:100CF00090E00E94CE1780919F088823C9F08091D0
:100D0000930888608093930840EA58E061E080E0AF
:100D100091E00E94CE178091A0088F3F49F4109275
:100D2000A00840EA58E061E080E091E00E94E3170B
:100D30008BE0E4EDF8E0DF011D928A95E9F783E3AB
:100D4000E1EAF8E0DF011D928A95E9F744ED58E009
:100D50006AE08CE690E00E94CE1741EA58E062E338
:100D600087E790E00C94CE170C94FE1FCF93DF938F
:100D7000CDB7DEB767970FB6F894DEBF0FBECDBF15
:100D800021E02F8B38E13E8B6A877B878C879D879C
:100D900080919D0890919E089A8389838091100A82
:100DA0008B838091110A8C838091140A8F838091A8
:100DB0009B0890919C089E838D838091CF0990E041
:100DC000998788871E861F86188A198A1A8A1B8A1D
:100DD0001C8A2D8B40EA58E061E080E091E00E949F
:100DE000CE178091A0088F3F29F090919F08891716
:100DF00008F048C081508E3F50F01092A008AE011C
:100E00004A5E5F4F62E081E091E00E94E3178091CB
:100E1000A00825E1829FC0011124AE014F5F5F4F02
:100E200065E1885E9E4F0E94E3178091A0088F5F66
:100E30008093A00840EA58E061E080E091E00E94E1
:100E4000E3178091930885FD0AC080628093930820
:100E500043E958E062E082E290E00E94E31790915B
:100E6000A00880919F08981323C080919308806107
:100E70008093930843E958E062E082E290E00E94A8
:100E8000E31716C043E958E061E082E290E00E9477
:100E9000CE1780919308877F80618093930843E900
:100EA00058E061E082E290E00E94E31780E001C038
:100EB00081E067960FB6F894DEBF0FBECDBFDF911D
:100EC000CF910895CF93DF93CDB7DEB767970FB675
:100ED000F894DEBF0FBECDBF40EA58E061E080E08D
:100EE00091E00E94CE178091A00881508E3F78F546
:100EF000AE014A5E5F4F62E081E091E00E94CE1752
:100F0000AE014F5F5F4F65E18E899F890E94CE17CA
:100F1000CE0101960E9492058823C9F08E899F898F
:100F200045969F8B8E8B8091A00881508093A0085E
:100F3000AE014A5E5F4F62E081E091E00E94E317FC
:100F400040EA58E061E080E091E00E94E317809180
:100F5000A00881110DC0809193088F7D8F7E8093B2
:100F6000930843E958E061E082E290E00E94E317D1
:100F70008091A00867960FB6F894DEBF0FBECDBF74
:100F8000DF91CF9108950F931F93CF93DF93CDB748
:100F9000DEB7E2970FB6F894DEBF0FBECDBFAE014D
:100FA0004F5F5F4F82E3FA0111928A95E9F78091D2
:100FB000A0099FED980F923018F0843209F0D1C04B
:100FC00060E184E290E00E94CE170A811B81602FCD
:100FD00070E0762F6627610F711D072E000C880BBD
:100FE000990B0E94072C20E030E048EC52E40E946C
:100FF000642B6093CE0B7093CF0B8093D00B9093A8
:10100000D10B89818093CA090093CE091093CF092F
:101010001092F50939E13093F6091092F70984E648
:101020008093F8099C859093F9099D859093FA091E
:101030009E859093FB099F859093FC0928892093B6
:10104000FD092C812093050A2D812093060A209109
:10105000A109223009F002C11092D0098093D10970
:101060001092D2098093D3091092D4098093D509A4
:101070001092D6098093D7091092D8098093D90984
:101080001092DA098093DB091092DC098093DD0964
:101090001092DE098093DF098091A009813259F511
:1010A0001092E0093093E10981E08093E2098AE03F
:1010B0008093E4091092E5091092E3098093E9090D
:1010C00024E02093EA091092EB0937E03093EC0911
:1010D0008093ED092093EE091092EF0936E03093EA
:1010E000F0098093F1092093F2091092F30985E049
:1010F0008093F4092AC0823289F41092E00982E3D5
:101100008093E1091092E6093093E7092093E809FA
:1011100083E08093E20920930D0A17C08432A9F47A
:101120001092E00982E38093E1091092E60930937E
:10113000E7092093E80983E08093E2092093E90915
:1011400084E08093EA091092EB0993FF04C08DE1DB
:1011500080930B0A02C010920B0A907290930C0AB3
:101160007DC08852823008F079C062E184E290E06C
:101170000E94CE170A811B81602F70E0762F6627B0
:10118000610F711D072E000C880B990B0E94072C14
:1011900020E030E048EC52E40E94642B6093CE0BD8
:1011A0007093CF0B8093D00B9093D10B8981809358
:1011B000CA090093CE091093CF092E812093F50917
:1011C0009F819093F6092093F7099093F8098885F9
:1011D0008093F90989858093FA098A858093FB09B0
:1011E0008B858093FC093C853093FD093D853093C8
:1011F000FE093E853093FF093093000A3F85309306
:10120000010A38893093020A39893093030A3A89EE
:101210003093040A3C813093050A3D813093060ADD
:101220003091A1093230D1F40093D0091093D10943
:101230002093D2099093D3099091080A992319F029
:1012400091E09093070A83FF04C09DE190930B0AFD
:1012500002C010920B0A807280930C0AE2960FB6BD
:10126000F894DEBF0FBECDBFDF91CF911F910F91DC
:101270000895AF92BF92CF92DF92EF92FF920F93B9
:101280001F93CF93DF938C0198E0F92EC02E0E941C
:101290002E20F801D080D39482E00E944B20C02FF2
:1012A000D12F82E0E82E8C2F8C198D1540F45E0131
:1012B00089910E944B20F5018081E826F4CF8E2D84
:1012C0000E944B201092CD0B78940E94E61F8091D3
:1012D000CD0B863420F40E947A20882339F00E94B6
:1012E000E41F8091CD0B863440F00DC00E94971A08
:1012F000882369F30E94EB1AEACF0E948620863089
:1013000069F0893049F08FED9EE20197F1F700C056
:101310000000FA94F110BBCF80E001C081E0DF91C2
:10132000CF911F910F91FF90EF90DF90CF90BF90E2
:10133000AF900895CF93DF93CDB7DEB728970FB660
:10134000F894DEBF0FBECDBF9091110A8091120AB2
:101350009230F9F497E0998398E19A8381110AC059
:101360008091940881FF06C08091050A8B8380914B
:10137000060A05C08091CE098B838091CF098C83AA
:101380001D821E828091080A8F838091090A8887B6
:1013900019C094E0998392E19A8381110AC08091E7
:1013A000940881FF06C08091050A8B838091060A0C
:1013B00005C08091CE098B838091CF098C83809169
:1013C0000A0A8D83CE0101960E94390928960FB62C
:1013D000F894DEBF0FBECDBFDF91CF910895DF92AD
:1013E000EF92FF920F931F93CF93DF937C010E94A4
:1013F0008620C82F823009F50E948620D82FF70159
:1014000080818D17D0F0CD27DE2C8701802F8D199C
:101410008D1738F40E948620F80181938F01C82728
:10142000F5CF0E948620C81305C086E00E944B209D
:1014300081E004C085E10E944B2080E0DF91CF91E4
:101440001F910F91FF90EF90DF900895CF93DF935E
:10145000CDB7DEB762970FB6F894DEBF0FBECDBF33
:101460008091110A823091F522E1CE010196FC01B2
:10147000322F11923A95E9F729830E94EF098823C8
:1014800009F44DC09981973109F049C09A81905E65
:101490009093100A9C819093120A9D819093130A55
:1014A0009E819093140A9F819093150A9A85909338
:1014B000160A9B859093170A98899093180A998920
:1014C0009093190A9A8990931A0A2AC0813039F5A3
:1014D0002BE0CE010196FC01322F11923A95E9F7EB
:1014E00029830E94EF098823D1F099819131B9F4C1
:1014F0009A81905E9093100A9C819093120A9D812C
:101500009093130A9E819093140A9F819093150AD9
:101510009A859093160A9B859093170A01C080E0E4
:1015200062960FB6F894DEBF0FBECDBFDF91CF91AC
:1015300008951F93CF93DF9300D01F92CDB7DEB7EE
:1015400082E089838091110A823011F486E101C022
:1015500080E18A83809191088B83CE0101960E945D
:101560003909811102C080E015C00E94260A182F97
:101570008823C9F39091930891FB882780F991FD06
:1015800009C08FED9EE20197F1F700C000000E94B4
:101590009A09812F0F900F900F90DF91CF911F919B
:1015A0000895CF93DF93CDB7DEB72A970FB6F8949F
:1015B000DEBF0FBECDBF8AE08983CE0101960E94B7
:1015C000EF09882361F09A819093CB099B819093D6
:1015D000CC099C819093CD099D819093FC092A961A
:1015E0000FB6F894DEBF0FBECDBFDF91CF91089547
:1015F000CF93DF93CDB7DEB728970FB6F894DEBF51
:101600000FBECDBF88E0E9E2F2E0DE011196019065
:101610000D928A95E1F784E08E838F83CE01019647
:101620000E94390981110E94D10A28960FB6F894B8
:10163000DEBF0FBECDBFDF91CF9108958091110A1B
:10164000813019F48091140A04C0823079F48091B9
:10165000150A81FD09C0803149F49091100A985211
:1016600081E0923020F002C081E0089580E008958A
:101670008091140A803139F081E09091150A9031FF
:1016800019F080E001C081E081700895CF93DF936D
:1016900000D000D000D0CDB7DEB7CE01019626E055
:1016A000FC0111922A95E9F74091110A20918F08C7
:1016B00030919008423039F443E0498340E44A8352
:1016C0003B832C830CC045E0498340E44A833B8341
:1016D0002C832091CE092D832091CF092E830E9447
:1016E000390926960FB6F894DEBF0FBECDBFDF9145
:1016F000CF910895CF93DF93CDB7DEB727970FB67D
:10170000F894DEBF0FBECDBFCE01019627E0FC01ED
:1017100011922A95E9F74091110A20918F08309192
:101720009008423039F443E0498342E44A833B83E2
:101730002C830FC046E0498342E44A833B832C83D9
:101740002091CE092D832091CF092E832091FF096E
:101750002F830E94390927960FB6F894DEBF0FBE7B
:10176000CDBFDF91CF910895CF93DF9300D0CDB758
:10177000DEB781E0898381E48A83CE0101960E94ED
:1017800039090F900F90DF91CF910895CF93DF9398
:10179000CDB7DEB727970FB6F894DEBF0FBECDBF2B
:1017A000CE01019627E0FC0111922A95E9F74091BC
:1017B000110A20918F0830919008423039F443E0AB
:1017C000498341E44A833B832C830CC045E0498331
:1017D00041E44A833B832C832091CE092D832091C1
:1017E000CF092E830E94390927960FB6F894DEBFE1
:1017F0000FBECDBFDF91CF9108950F93CF93DF93AD
:10180000CDB7DEB72A970FB6F894DEBF0FBECDBFB7
:10181000FE0131969AE0DF011D929A95E9F796E074
:10182000998390E69A838B836C834D832E830F83F9
:10183000CF010E9439092A960FB6F894DEBF0FBE79
:10184000CDBFDF91CF910F9108950F9340910E027C
:1018500005E0242F60910A0280EA0E94FD0B882394
:1018600049F02FEF37EA91E6215030409040E1F700
:1018700000C000000F9108950F93CF9304E02CEB6C
:1018800040EA6EEE82E70E94FD0BC82F8823E1F04C
:101890002FEF37EA81E6215030408040E1F700C069
:1018A000000003E020E040EA60EA82EF0E94FD0BC6
:1018B000882351F09FEF27EA31E6915020403040D5
:1018C000E1F700C00000C82F8C2FCF910F91089531
:1018D000813051F40E94C60B811102C080E008954E
:1018E0001092910881E008950E94B40BF5CF8130E9
:1018F00059F40E94460B811102C080E0089580E8EF
:101900008093910881E008958230B9F70E947A0BA4
:10191000F2CF0C94380B0C941E0B0E94990A88236A
:1019200019F082E08093960808950E94F80A8823AF
:1019300011F082E001C081E08093110A8FE39FE102
:101940000197F1F700C000000E948D0C8091100AF1
:101950008093A0098091110A8093A1090895CF93E3
:10196000DF93CDB7DEB7E2970FB6F894DEBF0FBEB8
:10197000CDBFFE01319682E3DF011D928A95E9F722
:101980008091A109823009F0A4C19091A0099132FF
:1019900009F07EC08DE289839A838091CB098B8385
:1019A0008091CC098C838091CD098D838091CE0963
:1019B00088878091CF0989878091D0098A87809113
:1019C000D1098B878091D2098C878091D3098D872B
:1019D0008091D4098E878F878091D709888B8091D9
:1019E000D609898B8091D9098A8B8091D8098B8BF4
:1019F0008091DA098C8B8091DB098D8B8091DC09D9
:101A00008E8B8091DD098F8B8091DE09888F80918C
:101A1000DF09898F8091E0098A8F8091E1098B8F9E
:101A20008091E2098C8F8091E4098D8F8091E50986
:101A30008E8F8091E3098F8F8091E90988A380912F
:101A4000EA0989A38AA38091EC098BA38091ED090F
:101A50008CA38091EF098DA38091EE098EA38091D4
:101A6000F0098FA38091F10988A78091F30989A7D4
:101A70008091F2098AA78091F4098BA78091FD09D2
:101A80008CA780910B0A8DA780910C0A8EA7CDC0E0
:101A9000923209F05EC099839A838091CB098B833F
:101AA0008091CC098C838091CD098D838091CE0962
:101AB00088878091CF0989878091D0098A87809112
:101AC000D1098B878091D2098C878091D3098D872A
:101AD0008091D4098E878F878091D709888B8091D8
:101AE000D609898B8091D9098A8B8091D8098B8BF3
:101AF0008091DA098C8B8091DB098D8B8091DC09D8
:101B00008E8B8091DD098F8B8091DE09888F80918B
:101B1000DF09898F8091E6098A8F8091E7098B8F91
:101B20008091E0098C8F8091E1098D8F8091E80987
:101B30008E8F8091E2098F8F80910D0A88A380910A
:101B4000FD0989A380910B0A8AA380910C0A8BA3BB
:101B50006CC0943209F069C086E289839A838091CF
:101B6000CB098B838091CC098C838091CD098D83A7
:101B70008091FC098E838091CE0988878091CF095E
:101B800089878091D0098A878091D1098B8780913C
:101B9000D2098C878091D3098D878091D4098E8753
:101BA0008F878091D709888B8091D609898B809106
:101BB000D9098A8B8091D8098B8B8091DA098C8B1B
:101BC0008091DB098D8B8091DC098E8B8091DD0902
:101BD0008F8B8091DE09888F8091DF09898F20911A
:101BE000050A2A8F8091060A8B8F2C8F8D8F80910A
:101BF000E6098E8F8091E7098F8F8091E00988A395
:101C00008091E10989A38091E8098AA38091E20982
:101C10008BA380910D0A8CA38091FD098DA38091E7
:101C20000B0A8EA380910C0A8FA388ED890F823056
:101C300008F095C081E289839A838091CB098B83D8
:101C40008091CC098C838091CD098D838091FC0992
:101C50008E831F828091CE0988878091CF098987E2
:101C60008091D0098A878091D1098B878091D20990
:101C70008C878091D3098D878091FB098E871F8681
:101C8000888B198A9091FE099A8B9B8B9C8B9D8BDC
:101C90008091070A8E8B8091080A8F8B188E809115
:101CA000010A898F8091020A8A8F8091030A8B8FA3
:101CB0008091040A8C8F8091FD098D8F80910B0A91
:101CC0008E8F80910C0A8F8F18A281E089A31AA2AF
:101CD00046C0813009F043C08BE289838091A0091E
:101CE0008A838091CE098B838091CF098C838091E8
:101CF000F5098D838091F6098E838091F7098F8392
:101D00008091F80988878091F90989878091FA097B
:101D10008A878091FB098B879091100A9852809155
:101D2000FD092091FC099230C0F49091FE099C8736
:101D30009091FF099D879091000A9E879091010ADA
:101D40009F879091020A988B9091030A998B9091AA
:101D5000040A9A8B2B8B8C8B02C02C878D87CF012A
:101D60000E943909E2960FB6F894DEBF0FBECDBFD0
:101D7000DF91CF910895CF93DF9300D0CDB7DEB739
:101D800081E0898388E48A83CE0101960E94390923
:101D90000F900F90DF91CF9108951F93CF93DF9312
:101DA0001F92CDB7DEB764E670E00E94002D162FBB
:101DB00040E861E08AE279830E94BF1366EA8BE221
:101DC0000E94A1138AE20E94B513807F682F62608F
:101DD0008AE20E94A113612F8DE20E94A1137981F2
:101DE000672F8CE20E94A11380E090E00F90DF91BA
:101DF000CF911F9108956FE081E00E94A11360E4EC
:101E000085E10E94A11348E060E088E00E94BF13D2
:101E100082E10E94B5138870682F606882E10E9499
:101E2000A11383E10E94B5138870682F606883E175
:101E30000E94A1136DE689E10E94A11368E486E285
:101E40000E94A11365E588E10E94A11366E284E285
:101E50000E94A11364EF87E20E94A11388E893E136
:101E60000E94CD0E43E061E084E10E94BF1340E494
:101E700061E08CE00E94BF1384E00E94B51380FFF4
:101E8000FBCF61E084E00E94A11388E893E10E9407
:101E9000CD0E6AE18BE00E94A11360E186E10E9411
:101EA000A11364E887E10E94A11360E081E00E9431
:101EB000A11380ED97E00C94CD0E9F92AF92BF924C
:101EC000CF92DF92EF92FF920F931F93CF93DF9306
:101ED000182F7B01EA0162E484E00E94A11360E014
:101EE00085E00E94A11360E88AE00E94A11381E0CE
:101EF0000E94B513682F607F1C3009F46C6081E08C
:101F00000E94A113D0937605C0937505103108F097
:101F100063C0812F90E0FC01EE0FFF1FE25FFA4FDC
:101F2000C081D181FC01E250FB4FC080FC01E25135
:101F3000FB4F0081FC01E252FB4F9080209709F09B
:101F400050C082E00E94B513682F6C2982E00E9485
:101F5000A11383E00E94B513682F83E00E94A113B0
:101F6000D12CE0917505F09176058381D81648F45F
:101F7000F701ED0DF11D608189E00E94A113D3945A
:101F8000F0CF1C3031F440E861E08DE00E94BF13D7
:101F900009C081E00E94B513807F682F612B81E02A
:101FA0000E94A113AA24A394BA2C10E0002371F07C
:101FB000812F802359F484E00E94B513182F85E007
:101FC0000E94B51381E0A81AB10881F701231170AE
:101FD000C12FE0E0DE2F05C0912CC12C02E4C3E04C
:101FE000D1E04C2D60E082E00E94BF1340E060E051
:101FF00083E00E94BF13992009F47EC0209709F066
:102000007BC0C0907505D09076058AE00E94B5131C
:10201000F60184838CE00E94B513E0917505F09180
:102020007605877090E09683858386E00E94B513DD
:10203000182F882309F446C083FD05C081FF05C021
:10204000C3E0D0E002C0C6E0D0E010FD22C014FD25
:1020500023C012FF19C0E0917505F0917605C48187
:10206000C130E9F4858196818B7F892BC1F489E0A9
:102070000E94B513F7018083E0917505F091760514
:10208000C483C2E0D2E00DC016FF0BC0C4E0DEE79F
:1020900008C0CBE0D0E005C0C9E0D0E002C0C2E09B
:1020A000D0E017FD05C0209729F4CCE0D0E002C0B5
:1020B000CDE0D0E060E086E00E94A113C230F2E003
:1020C000DF07D1F010E0E0917505F091760584818D
:1020D000181750F46701C10ED11C89E00E94B51396
:1020E000F60180831F5FEFCF25813681232B21F0FE
:1020F000882311F081508483602F84E00E94A11313
:1021000060E085E00E94A11360E88AE00E94A113CC
:1021100061E084E00E94A11360E08DE00E94A113C1
:10212000CE01DF91CF911F910F91FF90EF90DF9043
:10213000CF90BF90AF909F9008951F93CF93DF9360
:10214000182FEB0148E060E088E00E94BF1360E8D0
:102150008EE00E94A11340E860E082E10E94BF137C
:1021600040E860E083E10E94BF1367E08DE00E94D9
:10217000A1131092320A1092330A1092340A10926C
:10218000360A1092380A1092370A1092390A1093C0
:102190001E0A81E08093350A80E991E00E94CD0E0D
:1021A00042E35AE06EE17AE08CE00E945D0F882302
:1021B00011F0863089F49091360A923081F42091A2
:1021C000370A3091380A232B51F420911E0A30919E
:1021D0001F0A3983288304C01882198201C08BE04A
:1021E00090E0DF91CF911F9108956F927F929F921F
:1021F000AF92BF92CF92DF92EF92FF920F931F9315
:10220000CF93DF931F92CDB7DEB7E82EF62E3A01BB
:102210001092200A1092210A1092220A1092230A88
:102220001092240A40E860E082E10E94BF1340E877
:1022300060E083E10E94BF1360E08EE00E94A11382
:10224000B62C84E0C82ED12C30E23F1508F4A9C08A
:102250002F2D27709F2D969596959695222321F0E8
:10226000AA24A394A90E01C0A92EE0921E0A80E21E
:10227000820FE0E19E9F800D112480931F0AA0E24F
:10228000BAE0F3018E2F8B198A1518F481918D9382
:10229000F9CFF0E12F9FB0011124622B8DE029834B
:1022A0000E94A1131092320A1092330A1092340A3B
:1022B0001092360A1092380A1092370A1092390A90
:1022C00082E08A0D8093350A80E197E20E94CD0E6C
:1022D00042E35AE06EE17AE08CE00E945D0F8C01EF
:1022E00029818630910519F0892B09F05FC0609132
:1022F000370A7091380A8091360AA62F38E0839FFA
:10230000A00D1124A21B4F2D50E04A0F511D493240
:1023100051050CF049C0672B19F08F5F8093360A86
:102320004A2D50E0222359F0FA013197E60DF71DAE
:10233000908180911E0A892B8083B1E001C0B0E0BA
:10234000A12CC601841B950B6B2F70E02A2D30E069
:102350002817390774F4F901E25EF54FE60FF71F0D
:102360009080260D371DF901E40FF51F9082A3948C
:10237000EDCF0630110511F4FA0E66CFF30191810D
:10238000808189279281892793818927225E354F11
:10239000F901EB0FF11D9081891741F001E015E083
:1023A00005C001E011E002C004E010E060E08DE053
:1023B0000E94A11360E88EE00E94A113C8010F9053
:1023C000DF91CF911F910F91FF90EF90DF90CF9011
:1023D000BF90AF909F907F906F900895FF920F9362
:1023E0001F93CF93DF93F82EEB018A0140E861E061
:1023F00082E10E94BF1340E861E083E10E94BF13C5
:10240000F0921E0A80E780931F0AFE01A0E2BAE064
:10241000CE01049621912D93E817F907D9F79981F8
:10242000888189279A8189279B8189278093240A1B
:102430001092320A1092330A1092340A1092360A1D
:102440001092380A1092370A1092390A87E0809366
:10245000350A80ED97E00E94CD0E42E35AE06EE12E
:102460007AE08CE00E945D0F009789F42091360A93
:10247000213059F42091370A3091380A232B29F45E
:1024800020911E0AF801208302C084E090E0DF91D1
:10249000CF911F910F91FF9008956F927F928F922D
:1024A0009F92AF92BF92CF92DF92EF92FF920F93E3
:1024B0001F93CF93DF93CDB7DEB72D970FB6F89468
:1024C000DEBF0FBECDBF7B016A019E012F5F3F4F74
:1024D000590120E030E010E08823A1F0813240F083
:1024E00000EE080F113061F0123071F580E205C086
:1024F000113051F0123099F400E067E9962E12C0C5
:1025000080E203C0113089F400E06A807B808C8017
:10251000F70160827182828255E9952E03C000E046
:1025200043E9942E803231F411C0123029F300E0D7
:1025300093E9992E2115310509F5A501682F892DFB
:102540000E94F5109C0102C083E9982E21153105E7
:10255000A9F4AE01435F5F4FB501892D0E94EE11D2
:102560009C01892B19F48D8582FF08C01F5FF4E060
:10257000AF0EB11C1330D1F0802FAECF113061F00F
:102580001230A1F48D819E81AF81B885F7018683D9
:102590009783A087B18713C08D819E81AF81B88555
:1025A000F70183839483A583B68309C089819A81C7
:1025B000AB81BC81F70180839183A283B3838D8536
:1025C000F6018083C9012D960FB6F894DEBF0FBEC9
:1025D000CDBFDF91CF911F910F91FF90EF90DF90D2
:1025E000CF90BF90AF909F908F907F906F90089505
:1025F000CF93DF931092320A1092330A1092340A6A
:102600001092350A1092360A1092380A1092370A40
:102610001092390A80931E0A20931F0A86E0FB015C
:10262000A0E2BAE001900D928A95E1F7FA0180816B
:102630009181A281B3818093260A9093270AA09367
:10264000280AB093290A8CE08093350A80ED97E040
:102650000E94CD0E42E35AE06EE17AE08EE00E94E5
:102660005D0FEC01892B41F488E00E94B5138F7057
:10267000883011F0C1E0D2E0CE01DF91CF91089512
:10268000CF93DF93EB011092320A1092330A10922B
:10269000340A1092360A1092380A1092370A1092B1
:1026A000390A90E390931E0A80931F0A82E0809378
:1026B000350A80E197E20E94CD0E42E35AE06EE1D6
:1026C0007AE08CE00E945D0F0097E9F0813091057F
:1026D000A1F02091370A3091380A2430310569F48D
:1026E00080911E0A982F9F7090931E0A8A7019F08D
:1026F00085E091E002C081E092E020E1FE011192CC
:102700002A95E9F714C02091360A203141F080E182
:10271000FE0111928A95E9F788E090E008C020E177
:10272000EEE1FAE0DE0101900D922A95E1F7DF91EA
:10273000CF910895883011F481E001C084E00C94B9
:102740004013CF93DF931F92CDB7DEB7880F7198F8
:102750008E7769830E94F4136981862F0E94F41397
:10276000719A0F90DF91CF910895880F8E777198AD
:1027700080680E94F4130E94F913719A08951F93C0
:10278000CF93DF9300D0CDB7DEB7182F4A8369838C
:102790000E94B51369814A81662319F0682F642B62
:1027A00003C0642F60956823812F0F900F90DF91F5
:1027B000CF911F910C94A113CF93DF931F92CDB7AC
:1027C000DEB784B1876084B92398289A82E08DB9F6
:1027D000719A299882E58CBD8DB589838EB58983E0
:1027E0000F90DF91CF9108958EBD0DB407FEFDCF00
:1027F00008958FEF8EBD0DB407FEFDCF8EB5089501
:102800000E94DC130C94FB0EF8940FB6F894A89574
:1028100080916000886180936000109260000FBE1C
:1028200080E090E00E9433200E941D1F0E94DC1F68
:1028300078940E94AF220E94001478940E94EB23A7
:102840000E94EB1AFACF0895809139018695817024
:10285000089580917705811104C080915C01809377
:102860007705809177050895809146018F71809357
:1028700078051092550B08950E942914823019F0A2
:1028800080917805089586E108958091BA0A0895A7
:10289000CF9395EF980F903118F5C82F0E9424140C
:1028A000811120C0809148018F718C17E9F08091CF
:1028B0004801807E9C2F9F71892B809348018091D5
:1028C00041018F71863011F0893021F48DE291E061
:1028D0000197F1F7809148018F718C1307C004C0F4
:1028E00082E405C084E403C080E401C083E4CF91A6
:1028F0000895663098F4811104C080914301886086
:1029000003C080914301877F8093430180914301FD
:10291000887F682B6093430180E4089582E40895E2
:10292000809141018F710895E9E3F1E080818D7F0D
:1029300080838DE090E00197F1F7E2E4F1E080819F
:10294000807E8360808383E090E00197F1F70895B3
:10295000E9E3F1E080818160808380818D7F8083E5
:102960008DE090E00197F1F780818E7F808308955C
:102970000F931F93CF93DF931F92CDB7DEB70DEF69
:1029800013E0F8013197F1F789830E94A814909120
:102990004201907E936090934201F8013197F1F7E4
:1029A0009CE490934E0190914901907F97609093A1
:1029B0004901898181110E94591780E40F90DF91AC
:1029C000CF911F910F910895CF93C82F0E94291482
:1029D000823031F480910500C0FB87F980930500B7
:1029E0000E942914833061F42091040030E2C39FD7
:1029F000C00111248072922F9F7D892B8093040047
:102A0000CF91089580914101982F9F7091509230FD
:102A100038F0982F9F7181E09E3119F080E0089581
:102A200081E00895CF93C82F88EF8C0F823038F063
:102A30008C2F8F7E863019F0C93109F055C00E9465
:102A40002414811153C00E9402158111FCCF0E94F1
:102A50002914823039F40E94721D882319F0C6317E
:102A600009F4C6E0809141018F71C81709F440C094
:102A7000C83019F40E94941431C0C93159F4893016
:102A8000E1F090914201907E9960909342018631ED
:102A900081F40CC0C63189F4893079F090914201FB
:102AA000907E996090934201893119F4E3E0F0E05F
:102AB00002C0E9E6F1E03197F1F790914201907E92
:102AC0002C2F2F71922B90934201883019F489E6B4
:102AD00091E002C083E090E00197F1F7809141011D
:102AE0008F718C1307C004C082E405C084E403C066
:102AF00080E401C083E4CF910895CF93DF9300D0A9
:102B000000D01F92CDB7DEB7809141018F718C83C9
:102B10008C81813151F08C81863039F08C8181300B
:102B200021F08C81863109F05FC040917B0150E03B
:102B300060E871E08BE39AE00E944B3180917B0169
:102B400080933A0AE0917B01F0E0E65CF54F8081EA
:102B50008093BA0A19821B821A8220913B0A8091C3
:102B60003C0A90E0982F8827820F911D90933C0A91
:102B700080933B0A813628E8920709F140F48330BC
:102B800028E0920781F08115904899F028C083369B
:102B90002CE8920701F1833628EC9207D1F08336B6
:102BA0009848E9F40EC08091460B8823C1F085E176
:102BB00015C00E94721D882391F084E10FC080E14E
:102BC0000DC08091440A823031F08B3B31F081306E
:102BD00031F487E103C088E101C089E18983CE0136
:102BE00001960E94A01A35C08C81823049F08C81F8
:102BF000823131F08C81893119F08C81893049F52D
:102C00001092550B19821B821A8280914201829583
:102C1000869587708D838D81833049F020F48230D2
:102C200040F481E105C0853021F482E101C083E1F7
:102C300089838981882321F0CE0101960E94A01A00
:102C400086E10E94121580919400909195000E9457
:102C5000ED2E0F900F900F900F900F90DF91CF916E
:102C600008950F931F93CF93C82F8B0187FD2BC01F
:102C70000E9402158111FCCF89E10E9412158091FA
:102C800041018F718931C1F7F80185819681909357
:102C9000540B8093530B4C2F50E04E5F5F4FB801A5
:102CA00081E891E00E944B31CE5FC093800180911A
:102CB0003901826080933901809139018D7F809341
:102CC000390180E401C082E4CF911F910F910895F2
:102CD000EEE6F1E0908180FB93F990830895809374
:102CE0006201909363010895809360019093610164
:102CF0000895E4E6F1E0DC012D91CD012193EC365D
:102D0000B1E0FB07C1F70895CF93DF93C82FD091AF
:102D100041010E942914833039F4DF70D630F1F478
:102D2000C69590E020E009C00E9429148338A9F3D9
:102D30000E942914873091F4F0CF9C1769F080919C
:102D4000460144E0249F9001112480768295869567
:102D50008770282B9F5FF1CF822F02C00E94E92E3F
:102D6000DF91CF91089508951F920F920FB60F92A1
:102D700011240BB60F922F933F934F935F936F9352
:102D80007F938F939F93AF93BF93EF93FF930E9493
:102D90003414FF91EF91BF91AF919F918F917F91EB
:102DA0006F915F914F913F912F910F900BBE0F90BC
:102DB0000FBE0F901F9018951F920F920FB60F9293
:102DC00011240BB60F922F933F934F935F936F9302
:102DD0007F938F939F93AF93BF93EF93FF930E9443
:102DE0007D15FF91EF91BF91AF919F918F917F9151
:102DF0006F915F914F913F912F910F900BBE0F906C
:102E00000FBE0F901F9018951F920F920FB60F9242
:102E100011240BB60F922F933F934F935F936F93B1
:102E20007F938F939F93AF93BF93EF93FF93809183
:102E300041018F71863111F00E947D15FF91EF9154
:102E4000BF91AF919F918F917F916F915F914F91C2
:102E50003F912F910F900BBE0F900FBE0F901F90C0
:102E600018951F920F920FB60F9211240BB60F9266
:102E70002F933F934F935F936F937F938F939F9382
:102E8000AF93BF93EF93FF930E94301EFF91EF919A
:102E9000BF91AF919F918F917F916F915F914F9172
:102EA0003F912F910F900BBE0F900FBE0F901F9070
:102EB0001895CF92DF92EF92FF920F931F93CF93CB
:102EC000DF9300D0CDB7DEB710917905112311F053
:102ED00011E058C081E080937905F0906600F89485
:102EE00061E00E947914C090B100D0908100E09020
:102EF00080001092B100109281001092800088EE44
:102F000093E043E056E03FEF4093B10050938100DF
:102F10001092B200109285001092840036BB37BB2D
:102F2000B89BFECF60918400709185007A8369839D
:102F3000109281001092B10069817A816D3F7140D9
:102F400020F420916600215008C069817A816330A5
:102F5000724048F0209166002F5F20936600019731
:102F600099F600E001C001E060E081E00E94791480
:102F7000C092B100D0928100E09280000111A8CFF0
:102F8000F0926600812F0F900F90DF91CF911F91EB
:102F90000F91FF90EF90DF90CF900895CF93DF9344
:102FA0001F92CDB7DEB7FC01CA013FB73983F89451
:102FB000462F50E0BF010E94563489818FBF0F9089
:102FC000DF91CF910895CF93DF931F92CDB7DEB7F6
:102FD000FC01CA013FB73983F894462F50E0BF0186
:102FE0000E94783489818FBF0F90DF91CF9108952F
:102FF0001F93CF93DF93CDB7DEB728970FB6F89422
:10300000DEBF0FBECDBF182F2FEF3FEF30934A0B1F
:103010002093490B30934C0B20934B0B1092460B93
:1030200030934E0B20934D0B3093500B20934F0B4E
:103030001092510B1092550B81E08093560B0E9419
:10304000B8141093520B1F3F19F0812F0E9448149F
:1030500081E00E94E41488E00E9412150E94B316D9
:1030600086E10E9412154EE35BE068E080E090E0AC
:103070000E94CE1780E00E9468168FEF9FEF0E949B
:1030800074168FEF9FEF0E946F1680916C018F7006
:10309000806280936C0180913E0B898380913F0B0D
:1030A0008A838091400B8B838091410B8C8380912C
:1030B000420B8D838091430B8E838091440B8F83D1
:1030C0008091450B8887CE0101960E9479160E9457
:1030D000411928960FB6F894DEBF0FBECDBFDF9121
:1030E000CF911F9108958093520B0C9448148091B6
:1030F000A6060E94ED1E9091460B81E089270C9454
:10310000E321CF93DF93EC01862F0E947318ECEB41
:10311000FAE083E698EC92838183AEE3BBE01A96F3
:103120008C911A9791E0980F1A969C931A97838323
:103130001B968D919C911C9795838483D783C6831E
:103140008C91808711968C911197818712968C9122
:103150001297828713968C911397838714968C917C
:103160001497848715968C911597858716968C9160
:103170001697868717968C91878781E0808BD28BF4
:10318000C18B82E0838B6DEB7AE083E10E94311684
:1031900067E778E184E690E00E94671E8093A606C8
:1031A000DF91CF910895009761F0EAE7F5E0208183
:1031B00031812817390739F0339626E0E63AF207CD
:1031C000B1F780E0089581E00895EAE7F5E0DF01D6
:1031D00020E030E04D915C9111974817590769F450
:1031E000F901EE0FFF1F2E0F3F1FF901E458FA4FB0
:1031F00080818E7F8D7F808308952F5F3F4F139650
:103200002436310539F720E030E0422F60817181AA
:10321000672BA9F4F901EE0FFF1F2E0F3F1FF901D5
:10322000E658FA4F91838083F901E458FA4F908170
:103230009E7F9D7F9083842F90E00C94DC212F5FF4
:103240003F4F33962436310501F70895EAE7F5E05C
:1032500020E030E0408151814817590759F4F901C5
:10326000EE0FFF1F2E0F3F1FF901E658FA4F118294
:10327000108208952F5F3F4F33962436310551F762
:10328000089508950895FC0195859F779587089581
:10329000ECEBFAE080E090E892838183AEE3BBE060
:1032A00019968C91199791E0980F19969C931997FC
:1032B00083831B968D919C911C97958384831D9687
:1032C0008D919C911E97978386838FEF90E09187D5
:1032D000808786E0828753968C9183876DEB7AE0B6
:1032E0008BE00C9431166DEB7AE08091BC0A0C9463
:1032F0003116EF92FF920F931F93CF93DF93E091DC
:103300004B0BF0914C0B8E179F0709F46EC08F3F4B
:103310003FEF930709F469C03091460B332309F45A
:1033200064C0C22F7A01D62F8C0181E698E8909371
:10333000BE0A8093BD0A8091480B91E0980F90934C
:10334000480B8093BF0A8091490B90914A0B909350
:10335000C10A8093C00AF093C50AE093C40A10938F
:10336000C70A0093C60AF093C90AE093C80AC801C5
:103370000E944A1DC63029F41093C30A0093C20A62
:1033800008C080914D0B90914E0B9093C30A80938F
:10339000C20AC093CA0AF7012BEC3AE0D9018A2F7E
:1033A000821B8D1718F481918D93F9CF8091C20AF9
:1033B0009091C30A20914B0B30914C0B82179307CD
:1033C000A1F0019691F0D25FD093BC0AC650C230F2
:1033D00018F087E090E002C080E090E063E779E1D8
:1033E0000E94671E81E08093550BDF91CF911F9162
:1033F0000F91FF90EF90089521E00C94791980913E
:10340000480A8F77833029F128F4813041F08230E7
:10341000D1F00895843019F1863019F008950C9494
:10342000B3218091490A90914A0A4091420A5091F1
:10343000430A20914D0B30914E0B42175307A9F4CC
:1034400099270C9442198091460A9091470A0C944E
:1034500051218091460A9091470A0C945521809100
:10346000490A90914A0A0C94261908950F931F93C4
:10347000CF93DF93CDB7DEB760970FB6F894DEBF7A
:103480000FBECDBF81E698E89A8389830EE31BE0E7
:10349000F801828591E0980F92878B8383859485CC
:1034A0009D838C8385859685998788879D878C8762
:1034B0008091A9069091AA069B878A878091A7068A
:1034C0008E870E943C148F870E944514888BF801D8
:1034D000878590899F838E83BE016F5F7F4F80E1D8
:1034E0000E94311660960FB6F894DEBF0FBECDBFB6
:1034F000DF91CF911F910F91089520914B0B309147
:103500004C0B6217730791F09091460B992371F061
:103510007093AA066093A90690E09093A806809302
:10352000A7060E94361A81E08093550B08952091DA
:10353000570B9091580B81E0291301C080E008954A
:10354000CF93DF93EC014091570B242F30E0E091B3
:10355000580BC90101966EE170E00E94142D6E2F88
:1035600070E086179707A9F0F901EE0FFF1F2E0FE5
:103570003F1FF901E95AF44F88819981AA8182831A
:103580009383A48381E0840F8E3108F080E08093E0
:10359000570BDF91CF910895CF93DF931F92CDB753
:1035A000DEB78091580B8983898190E09C01220FBE
:1035B000331F820F931F875A944F29812F5F2983CE
:1035C00029812E3108F0198229812093580B0F9000
:1035D000DF91CF910895CF93C1E00E94971A88237D
:1035E00009F481C00E94CC1ADC01EC914E2F50E00E
:1035F000FA017097EA30F10580F7E057FF4F0C941D
:103600004A2D8091460B8111E8CF0E94751DE5CFB0
:10361000DC011196ED91FC9112970995DECF809116
:10362000460B8823D1F28BE39AE00E944319209144
:10363000440A3091450A80914B0B90914C0B28170E
:10364000390719F40E94FF19C8CF0E94F11CC5CF99
:103650008091460B882309F268E479E181E090E0EB
:103660000E94671EBACF8091460B882309F4B5CF1C
:103670000E94501CB2CF80913C0A8C38D9F48091C2
:103680003B0A8336B9F4C093460B8091480A909167
:10369000490A90934E0B80934D0B80914B0A909169
:1036A0004C0A90934C0B80934B0B0E9474160E9413
:1036B000771893CF8091460B882309F48ECF0E9410
:1036C000C11B8BCF8091460B882309F486CF0E94C3
:1036D000751B83CF0E946B2180CF0E946C217DCF10
:1036E0000E945D217ACFCF91089580913A0A92E8A5
:1036F000EAE3FAE0ACEBBAE001900D929A95E1F7BB
:103700009091460B9923E1F18C508695E82FF0E0DB
:10371000EE0FFF1FEB53F54F208131813093500B9B
:1037200020934F0B823060F1815023E638E83093CC
:10373000BE0A2093BD0A9091480B21E0290F2093E7
:10374000480B9093BF0A90E0FC01EE0FFF1FE95376
:10375000F54F208131813093C30A2093C20A209112
:103760004B0B30914C0B3093C50A2093C40A9BEB52
:103770009093C60A8B5F6DEB7AE0880F0C9431163C
:1037800008958091460B882309F489C02091450A49
:103790003091460A80914B0B90914C0B28173907BA
:1037A00009F04BC083E69CE89093BD0A8093BC0A65
:1037B0008091480B91E0980F9093480B8093BE0A3C
:1037C0008091490B90914A0B9093C00A8093BF0A55
:1037D0008091470A8093C10A8091480A8093C20A67
:1037E0008091490A8093C30A80914A0A8093C40A4F
:1037F00080914B0A8093C50A80914C0A8093C60A37
:1038000080914D0A8093C70A80914E0A8093C80A1E
:103810003093CA0A2093C90A82E08093CB0A809130
:103820004F0A9091500A9093CD0A8093CC0A0E943F
:10383000E5186CEB7AE082E130C022E8EAE3FAE0D6
:10384000ACEBBAE001900D922A95E1F72091480B7C
:1038500031E0320F3093480B2093BF0A20914F0B79
:103860003091500B3093C30A2093C20A9093C50A3B
:103870008093C40A8091C70A9091C80A0E94D31805
:10388000882341F08091C70A9091C80A9093C30A97
:103890008093C20A6DEB7AE086E10C9431160895AC
:1038A000CF93DF93CDB7DEB765970FB6F894DEBF41
:1038B0000FBECDBFA0913C0A8091480BE091490B0F
:1038C000F0914A0B60914D0B70914E0B40914B0B58
:1038D00050914C0B3091470A2091480A9091490A27
:1038E000A83C81F5A3E6B8E8BA83A983A1E0A80FB4
:1038F000A093480B8B83FD83EC837F836E83598772
:10390000488781E08A8740914B0A50914C0A5C8736
:103910004B878091420A8D878091430A8E878091E0
:10392000440A8F878091450A888B8091460A898B4B
:103930003A8B2B8B9C8B80914D0A8D8BBE016F5FD8
:103940007F4F43C0A3E6B8E8B093BD0AA093BC0A7A
:10395000A1E0A80FA093480B8093BE0AF093C00A81
:10396000E093BF0A7093C20A6093C10A5093C40ADD
:103970004093C30A81E08093C50A4091450A509163
:10398000460A5093C70A4093C60A3093C80A209348
:10399000C90A9093CA0A80914A0A8093CB0A8091FF
:1039A0004B0A8093CC0A80914C0A8093CD0A809177
:1039B0004D0A8093CE0A80914E0A8093CF0A80915F
:1039C0004F0A8093D00A6CEB7AE085E10E943116B1
:1039D00065960FB6F894DEBF0FBECDBFDF91CF91D5
:1039E000089582E8EAE3FAE0ACEBBAE001900D92C8
:1039F0008A95E1F7A09A68E271E28AE090E00E947D
:103A0000671E8091C60A9091C70A0E94D3189091B0
:103A1000480B20914B0B30914C0B882359F081E0DF
:103A2000890F8093480B9093BF0A8091C60A9091AA
:103A3000C70A15C040914D0B50914E0B6091C40ABE
:103A40007091C50A81E0890F8093480B9093BF0A5B
:103A50006417750749F480914F0B9091500B909328
:103A6000C30A8093C20A04C05093C30A4093C20A97
:103A70003093C50A2093C40A8091C20A9091C30A68
:103A8000019639F08091BC0A6DEB7AE082500C947B
:103A90003116089580E00895CF93DF93EAE3FAE0CA
:103AA0002091BA0AC3EBDBE08181928184E0989F88
:103AB000812D992711248883848195819A83898314
:103AC000868197819C838B83838589878091520B24
:103AD00081508D831E822A870E943C148B87DF9140
:103AE000CF9108958091AB060895CF938091BA0A43
:103AF0004091420A5091430A9091AB06992361F19B
:103B00009091440A963041F52091BA0B3091BB0B4D
:103B10005093BB0B4093BA0B9091BB0B97FF05C022
:103B20003093BB0B2093BA0B17C09091BD0B981725
:103B300018F4CF910C944C1D98130EC09091BC0BAF
:103B40008091450A8917A8F3981306C0C091BE0B4F
:103B50000E943C14C81768F3CF910895CF93C1E039
:103B60008091B80B8F3F11F4C0E01BC08091B40B63
:103B70009091B50B90934A0B8093490B2091B60B13
:103B80003091B70B30934E0B20934D0B0E946F1664
:103B90008091B80B0E9473189091BC0B9F5F90931B
:103BA000510B8C2FCF910C94F2218091520B8F3FAF
:103BB000B1F491E09093AB0696E1E3EBFBE0DF011B
:103BC0001D929A95E9F78093B80B8BE08093520B86
:103BD00080911B028038A9F08093520B12C08B3168
:103BE00048F490E020911B0230E02F5F3F4F821796
:103BF000930739F41092AB068FEF8093520B0C941D
:103C0000AE1D8091520B0E94731883E098E0909350
:103C1000BE0A8093BD0A8091470B91E0980F909364
:103C2000470B8093BF0A8FEF9FEF9093C10A809359
:103C3000C00A9093C30A8093C20A87E08093C40AA3
:103C40006DEB7AE088E00E9431168091520B8F5F15
:103C50008093520B65ED7DE184E190E00C94671E4A
:103C600008958091AC068F5F09F481E020E030E098
:103C700091E0F901EC5EF84F4281481301C090E0F9
:103C80002B5F3F4F24363105A1F720E030E0F901EA
:103C9000E055F94F4281481301C090E02B5F3F4F40
:103CA00024363105A1F79923F1F28093AC060895EB
:103CB0008091AF0681110AC0109295001092940075
:103CC00082E08093710081E08093AF0608950F93A6
:103CD0001F93CF93DF931F92CDB7DEB7009719F4F0
:103CE000FB01099512C02FB72983F894A4E1B7E02E
:103CF00020E030E04D915C911197452B41F02F5F12
:103D00003F4F159624313105A9F780E023C045E0E7
:103D1000429FD001439FB00D1124AC5EB84F009775
:103D200011F481E090E08D939C9385E0829F800167
:103D3000839F100D11240C5E184FF8017483638368
:103D40000E94311EF80182830E94581E89818FBF14
:103D5000F80182810F90DF91CF911F910F9108950B
:103D60000F931F93CF93DF931F92CDB7DEB70097CA
:103D700019F4FB0109950FC0A0EBB6E020E030E09C
:103D80004D915C911197452B41F02F5F3F4F159658
:103D900024313105A9F780E01AC045E0429F800137
:103DA000439F100D11240055194FF8019183808312
:103DB000748363830E94311EF80182838FB78983E5
:103DC000F8940E94581E89818FBFF80182810F905C
:103DD000DF91CF911F910F910895E6E1F7E020E088
:103DE00030E09081981309C085E0829FF001839FA5
:103DF000F00D1124EC5EF84F15C02F5F3F4F359644
:103E00002431310571F7E2EBF6E020E030E09081FB
:103E100098130CC085E0829FF001839FF00D112460
:103E2000E055F94F11821082128208952F5F3F4FA3
:103E300035962431310559F70895E1E9F0E08081A4
:103E40008A60808380ED97E090939900809398003A
:103E500080919400909195000C94ED2E1F920F92FA
:103E60000FB60F9211240BB60F92FF920F931F9370
:103E70002F933F934F935F936F937F938F939F9372
:103E8000AF93BF93EF93FF93CF93DF9300D01F9235
:103E9000CDB7DEB78091AD069091AE0601969093B6
:103EA000AE068093AD0680911C0290911D02019791
:103EB00049F090931D0280931C0204E117E096E103
:103EC000F92E24C084EF91E090931D0280931C0290
:103ED00000EB16E086E1F82EF801808191810097D1
:103EE00071F0019791838083892B49F4F982838152
:103EF00094819B838A83CE0101960E94A01A0B5F56
:103F00001F4FF7E004311F0739F7D7CFF801808141
:103F10009181009771F0019791838083892B49F4F7
:103F2000F982838194819B838A83CE0101960E94CA
:103F3000A01A0B5F1F4FF7E008371F0739F70F90E4
:103F40000F900F90DF91CF91FF91EF91BF91AF91C3
:103F50009F918F917F916F915F914F913F912F91A1
:103F60001F910F91FF900F900BBE0F900FBE0F90FF
:103F70001F9018951F920F920FB60F9211248F93D6
:103F800082E0809379078F910F900FBE0F901F9062
:103F900018951F920F920FB60F9211248F9381E004
:103FA000809378078F910F900FBE0F901F901895F8
:103FB00081E080930E0A089582E085BB80936E00B5
:103FC00016BC1092CD0B089515BC08958EE487BDE4
:103FD00082E084BD85E085BD08951F920F920FB6E3
:103FE0000F9211248F938091CD0B8F5F8093CD0B17
:103FF0008F910F900FBE0F901F901895EAECF9E08B
:1040000099E19083148284E6858313A694A715A66C
:1040100086A717A680AB91E091AB12AA82E083AB92
:1040200083E084AB2FE025AB2CE326AB17AA90AF3F
:1040300081AF89E082AF0895FC019181DF01A90F72
:10404000B11D12962C918081981731F09F5F97FDDA
:1040500090E09183822F08958FEF0895EEE7F7E0C7
:10406000118210820895EEE7F7E011821082E0E0FD
:10407000F8E01182108228E92093C90026E02093FD
:10408000CA001092CD0027E62093CC0090937D07C4
:1040900080937C07089590917A0791112AC07894B3
:1040A000909100089F5F97FD90E030917B072091F1
:1040B0000108921303C03323D1F308C0E091000834
:1040C000F0E0E050F84F8283909300088091C9009F
:1040D00085FD0FC08091C80085FFFCCF80E098E08F
:1040E0000E941C208093CE008091C9008062809342
:1040F000C900089580917E0790E020917F07821B80
:10410000910997FF02C080589F4F089580917E07C4
:1041100090E020917F07821B910997FF02C0805891
:104120009F4F882399F38EE797E00C941C201F92F1
:104130000F920FB60F9211240BB60F922F933F934D
:104140004F935F936F937F938F939F93AF93BF939F
:10415000EF93FF938091CE0091E090937B07909135
:104160007E079F5F97FD90E020917F07921741F0B7
:10417000E0917E07F0E0E258F84F828390937E074B
:1041800010927B07E0917C07F0917D07309709F052
:104190000995FF91EF91BF91AF919F918F917F9181
:1041A0006F915F914F913F912F910F900BBE0F90A8
:1041B0000FBE0F901F9018951F920F920FB60F927F
:1041C00011240BB60F922F933F934F935F936F93EE
:1041D0007F938F939F93AF93BF93EF93FF939091B0
:1041E000000880910108981739F080E098E00E945B
:1041F0001C208093CE0005C08091C9008F7D8093E4
:10420000C900FF91EF91BF91AF919F918F917F91E5
:104210006F915F914F913F912F910F900BBE0F9037
:104220000FBE0F901F901895982F80ED890F8A3040
:1042300070F08FEB890F863010F489EC05C08FE9A0
:10424000890F863018F489EA890F089580E008956F
:10425000A0980895A198089581E080938508089515
:1042600081E080938708E3E9F8E080818F7B808399
:10427000089581E080938608089581E0809320026C
:10428000089581E08093960808958FEF0E94F817B3
:104290000C94D51DE3EBFBE06581838194810C9444
:1042A0008118BC0183E00C947D1A0E943C14882381
:1042B00019F081E08093460B08952091530B3091C3
:1042C000540B80914D0B90914E0B2817390711F428
:1042D0001092840808950895CF930E94721D811151
:1042E00040C020914D0B30914E0BC1E08091530B9B
:1042F0009091540B8217930711F0C0E005C040E085
:1043000050E060E00E94FC19809184088F5F8093E8
:104310008408833030F1CC23A9F01092460B88E05A
:104320000E948416282F30E02E5C3F4F4EE1429FC2
:10433000C001439F900D112465E471E288519C4FA8
:104340000E94671E8091530B9091540B0E94D318CA
:10435000882339F08091530B9091540BCF910C949A
:104360002619CF91089580913A0A1092A3098823C3
:1043700011F18091480A8F778130E9F48091490AE0
:104380008093830890E8E0E4FCE0DF011D929A95B9
:10439000E9F7AAE4BAE09F019E2F921B981718F440
:1043A0009D919193F9CF80E49CE00E945903809302
:1043B0009508109292080895A19A6AE271E28AE043
:1043C00090E00C94671E811107C0A19A6AE271E225
:1043D0008AE090E00C94671E84E690E00E9423142B
:1043E0000C944521882329F06AE471E28EE190E083
:1043F00004C065E471E288EE93E00C94671E8F922E
:104400009F92AF92BF92CF92DF92EF92FF920F9363
:104410001F93CF93DF93CDB7DEB762970FB6F894B3
:10442000DEBF0FBECDBF87E0898BAE01475F5F4F18
:1044300068E080E090E00E94CE1789849A84AB8483
:10444000BC84CD84DE84EF84F8885FEF8516950602
:10445000A506B50609F070C09401A501B601C70113
:1044600000E20E94552D69017A012F3F3F4F4F4FC7
:104470005F4F610571058105910509F050C08E01FE
:104480000F5F1F4F88E0F80111928A95E9F780E0ED
:104490000E94B81486E00E941215780130E0DD24F5
:1044A000DA94343018F4F701D0821AC03A8B0E94A3
:1044B00090148F7E3A89863099F444E02091460129
:1044C000F7019081F4E09F9FC0011124922F907614
:1044D000929596959770892BF7018083415071F7DB
:1044E0003F5FFFEFEF1AFF0A3830D9F6A80168E006
:1044F00080E090E00E94E317AE014F5E5F4F62E004
:1045000082E290E00E94E31760E08CE690E00E9477
:10451000663460E087E790E00E9466340DC0CD28E5
:10452000CE28CF2849F0AE014F5E5F4F62E082E2B5
:1045300090E00E94E317000062960FB6F894DEBF89
:104540000FBECDBFDF91CF911F910F91FF90EF90E4
:10455000DF90CF90BF90AF909F908F9008950F9372
:104560001F93CF93DF931F92CDB7DEB783B38760DE
:1045700083BB84B3887F84BB84B3876084BB6B9A1E
:10458000739884B3887F84BBA09A83E18093950855
:1045900068E271E289E190E00E94671E81E0809309
:1045A00096080E94FF210E94460668ED7FE180E1A7
:1045B00097E20E94671E082F10E090910E0A911159
:1045C0001EC090919608913051F40E94950C61E4C0
:1045D00071E28CE291E00E94671E182FEECF9230BC
:1045E00039F4802F0E94ED1E812F0E94ED1E07C01E
:1045F0000E94971A882309F30E94EB1ADECF61E428
:1046000071E28CE291E00E94671EAE014F5F5F4F46
:1046100061E08EE190E00E94CE1789819091100AAE
:104620008F3F79F4992369F040E15AE061E08EE12F
:1046300090E00E94E31741E15AE061E08FE190E0F1
:104640001AC09817D1F040E15AE061E08EE190E0A5
:104650000E94E31741E15AE061E08FE190E00E949F
:10466000E3178091930882608093930843E958E0B0
:1046700061E082E290E00E94E3170E944521809170
:104680009608823069F40E9444068091930881FD67
:1046900007C00E94AF0C10920F0A82E00E94680CC3
:1046A00000000F90DF91CF911F910F910895EF922D
:1046B000FF920F931F93CF93DF937A01FB01019039
:1046C0000020E9F73197EF01C61BD70B0E94893113
:1046D0000097C1F08C010C0F111DB701C8010E9499
:1046E0008931009779F0EC01C01BD10BAE01B80104
:1046F00084ED9BE00E944B31CC52D44F188284ED64
:104700009BE002C080E090E0DF91CF911F910F917C
:10471000FF90EF9008950E948D0C61E471E28CE2AD
:1047200091E00C94671E7F928F929F92AF92BF92FE
:10473000CF92DF92EF92FF920F931F93CF93DF936D
:104740007C01762E4A01EC0109900020E9F72197BF
:10475000C81BD90BFA0101900020E9F731978F01AE
:10476000041B150BC62ED12CCC15DD0520F5C6017A
:1047700001960E94712D5C01872D90E0C817D90722
:1047800048F4A801B401C5010E946F317A94A00ECB
:10479000B11EF2CFAE01B701C5010E946F31CA0D43
:1047A000DB1D1882CC19DD09A601BE01C7010E94DC
:1047B0006F31CE0102C080E090E0DF91CF911F9178
:1047C0000F91FF90EF90DF90CF90BF90AF909F90B0
:1047D0008F907F900895BF92CF92DF92EF92FF92D9
:1047E0000F931F93CF93DF93CDB7DEB7AB970FB681
:1047F000F894DEBF0FBECDBF1092A309809196083A
:10480000813041F50E948B2380919608823011F50A
:104810008FE19EE40197F1F700C0000080919308BA
:1048200081FF02C082E014C09091460B911102C03A
:1048300083FF02C084FF02C083E00AC086FF0AC073
:1048400080919508873019F087E08093950884E07F
:104850000E941C062091460B211104C080919308F0
:1048600083FF10C3E09195088E2F90E0FC013197F3
:10487000E832F10508F006C3E656FF4F0C944A2DC6
:104880008091930883FF04C081FD02C081E0F5C2DE
:1048900081FB992790F981FD02C080FF0BC0209118
:1048A000100A222329F081E0809320028AE0E5C2E9
:1048B0009111E8C282FFEACF109285080E94BB02E4
:1048C00080E8E0E4FCE0DF011D928A95E9F76CE204
:1048D00071E28CE390E00E94B01E84E1CEC20E949F
:1048E000890C882309F4C6C280E1C7C280911E02E8
:1048F00090911F028035910530F4019690931F022C
:1049000080931E0205C0909A10921F0210921E0200
:10491000BE016F5F7F4F82E50E949D10892B09F0D9
:10492000B1C286E0E1E3F2E0DE015F9601900D9214
:104930008A95E1F7AE01495D5F4FBE016F5F7F4F22
:1049400080E00E944D12892B09F09CC28FA1883013
:1049500069F48093880820E0AE014F5F5F4FBE018D
:10496000615E7F4F80E60E94F81202C010928808B4
:104970008CE0809395080E94282184C28E010F5FED
:104980001F4F8AE0F80111928A95E9F7B8018091EA
:1049900088080E949A13892B09F08CC043E355E0E4
:1049A00069E0C8010E9493234AE050E060E070E0B3
:1049B000C8010E94F82E6093890870938A0880933A
:1049C0008B0890938C088091460B8823A1F11F934C
:1049D0000F9387E395E09F938F9301EE18E01F9369
:1049E0000F930E940532F80101900020E9F7BF0102
:1049F000625E78406093E0086F5F6093A30940EEC9
:104A000058E080E090E00E94FC1980E8E0E4FCE0DF
:104A1000DF011D928A95E9F787E0809395088091E0
:104A200093088064809393080F900F900F900F90DD
:104A30000F900F903AC08091930883FF33C084FD9C
:104A400031C020E030E048EC52E46091CE0B709130
:104A5000CF0B8091D00B9091D10B0E94932C0E9490
:104A6000D62B7093900860938F0881E00E94770C9A
:104A70008823D9F088E080939508109286080E94D8
:104A80008B0C882341F08091CA0969E371E290E0C0
:104A90000E94B01E0AC069E371E284EF91E00E94B7
:104AA000671E03C082E0809395081092870860E338
:104AB00071E2D6C18DE0E1C18091DF0880FFE2C1E3
:104AC0008E7F8093DF08D8C18091400C882309F441
:104AD000B8C0809193088F7B809393088DE080937A
:104AE000950863E475E080E49CE00E9489310097BA
:104AF00009F4A4C04AE050E060E070E004960E942F
:104B0000F82E6093890870938A0880938B0890939D
:104B10008C0868E475E080E49CE00E9489317C01A7
:104B20008C01075F1F4F6EE270E0C8010E94543194
:104B3000282F201BC8012BA70E9430302BA5223024
:104B400038F49F938F937F936F9382E595E008C02D
:104B5000223091F49F938F937F936F9383E595E039
:104B60009F938F931F930F930E9405320FB6F89473
:104B7000DEBF0FBECDBF05C068E575E0C8010E946D
:104B80006831D70119962C91199730E020533109DB
:104B900088EE93E0289FA001299F500D389F500D6B
:104BA00011241A962C911A9730E02053310964E6AB
:104BB000629FC001639F900D1124840F951F1C9666
:104BC0004C911C9750E0405351096AE0649F90015A
:104BD000659F300D1124820F931F1D962C91820F1B
:104BE000911DC0979093900880938F0885E00E9454
:104BF0001C06BFEFE1EEF4E0B150E040F040E1F719
:104C000000C0000081E00E94770C882309F43AC1BB
:104C100088E080939508109286080E948B0C882368
:104C200031F08091CA0969E371E290E01BC169E348
:104C300071E284EF91E00E94671E24C10E9430213E
:104C400021C180918708813011F021111BC182E0C0
:104C50000E94680C882309F415C1809193088F7B0A
:104C60008093930881E00E941C0606C18091150A7A
:104C70008654823010F48FE000C180918608813024
:104C800009F000C10E94680C8111F4C0FBC00E94B1
:104C9000BB0E882309F46AC0C0908908D0908A08A6
:104CA000E0908B08F0908C08CA86DB86EC86FD8647
:104CB00020E030E048EC52E46091CE0B7091CF0BD5
:104CC0008091D00B9091D10B0E94932C9B01AC0151
:104CD0002BA738A749A75AA70E94D62B79876887A0
:104CE00080919D0890919E089A83898380919B086A
:104CF00090919C089E838D838091A0098B838091E5
:104D0000A1098C838091460B2BA538A549A55AA5EE
:104D100081110BC08091930883FF07C081E08D8BC8
:104D2000C701B6010E94B6061EC01D8A80918F0879
:104D300090919008BC0180E090E02BA738A749A78C
:104D40005AA70E94052C2BA538A549A55AA50E9453
:104D5000F72A0E94D62B7093900860938F08CE019B
:104D600001960E94920580E18093950881E00E945F
:104D7000680C88C080912002882309F483C00E94B7
:104D80008B230E949202109220026DE371E288E769
:104D900090E068C04AE453E06EE575E080E49CE092
:104DA0000E9457237C01009709F450C0FC01019038
:104DB0000020E9F731971E2F181B42E858E061E008
:104DC00087E590E00E94CE17AE01415E5F4F609193
:104DD000820888E590E00E94CE1700E0802F880FBF
:104DE0008117C8F46701C80ED11CD6018C910E94AE
:104DF0001421B82EF60181810E941421E1E0F0E037
:104E0000EC0FFD1FE00FF11D20E1B29E800D11247B
:104E100080830F5FE3CF4091820850E0BE016F5F57
:104E20007F4FCE014F960E943E31892B49F48091ED
:104E300093088B7F8093930883E18093950806C045
:104E40008AE08093950881E0809320028091850814
:104E50008823C1F0109285080E94BB026CE271E2C7
:104E60008CE390E00E94B01E0DC010920F0A82E009
:104E70000E94680C82E001C087E28093950802C01E
:104E80000E94AF22AB960FB6F894DEBF0FBECDBF27
:104E9000DF91CF911F910F91FF90EF90DF90CF9016
:104EA000BF9008952F923F924F925F926F927F92A0
:104EB0008F929F92AF92BF92CF92DF92EF92FF922A
:104EC0000F931F93CF93DF93CDB7DEB763970FB6E2
:104ED000F894DEBF0FBECDBF6C014B012A01FC016F
:104EE00017821682838181FF43C3AE014F5F5F4FFC
:104EF0003A01F6019381F40193FD859193FF81912D
:104F00004F01882309F430C3853239F493FD85912C
:104F100093FF81914F01853239F4B60190E00E94F0
:104F2000CD3152012501E5CF10E0F12C20E02032F7
:104F3000A0F48B3269F030F4803259F0833269F496
:104F400020612CC08D3239F0803339F4216026C0C5
:104F50002260246023C0286021C027FD27C030EDD7
:104F6000380F3A3078F426FF06C0FAE01F9F300D64
:104F70001124132F13C04AE0F49E300D1124F32E98
:104F800020620CC08E3221F426FDEEC2206406C0E1
:104F90008C3611F4206802C0883641F4F40193FD88
:104FA000859193FF81914F018111C1CF9BEB980FA8
:104FB000933018F42061805E06C09BE9980F93300F
:104FC00008F071C12F7E26FF16E02F73322E853632
:104FD00019F42064322E08C0863621F4F22FF068CE
:104FE0003F2E02C01111115037FE07C01C3350F480
:104FF000EE24E394E10E27E00BC0183038F027E0F0
:1050000017E005C027E04CE3E42E02C0212FE12C7D
:10501000520144E0A40EB11CF201608171818281D1
:1050200093810E2DA3010E9452302C01098100FFB3
:1050300002C003FF07C031FC08C032FE09C030E2E5
:10504000232E07C02DE2222E04C09BE2292E01C090
:10505000212C802F8C7019F0211068C2A8C237FE55
:105060000FC0E40C04FF04C08A81813309F4EA9480
:105070001E1474F5F8E0FE1578F588E0E82E2CC0D3
:1050800036FC2AC0812F90E0841595059CF02CEF0A
:1050900042162FEF520674F0432D4068342E0AC09A
:1050A000E2E0F0E0EC0FFD1FE10FF11D80818033A5
:1050B00019F411501111F4CF37FE0EC0EE24E39411
:1050C000E10E812F90E0481659062CF4141904C003
:1050D000EE24E39401C010E037FE06C0141415045A
:1050E00034F4C201019605C085E090E002C081E081
:1050F00090E021100196112331F0212F30E02F5F35
:105100003F4F820F931F2F2D30E08217930714F427
:10511000F81A01C0F12C832D897049F4FF2039F071
:10512000B60180E290E00E94CD31FA94F7CF2220C0
:1051300029F0B601822D90E00E94CD3133FC09C0E8
:10514000FF2039F0B60180E390E00E94CD31FA945F
:10515000F7CF37FE5AC0942D852D57FE02C090E040
:1051600080E0292E382E20E030E0A2014E195109AE
:105170005D874C87A201421953095F874E87612FD3
:1051800070E044275527461B570B598B488B5FEF20
:105190002516350649F4B6018EE290E02A8B3B8B4A
:1051A0000E94CD313B892A89421453046CF04C850E
:1051B0005D854215530544F4EE85FF85E20FF31F2C
:1051C000E60DF71D818101C080E351E0251A310809
:1051D0002F5F3F4F48895989241635064CF0B60198
:1051E00090E02A8B3B8B0E94CD312A893B89CFCF1F
:1051F0002414350439F49A81963318F4953311F454
:1052000004FF81E3B60190E04BC08A81813309F04D
:105210000F7EB60190E00E94CD31111105C034FC23
:1052200018C085E690E017C0B6018EE290E00E94BB
:10523000CD3182E0EE24E394E80EF301E80FF11D96
:105240008081B60190E00E94CD3111508E2D91F7F2
:10525000E6CF85E490E0B6010E94CD3157FC05C051
:105260004114510439F404FF05C05194419451088C
:105270008DE201C08BE2B60190E00E94CD3180E367
:105280009AE0491651042CF08F5F5AE0451A5108F4
:10529000F7CFB60190E00E94CD31B601C201C096B1
:1052A0000E94CD3157C1833631F0833779F0833591
:1052B00009F058C021C05201E2E0AE0EB11CF2016B
:1052C0008081898301E010E0230114C05201F2E0E3
:1052D000AF0EB11CF2014080518026FF03C0612F48
:1052E00070E002C06FEF7FEFC2012A8B0E947E3117
:1052F0008C012A892F7715C05201F2E0AF0EB11C44
:10530000F2014080518026FF03C0612F70E002C08F
:105310006FEF7FEFC2012A8B0E9433318C012A8903
:105320002068322E23FD1AC08F2D90E00817190730
:10533000A8F4B60180E290E00E94CD31FA94F4CF57
:10534000F20137FC859137FE81912F01B60190E083
:105350000E94CD31F110FA94015011090115110587
:1053600079F7F8C0843611F0893659F5520127FFD4
:1053700009C0F4E0AF0EB11CF2016081718182813D
:1053800093810AC0F2E0AF0EB11CF201608171811D
:10539000072E000C880B990B2F76322E97FF09C031
:1053A00090958095709561957F4F8F4F9F4F2068A6
:1053B000322E2AE030E0A3010E943532E82EE618B2
:1053C0003FC0022F853721F40F7E2AE030E01DC058
:1053D000097F8F3691F018F4883559F0C5C08037B1
:1053E00019F0883711F0C0C0006104FF09C00460E3
:1053F00007C024FF08C0066006C028E030E005C0F2
:1054000020E130E002C020E132E0520107FF09C094
:10541000F4E0AF0EB11CF201608171818281938151
:1054200008C0F2E0AF0EB11CF2016081718180E032
:1054300090E0A3010E943532E82EE6180F77302E57
:1054400036FE0BC0332D3E7FE11650F434FE0AC009
:1054500032FC08C0332D3E7E05C00E2D332D03C017
:105460000E2D01C0012F34FF0CC0FE01EE0DF11D09
:105470008081803311F4397E08C032FF05C00E5F91
:1054800004C0832F867809F00F5F33FD13C030FF0F
:1054900006C01E2D0F1518F41F0D101B0F2D0F1514
:1054A00068F4B60180E290E03B8B0E94CD310F5F43
:1054B0003B89F5CF0F1510F4F01A01C0F12C34FF21
:1054C00012C0B60180E390E03B8B0E94CD313B8956
:1054D00032FF17C031FD03C088E790E002C088E5C5
:1054E00090E0B6010CC0832F867859F031FF02C0DE
:1054F0008BE201C080E237FD8DE2B60190E00E94B0
:10550000CD31E11638F4B60180E390E00E94CD3150
:105510001150F7CFEA94F301EE0DF11D8081B60131
:1055200090E00E94CD31E110F5CF14C0F4E0FF15FA
:1055300058F584E0F81A33FE1EC0211026C003FF80
:105540002AC004E811E0F32DF0713F2EF801849198
:10555000811124C0FF2009F4E5CCB60180E290E07F
:105560000E94CD31FA94F6CFF6018681978126C04C
:105570008FEF9FEF23C0B60180E290E00E94CD3113
:10558000FA94F110F8CFD9CFF12CB601822D90E02A
:105590000E94CD31D4CF08E811E0D5CF3110805230
:1055A000B60190E00E94CD310F5F1F4FCFCF23E0B7
:1055B0002F1510F483E0BECFF12CC1CF63960FB648
:1055C000F894DEBF0FBECDBFDF91CF911F910F9139
:1055D000FF90EF90DF90CF90BF90AF909F908F9013
:1055E0007F906F905F904F903F902F90089550580C
:1055F000BB27AA270E940F2B0C94592C0E944B2CDE
:1056000038F00E94522C20F039F49F3F19F426F410
:105610000C94482C0EF4E095E7FB0C94422CE92FF7
:105620000E946A2C58F3BA1762077307840795071C
:1056300020F079F4A6F50C948C2C0EF4E0950B2E4A
:10564000BA2FA02D0B01B90190010C01CA01A001D4
:105650001124FF27591B99F0593F50F4503E68F12F
:105660001A16F040A22F232F342F4427585FF3CF70
:10567000469537952795A795F0405395C9F77EF441
:105680001F16BA0B620B730B840BBAF09150A1F08A
:10569000FF0FBB1F661F771F881FC2F70EC0BA0F10
:1056A000621F731F841F48F4879577956795B79598
:1056B000F7959E3F08F0B0CF9395880F08F0992793
:1056C000EE0F9795879508950E94782B0C94592C8E
:1056D0000E94522C58F00E944B2C40F029F45F3F5E
:1056E00029F00C94422C51110C948D2C0C94482CC4
:1056F0000E946A2C68F39923B1F3552391F3951B0B
:10570000550BBB27AA2762177307840738F09F5FE2
:105710005F4F220F331F441FAA1FA9F335D00E2E4F
:105720003AF0E0E832D091505040E695001CCAF7BC
:105730002BD0FE2F29D0660F771F881FBB1F26177F
:1057400037074807AB07B0E809F0BB0B802DBF0156
:10575000FF2793585F4F3AF09E3F510578F00C9425
:10576000422C0C948D2C5F3FE4F3983ED4F3869545
:1057700077956795B795F7959F5FC9F7880F911D46
:105780009695879597F90895E1E0660F771F881F32
:10579000BB1F621773078407BA0720F0621B730BE5
:1057A000840BBA0BEE1F88F7E09508950E94722CC7
:1057B00088F09F5798F0B92F9927B751B0F0E1F0D2
:1057C000660F771F881F991F1AF0BA95C9F714C082
:1057D000B13091F00E948C2CB1E008950C948C2C87
:1057E000672F782F8827B85F39F0B93FCCF38695BB
:1057F00077956795B395D9F73EF490958095709518
:1058000061957F4F8F4F9F4F0895E89409C097FB94
:105810003EF490958095709561957F4F8F4F9F4F87
:105820009923A9F0F92F96E9BB279395F6958795CB
:1058300077956795B795F111F8CFFAF4BB0F11F48E
:1058400060FF1BC06F5F7F4F8F4F9F4F16C0882335
:1058500011F096E911C0772321F09EE8872F762F6B
:1058600005C0662371F096E8862F70E060E02AF0AC
:105870009A95660F771F881FDAF7880F9695879598
:1058800097F9089597F99F6780E870E060E00895C0
:105890009FEF80EC089500240A9416161706180648
:1058A0000906089500240A94121613061406050624
:1058B0000895092E0394000C11F4882352F0BB0FB5
:1058C00040F4BF2B11F460FF04C06F5F7F4F8F4F18
:1058D0009F4F089557FD9058440F551F59F05F3F53
:1058E00071F04795880F97FB991F61F09F3F79F002
:1058F00087950895121613061406551FF2CF469584
:10590000F1DF08C0161617061806991FF1CF869505
:105910007105610508940895E894BB2766277727E9
:10592000CB0197F908950E94A62C0C94592C0E9443
:105930004B2C38F00E94522C20F0952311F00C943F
:10594000422C0C94482C11240C948D2C0E946A2C0F
:1059500070F3959FC1F3950F50E0551F629FF001C2
:10596000729FBB27F00DB11D639FAA27F00DB11DDB
:10597000AA1F649F6627B00DA11D661F829F222764
:10598000B00DA11D621F739FB00DA11D621F839FEB
:10599000A00D611D221F749F3327A00D611D231FC1
:1059A000849F600D211D822F762F6A2F11249F570F
:1059B00050409AF0F1F088234AF0EE0FFF1FBB1F12
:1059C000661F771F881F91505040A9F79E3F5105D1
:1059D00080F00C94422C0C948D2C5F3FE4F3983EA5
:1059E000D4F3869577956795B795F795E7959F5F7B
:1059F000C1F7FE2B880F911D9695879597F908950D
:105A0000AA1BBB1B51E107C0AA1FBB1FA617B707E4
:105A100010F0A61BB70B881F991F5A95A9F7809500
:105A20009095BC01CD01089597FB072E16F40094C4
:105A300007D077FD09D00E94002D07FC05D03EF469
:105A4000909581959F4F0895709561957F4F08952A
:105A5000A1E21A2EAA1BBB1BFD010DC0AA1FBB1F72
:105A6000EE1FFF1FA217B307E407F50720F0A21BE4
:105A7000B30BE40BF50B661F771F881F991F1A9451
:105A800069F760957095809590959B01AC01BD017B
:105A9000CF010895EE0FFF1F0024001C0BBE0790DE
:105AA000F691E02D099497FB10F8169400080F93D7
:105AB000083098F00850232F342F452F562F672F8A
:105AC000782F892F902DF4CF05949795879577950A
:105AD000679557954795379527950A95AAF70F919A
