:100000000C9461010C9480010C9480010C9480018B
:100010000C9480010C9480010C9480010C9480015C
:100020000C9480010C9480010C9480010C9480014C
:100030000C9413260C9480010C9480010C94800184
:100040000C9480010C9480010C9480010C9480012C
:100050000C9480010C9437260C9480010C94800140
:100060000C9480010C9480010C9480010C9480010C
:100070000C9480010C9480010C9480010C948001FC
:100080000C9478250C9480010C9480010C94042627
:100090000C94E1260C9426270C9480010C9480018A
:1000A0000C9480010C9480010C9480010C948001CC
:1000B0000C9480010C9480010C9480010C948001BC
:1000C0000C9480010C9480010C9480010C948001AC
:1000D0000C9480010C9480010C9480010C9480019C
:1000E0000C9480010C9480010C9480010C94FE1CF3
:1000F0000C94261D0C947B1D0C9480010C944E1DB9
:100100000C9480010C9480010C9480010C9480016B
:100110000C9480010C9480010C9480010C9480015B
:10012000DF04E604B207B207B207B207D405A60699
:10013000B2072A07B2072E05A507B207B706AA0716
:10014000B207B207B0043A07B207B207B207B20764
:10015000B207AC07B207B207B207B207D405B007BF
:10016000B207B207B207B207B207B207AA07CC05B7
:100170005921BA21B721B4214B21722152217D216D
:100180008521AC216E616E00696E660000407A10B8
:10019000F35A00A0724E18090010A5D4E80000E838
:1001A0007648170000E40B54020000CA9A3B000096
:1001B00000E1F505000080969800000040420F0025
:1001C0000000A08601000000102700000000E803E6
:1001D000000000006400000000000A0000000000B1
:1001E0000100000000002C76D888DC674F0823DF70
:1001F000C1DFAE59E1B1B796E5E3E453C63AE65143
:10020000997696E8E6C28426EB898C9B62ED407C69
:100210006FFCEFBC9C9F40F2BAA56FA5F490055A05
:100220002AF75C936B6CF9676DC11BFCE0E40D472A
:10023000FEF520E6B500D0ED902E0300943577054D
:100240000080841E080000204E0A000000C80C3305
:100250003333330F986E12831141EF8D2114893B94
:10026000E65516CFFEE6DB18D1844B381BF77C1D14
:10027000901DA4BBE424203284725E228100C9F167
:1002800024ECA1E53D274E414E494E495459494E73
:1002900046CDCCCC3D0AD7233C17B7D13877CC2BF1
:1002A000329595E6241FB14F0A000020410000C896
:1002B0004200401C4620BCBE4CCA1B0E5AAEC59D17
:1002C000740011241FBEC0E0D0E4DEBFCDBF15E036
:1002D000A0E0B2E0E6E0FAE600E00BBF02C0079063
:1002E0000D92A437B107D9F72CE0A4E7B5E001C01F
:1002F0001D92A13FB207E1F70E944F1A0C940135FD
:100300000C940000A0980895A198089581E080932E
:100310007705089581E080937905E4E2F9E0808132
:100320008F7B8083089581E080937805089581E034
:1003300080930C02089581E08093EF0908958FEF78
:100340000E94421E0C941F24EAECFCE0658183812C
:1003500094810C94CB1EBC0183E00C94C7200E94B6
:10036000861A882319F081E080935D0C089520910E
:100370006A0C30916B0C8091640C9091650C28177D
:10038000390711F41092760508950895CF930E94CD
:10039000BC23811140C02091640C3091650CC1E0F8
:1003A00080916A0C90916B0C8217930711F0C0E05A
:1003B00005C040E050E060E00E9446208091760554
:1003C0008F5F80937605833030F1CC23A9F01092B3
:1003D0005D0C88E00E94CE1C282F30E02E5C3F4F41
:1003E0004EE1429FC001439F900D11246FE971E0DF
:1003F00088519C4F0E94B12480916A0C90916B0CA3
:100400000E941D1F882339F080916A0C90916B0C1B
:10041000CF910C94701FCF9108958091510B109241
:10042000320B882311F180915F0B8F778130E9F4D3
:100430008091600B8093750590E8E6E2F9E0DF01BA
:100440001D929A95E9F7A1E6BBE09F019E2F921BB2
:10045000981718F49D919193F9CF86E299E00E9444
:1004600099098093EA09109223090895A19A64E8F2
:1004700071E08AE090E00C94B124811106C0A19A49
:1004800064E871E08AE090E011C088E00E94CE1C30
:10049000282F30E02E5C3F4F4EE1429FC001439F2A
:1004A000900D11246FE971E088519C4F0C94B12498
:1004B000882329F064EA71E08EE190E00EC088E0C4
:1004C0000E94CE1C90E005966FE971E02AE0AC0135
:1004D000249FC001259F900D11240C94B1248F926C
:1004E0009F92AF92BF92CF92DF92EF92FF920F93C3
:1004F0001F93CF93DF93CDB7DEB762970FB6F89413
:10050000DEBF0FBECDBF87E0898BAE01475F5F4F77
:1005100068E080E090E00E94181E89849A84AB8491
:10052000BC84CD84DE84EF84F8885FEF8516950661
:10053000A506B50609F070C09401A501B601C70172
:1005400000E20E94752D69017A012F3F3F4F4F4F06
:100550005F4F610571058105910509F050C08E015D
:100560000F5F1F4F88E0F80111928A95E9F780E04C
:100570000E94021B86E00E945C1B780130E0DD24B3
:10058000DA94343018F4F701D0821AC03A8B0E9402
:10059000DA1A8F7E3A89863099F444E02091460138
:1005A000F7019081F4E09F9FC0011124922F907673
:1005B000929596959770892BF7018083415071F73A
:1005C0003F5FFFEFEF1AFF0A3830D9F6A80168E065
:1005D00080E090E00E942D1EAE014F5E5F4F62E012
:1005E00082E290E00E942D1E60E08CE690E00E9486
:1005F000863460E087E790E00E9486340DC0CD2805
:10060000CE28CF2849F0AE014F5E5F4F62E082E214
:1006100090E00E942D1E000062960FB6F894DEBF97
:100620000FBECDBFDF91CF911F910F91FF90EF9043
:10063000DF90CF90BF90AF909F908F9008950F93D1
:100640001F93CF93DF931F92CDB7DEB783B387603D
:1006500083BB84B3887F84BB84B3876084BB6B9A7D
:10066000739884B3887F84BBA09A83E18093EA095E
:1006700062E871E089E190E00E94B12481E080931A
:10068000EF090E946F020E949B1362E276E280E112
:1006900097E20E94B124082F10E09091EE09911189
:1006A0001EC09091EF09913051F40E9463116BE9E3
:1006B00071E08CE291E00E94B124182FEECF9230CD
:1006C00039F4802F0E943725812F0E94372507C0DB
:1006D0000E94E120882309F30E943521DECF6BE9D7
:1006E00071E08CE291E00E94B124AE014F5F5F4F58
:1006F00061E08EE190E00E94181E89819091FD0AD0
:100700008F3F79F4992369F04DEF5AE061E08EE173
:1007100090E00E942D1E4EEF5AE061E08FE190E0E4
:100720001AC09817D1F04DEF5AE061E08EE190E0E9
:100730000E942D1E4EEF5AE061E08FE190E00E9492
:100740002D1E8091240982608093240944E259E09F
:1007500061E082E290E00E942D1E0E949F01809144
:10076000EF09823069F40E94840C8091240981FD94
:1007700007C00E947D111092390A82E00E94361152
:1007800000000F90DF91CF911F910F910895EF928C
:10079000FF920F931F93CF93DF937A01FB01019098
:1007A0000020E9F73197EF01C61BD70B0E94A93152
:1007B0000097C1F08C010C0F111DB701C8010E94F8
:1007C000A931009779F0EC01C01BD10BAE01B80143
:1007D00088E898E00E946B31C857D74F188288E8A4
:1007E00098E002C080E090E0DF91CF911F910F91DF
:1007F000FF90EF9008950E945B116BE971E08CE22D
:1008000091E00C94B1247F928F929F92AF92BF920D
:10081000CF92DF92EF92FF920F931F93CF93DF93CC
:100820007C01762E4A01EC0109900020E9F721971E
:10083000C81BD90BFA0101900020E9F731978F010D
:10084000041B150BC62ED12CCC15DD0520F5C601D9
:1008500001960E94912D5C01872D90E0C817D90761
:1008600048F4A801B401C5010E948F317A94A00E0A
:10087000B11EF2CFAE01B701C5010E948F31CA0D82
:10088000DB1D1882CC19DD09A601BE01C7010E943B
:100890008F31CE0102C080E090E0DF91CF911F91B7
:1008A0000F91FF90EF90DF90CF90BF90AF909F900F
:1008B0008F907F900895BF92CF92DF92EF92FF9238
:1008C0000F931F93CF93DF93CDB7DEB7AB970FB6E0
:1008D000F894DEBF0FBECDBF1092320B8091EF09AE
:1008E000813041F50E94FB038091EF09823011F5C0
:1008F0008FE19EE40197F1F700C000008091240988
:1009000081FF02C082E014C090915D0C911102C081
:1009100083FF02C084FF02C083E00AC086FF0AC0D2
:100920008091EA09873019F087E08093EA0984E032
:100930000E945C0C20915D0C211104C0809124095F
:1009400083FF10C3E091EA098E2F90E0FC013197FC
:10095000E832F10508F006C3E057FF4F0C946A2D0A
:100960008091240983FF04C081FD02C081E0F5C2AB
:1009700081FB992790F981FD02C080FF0BC0209177
:10098000FD0A222329F081E080930C028AE0E5C26F
:100990009111E8C282FFEACF109277050E94FB080E
:1009A00080E8E6E2F9E0DF011D928A95E9F766E862
:1009B00071E08CE390E00E94FA2484E1CEC20E94B0
:1009C0005711882309F4C6C280E1C7C280910A0288
:1009D00090910B028035910530F4019690930B02B3
:1009E00080930A0205C0909A10920B0210920A029C
:1009F000BE016F5F7F4F82E50E94E816892B09F0E8
:100A0000B1C286E0E1E2F2E0DE015F9601900D9274
:100A10008A95E1F7AE01495D5F4FBE016F5F7F4F81
:100A200080E00E949818892B09F09CC28FA1883021
:100A300069F48093120920E0AE014F5F5F4FBE0161
:100A4000615E7F4F80E60E94431902C01092120936
:100A50008CE08093EA090E94820184C28E010F5FBC
:100A60001F4F8AE0F80111928A95E9F7B801809149
:100A700012090E94E519892B09F08CC04CE352E061
:100A800069E0C8010E9403044AE050E060E070E0C1
:100A9000C8010E94182F6093130970931409809362
:100AA00015099093160980915D0C8823A1F11F937D
:100AB0000F9380E492E09F938F930BE31AE01F93D0
:100AC0000F930E942532F80101900020E9F7BF0141
:100AD0006C537A4060933A0A6F5F6093320B4AE33B
:100AE0005AE080E090E00E94462080E8E6E2F9E0EB
:100AF000DF011D928A95E9F787E08093EA098091EA
:100B000024098064809324090F900F900F900F9018
:100B10000F900F903AC08091240983FF33C084FD69
:100B200031C020E030E048EC52E46091E50C709177
:100B3000E60C8091E70C9091E80C0E94B32C0E9487
:100B4000F62B70931A096093190981E00E944511F0
:100B50008823D9F088E08093EA09109278050E94F2
:100B60005911882341F08091A60963E971E090E072
:100B70000E94FA240AC063E971E084EF91E00E94C8
:100B8000B12403C082E08093EA09109279056AE8F3
:100B900071E0D6C18DE0E1C18091380A80FFE2C1E9
:100BA0008E7F8093380AD8C180912609882309F462
:100BB000B8C0809124098F7B809324098DE08093B5
:100BC000EA096CE472E086E299E00E94A93100979C
:100BD00009F4A4C04AE050E060E070E004960E948E
:100BE000182F60931309709314098093150990933B
:100BF000160961E572E086E299E00E94A9317C0164
:100C00008C01075F1F4F6EE270E0C8010E947431D3
:100C1000282F201BC8012BA70E9450302BA5223063
:100C200038F49F938F937F936F938BE592E008C086
:100C3000223091F49F938F937F936F938CE592E092
:100C40009F938F931F930F930E9425320FB6F894B2
:100C5000DEBF0FBECDBF05C061E672E0C8010E94D5
:100C60008831D70119962C91199730E0205331091A
:100C700088EE93E0289FA001299F500D389F500DCA
:100C800011241A962C911A9730E02053310964E60A
:100C9000629FC001639F900D1124840F951F1C96C5
:100CA0004C911C9750E0405351096AE0649F9001B9
:100CB000659F300D1124820F931F1D962C91820F7A
:100CC000911DC09790931A098093190985E00E949D
:100CD0005C0CBFEFE1EEF4E0B150E040F040E1F732
:100CE00000C0000081E00E944511882309F43AC148
:100CF00088E08093EA09109278050E9459118823B0
:100D000031F08091A60963E971E090E01BC163E9CD
:100D100071E084EF91E00E94B12424C10E948A0115
:100D200021C180917905813011F021111BC182E030
:100D30000E943611882309F415C1809124098F7B04
:100D40008093240981E00E945C0C06C18091020B13
:100D50008654823010F48FE000C180917805813094
:100D600009F000C10E9436118111F4C0FBC00E943D
:100D70008913882309F46AC0C0901309D09014091C
:100D8000E0901509F0901609CA86DB86EC86FD8690
:100D900020E030E048EC52E46091E50C7091E60C04
:100DA0008091E70C9091E80C0E94B32C9B01AC0160
:100DB0002BA738A749A75AA70E94F62B79876887DF
:100DC0008091F6099091F7099A8389838091F409BB
:100DD0009091F5099E838D838091FA0A8B8380918F
:100DE000FB0A8C8380915D0C2BA538A549A55AA5DB
:100DF00081110BC08091240983FF07C081E08D8B96
:100E0000C701B6010E940B141EC01D8A80911909EA
:100E100090911A09BC0180E090E02BA738A749A760
:100E20005AA70E94252C2BA538A549A55AA50E9492
:100E3000172B0E94F62B70931A0960931909CE01A3
:100E400001960E94D20B80E18093EA0981E00E9422
:100E5000361188C080910C02882309F483C00E9457
:100E6000FB030E94D20810920C0267E971E088E748
:100E700090E068C047E652E069E672E086E299E0F9
:100E80000E94C7037C01009709F450C0FC01019047
:100E90000020E9F731971E2F181B44E755E061E069
:100EA00087E590E00E94181EAE01415E5F4F6091A1
:100EB000740588E590E00E94181E00E0802F880FDE
:100EC0008117C8F46701C80ED11CD6018C910E940D
:100ED0005E27B82EF60181810E945E27E1E0F0E0F6
:100EE000EC0FFD1FE00FF11D20E1B29E800D1124DB
:100EF00080830F5FE3CF4091740550E0BE016F5FC8
:100F00007F4FCE014F960E945E31892B49F480912C
:100F100024098B7F8093240983E18093EA0906C02A
:100F20008AE08093EA0981E080930C028091770542
:100F30008823C1F0109277050E94FB0866E871E0F3
:100F40008CE390E00E94FA240DC01092390A82E0EE
:100F50000E94361182E001C087E28093EA0902C054
:100F60000E941F03AB960FB6F894DEBF0FBECDBF35
:100F7000DF91CF911F910F91FF90EF90DF90CF9075
:100F8000BF9008958091380A81608093380A08954F
:100F90009F92AF92BF92CF92DF92EF92FF920F9308
:100FA0001F93CF93DF937C016B01FC010190002024
:100FB000E9F73197EF01C81BD90B0C2F10E0101780
:100FC000A8F45701A10EB11CF50180810E945E2793
:100FD000982EF50181810E945E27F0E19F9E800D91
:100FE0001124F60181936F011E5FE9CF8C2F869546
:100FF000DF91CF911F910F91FF90EF90DF90CF90F5
:10100000BF90AF909F9008950F931F93CF93DF935E
:101010008B01EB012196833009F44EC050F58130ED
:1010200071F1823009F07FC08091FB0A1F928F938B
:101030008091FA0A1F928F938091F5098F93809186
:10104000F4098F938091F7098F938091F6098F931C
:1010500081EC92E09F938F93DF93CF930E94253290
:10106000ADB7BEB71C960FB6F894BEBF0FBEADBFEE
:101070005AC0853071F130F18630B1F154C08091A1
:10108000FB0A1F928F938091FA0A1F928F938EE72B
:1010900092E09F938F9388E892E09F938F93DF93E2
:1010A000CF930E942532ADB7BEB71A960FB6F8940B
:1010B000BEBF0FBEADBF37C068E273E0CE010E9475
:1010C000883131C08DE29AE09F938F938CE393E057
:1010D0001EC08AEF99E09F938F9386E593E09F93DC
:1010E0008F93DF93CF9317C049EF59E061E080E021
:1010F00091E00E94181E8091F9098F3F11F410921F
:10110000F9098091F9091F928F9386E793E09F93E5
:101110008F93DF93CF930E9425320F900F900F9003
:101120000F900F900F90FE0101900020E9F7EC1B4B
:10113000D801EC938E2F8095881F8827881FDF9118
:10114000CF911F910F9108951F93CF93DF93CDB748
:10115000DEB7C058D1090FB6F894DEBF0FBECDBFC1
:10116000BE016F5F7F4F80E8FB0111928A95E9F71E
:1011700081E00E940408182F882341F0AE014E5FE1
:101180005F4F698180E090E00E944620812FC05827
:10119000DF4F0FB6F894DEBF0FBECDBFDF91CF910A
:1011A0001F910895CF93DF93CDB7DEB7C058D10913
:1011B0000FB6F894DEBF0FBECDBFBE016F5F7F4F8D
:1011C00080E8FB0111928A95E9F782E00E94040809
:1011D000AE014E5F5F4F698180E090E00E94462043
:1011E00081E0C058DF4F0FB6F894DEBF0FBECDBF11
:1011F000DF91CF910895CF93DF93CDB7DEB7699795
:101200000FB6F894DEBF0FBECDBFBE016F5F7F4F3C
:1012100089E1FB0111928A95E9F783E00E940408B5
:10122000AE014E5F5F4F698180E090E00E944620F2
:1012300081E069960FB6F894DEBF0FBECDBFDF9197
:10124000CF910895CF93DF93CDB7DEB7A3970FB6B5
:10125000F894DEBF0FBECDBFBE016F5F7F4F83E24C
:10126000FB0111928A95E9F784E00E940408AE011F
:101270004E5F5F4F698180E090E00E94462081E0F0
:10128000A3960FB6F894DEBF0FBECDBFDF91CF910E
:101290000895CF93DF93CDB7DEB7C555D1090FB60B
:1012A000F894DEBF0FBECDBFBE016F5F7F4F85E5F7
:1012B000FB0111928A95E9F785E00E940408AE01CE
:1012C0004E5F5F4F698180E090E00E94462081E0A0
:1012D000CB5ADF4F0FB6F894DEBF0FBECDBFDF9104
:1012E000CF910895CF93DF93CDB7DEB7A3970FB615
:1012F000F894DEBF0FBECDBFBE016F5F7F4F83E2AC
:10130000FB0111928A95E9F786E00E940408AE017C
:101310004E5F5F4F698180E090E00E94462081E04F
:10132000A3960FB6F894DEBF0FBECDBFDF91CF916D
:1013300008958F929F92AF92BF92CF92DF92FF92C9
:101340000F931F93CF93DF93CDB7DEB7CD54D10961
:101350000FB6F894DEBF0FBECDBF2E969FAF8EAFF7
:101360002E976E0183E4C80ED11C88E0F601982FF9
:1013700011929A95E9F75E01EBE3AE0EB11CF5010F
:1013800011928A95E9F7CE0101964C0182E3F401AE
:1013900011928A95E9F72C961FAE2C97F090EA09E6
:1013A0002E960EAD1FAD2E9764E873E0C8010E9423
:1013B000A931892B09F49AC047E652E061E973E04C
:1013C000C8010E94C703009729F1B4010E94C80711
:1013D0008BAB6FEF680FA40184E290E00E942D1E9A
:1013E0008BA9FE01E80FF11D80818093F80948EF79
:1013F00059E061E081E690E00E942D1E8091240971
:101400008D7F8093240944E259E061E082E290E01C
:101410000E942D1E47E652E06FE973E02E968EADD6
:101420009FAD2E970E94C703009791F0B4010E94D0
:10143000C8078BABAE014D5C5F4F61E087E590E084
:101440000E942D1EA4016BA988E590E00E942D1E2C
:1014500047E652E060EB73E02E968EAD9FAD2E977F
:101460000E94C703009781F10E9454302C963FAD33
:101470002C9720E00097C9F0E32FF0E0EC0DFD1D64
:10148000213029F0282F2F70208321E008C04081CF
:10149000282F2295207F242B20833F5F20E064E0CB
:1014A000969587956A95E1F7E5CF2C963FAF2C97F7
:1014B000A60168E080E090E00E942D1EA50168E092
:1014C00080E090E00E94181EB501C6010E947F31A5
:1014D000892B09F053C1809124098E7F80932409C0
:1014E00044E259E061E082E290E030C06BEB73E0EF
:1014F000C8010E94A931892B09F038C168EC73E05A
:10150000C8010E94A931892B09F033C16BED73E04A
:10151000C8010E94A931892B19F00E94A4082EC18C
:101520006EEE73E0C8010E94A931892BA1F088E01A
:10153000E7E2F2E0DE01D39601900D928A95E1F7A1
:10154000AE014D5C5F4F68E080E090E00E942D1E90
:1015500050E2F52E13C16AEF73E0C8010E94A93171
:10156000892B09F43BC049E65CE061E082EF9FE033
:101570000E942D1E40E65CE062E084EF9FE00E9446
:101580002D1E42E65CE062E086EF9FE00E942D1E89
:1015900081E02C968FAF2C97AE01455B5F4F61E0E9
:1015A00080EF9FE00E942D1E2E96EEADFFAD2E9790
:1015B00011821082AE01445B5F4F66E08AEF9FE0CC
:1015C0000E942D1EF8949FE088E10FB6F894A8952C
:1015D000809360000FBE90936000FFCF6AE074E0DC
:1015E000C8010E94A931892B51F147E652E06FE012
:1015F00074E0C8010E94C703009709F4BFC0FC0152
:1016000001900020E9F731978F01081B190B0BABF4
:10161000033308F0B3C0BC018AEF99E00E9488311F
:1016200061E0600F6BAB4AEF59E087E790E00E9402
:101630002D1E809124098F77809324093AC066E19A
:1016400074E0C8010E94A931892B19F00E94490950
:1016500095C06BE174E0C8010E94A931892B89F122
:1016600047E652E06BE274E0C8010E94C7030097AE
:1016700009F484C0FC0101900020E9F731978F0143
:10168000081B190B0BAB0B3008F078C0BC018DE2C6
:101690009AE00E94883161E0600F6BAB4DE25AE046
:1016A0008CE690E00E942D1E809125098E7F80930C
:1016B000250944E259E061E082E290E00E942D1E9B
:1016C0005DC06DE374E0C8010E94A931892B19F057
:1016D0000E94220953C06DE474E0C8010E94A93140
:1016E000892B69F00E94720962EC77E08CE390E04C
:1016F0000E94FA2480937A0548E2F42E3FC064E504
:1017000074E0C8010E94A931892BB1F560E674E04C
:10171000C8010E94A931892B89F11BAA47E652E032
:101720006AE674E0C8010E94C703009739F1BE0160
:101730006D5C7F4F0E94C8078BA98630F9F4F8E2F0
:10174000FF121CC080917A050E9437250E94B714B1
:10175000882349F062EC77E08CE390E00E94FA2461
:1017600080937A050BC037E2F32E08C02AE0F22EF0
:1017700005C094E1F92E02C08FE1F82E8F2DC35BD6
:10178000DF4F0FB6F894DEBF0FBECDBFDF91CF9114
:101790001F910F91FF90DF90CF90BF90AF909F90DF
:1017A0008F900895EF92FF920F931F93CF93DF9343
:1017B000CDB7DEB7CA58D1090FB6F894DEBF0FBE59
:1017C000CDBF8C017E0181E8E80EF11C8AE0D701D3
:1017D0001D928A95E9F7FE01319680E8DF011D929E
:1017E0008A95E9F7F80161857285838594852AE0F9
:1017F000A7010E94CB31D80154968C9154971F9227
:101800008F9313968C9113971F928F9312968C91AE
:1018100012971F928F9315968C9115978F9314960C
:101820008C9114978F9311968C9111978F938C9123
:101830008F9317966D917C91189780E090E00E94AD
:10184000252C20E030E048EC52E40E94842B9F934A
:101850008F937F936F93FF92EF9286E794E09F932D
:101860008F938E010E5F1F4F1F930F930E9425329F
:10187000F80101900020E9F76E2F601B69830FB615
:10188000F894DEBF0FBECDBF67FD07C0A80180E0A2
:1018900090E00E94462081E001C080E0C657DF4F03
:1018A0000FB6F894DEBF0FBECDBFDF91CF911F9171
:1018B0000F91FF90EF9008950F93813019F40F91DD
:1018C0000C940A11823029F405E020E04CE76AED1F
:1018D00016C0843031F405E02CED4AED6CE788EF5A
:1018E0000FC0833031F405E020E040EA62EF8AED7A
:1018F00007C0853039F400E020E040E060E080E09F
:101900000E94CA100F9108950C94F2100F931F9328
:10191000CF93DF93CDB7DEB7E2970FB6F894DEBF73
:101920000FBECDBFAE014F5F5F4F82E3FA01119250
:101930008A95E9F78091FA0A9FED980F923018F096
:10194000843209F0D1C060E184E290E00E94181E68
:101950000A811B81602F70E0762F6627610F711D51
:10196000072E000C880B990B0E94272C20E030E0FA
:1019700048EC52E40E94842B6093E50C7093E60CD3
:101980008093E70C9093E80C89818093A6090093DB
:10199000AA091093AB091092D10939E13093D20909
:1019A0001092D30984E68093D4099C859093D5093D
:1019B0009D859093D6099E859093D7099F85909396
:1019C000D80928892093D9092C812093E1092D81F8
:1019D0002093E2092091FB0A223009F002C1109203
:1019E000AC098093AD091092AE098093AF091092B3
:1019F000B0098093B1091092B2098093B309109293
:101A0000B4098093B5091092B6098093B709109272
:101A1000B8098093B9091092BA098093BB098091E3
:101A2000FA0A813259F51092BC093093BD0981E060
:101A30008093BE098AE08093C0091092C109109278
:101A4000BF098093C50924E02093C6091092C709F5
:101A500037E03093C8098093C9092093CA091092CE
:101A6000CB0936E03093CC098093CD092093CE0981
:101A70001092CF0985E08093D0092AC0823289F480
:101A80001092BC0982E38093BD091092C209309381
:101A9000C3092093C40983E08093BE092093E90918
:101AA00017C08432A9F41092BC0982E38093BD0967
:101AB0001092C2093093C3092093C40983E0809334
:101AC000BE092093C50984E08093C6091092C70916
:101AD00093FF04C08DE18093E70902C01092E709EB
:101AE00090729093E8097DC08852823008F079C0E6
:101AF00062E184E290E00E94181E0A811B81602F3F
:101B000070E0762F6627610F711D072E000C880B81
:101B1000990B0E94272C20E030E048EC52E40E9410
:101B2000842B6093E50C7093E60C8093E70C909304
:101B3000E80C89818093A6090093AA091093AB0948
:101B40002E812093D1099F819093D2092093D309AC
:101B50009093D40988858093D50989858093D60987
:101B60008A858093D7098B858093D8093C853093EB
:101B7000D9093D853093DA093E853093DB093093EE
:101B8000DC093F853093DD0938893093DE093989D6
:101B90003093DF093A893093E0093C813093E109C1
:101BA0003D813093E2093091FB0A3230D1F4009349
:101BB000AC091093AD092093AE099093AF099091B1
:101BC000E409992319F091E09093E30983FF04C09D
:101BD0009DE19093E70902C01092E709807280931B
:101BE000E809E2960FB6F894DEBF0FBECDBFDF91D5
:101BF000CF911F910F910895AF92BF92CF92DF9234
:101C0000EF92FF920F931F93CF93DF938C0198E095
:101C1000F92EC02E0E947826F801D080D39482E05D
:101C20000E949526C02FD12F82E0E82E8C2F8C1990
:101C30008D1540F45E0189910E949526F501808101
:101C4000E826F4CF8E2D0E9495261092E40C78940D
:101C50000E9430268091E40C863420F40E94C42631
:101C6000882339F00E942E268091E40C863440F0BF
:101C70000DC00E94E120882369F30E943521EACF3C
:101C80000E94D026863069F0893049F08FED9EE2BF
:101C90000197F1F700C00000FA94F110BBCF80E08B
:101CA00001C081E0DF91CF911F910F91FF90EF90E4
:101CB000DF90CF90BF90AF900895CF93DF93CDB7D3
:101CC000DEB728970FB6F894DEBF0FBECDBF909158
:101CD000FE0A8091010B9230F9F497E0998398E124
:101CE0009A8381110AC08091250981FF06C08091E5
:101CF000E1098B838091E20905C08091AA098B8359
:101D00008091AB098C831D821E828091E4098F83B0
:101D10008091E509888719C094E0998392E19A83BC
:101D200081110AC08091250981FF06C08091E109D7
:101D30008B838091E20905C08091AA098B838091F1
:101D4000AB098C838091E6098D83CE0101960E94B8
:101D5000FC0D28960FB6F894DEBF0FBECDBFDF9105
:101D6000CF910895DF92EF92FF920F931F93CF933D
:101D7000DF937C010E94D026C82F823009F50E9493
:101D8000D026D82FF70180818D17D0F0CD27DE2CFB
:101D90008701802F8D198D1738F40E94D026F80105
:101DA00081938F01C827F5CF0E94D026C81305C0A4
:101DB00086E00E94952681E004C085E10E94952678
:101DC00080E0DF91CF911F910F91FF90EF90DF9016
:101DD0000895CF93DF93CDB7DEB762970FB6F8942F
:101DE000DEBF0FBECDBF8091FE0A8230C1F522E179
:101DF000CE010196FC01322F11923A95E9F7298321
:101E00000E94B20E882309F456C09981973109F0D7
:101E100052C09A81905E9093FD0A9C819093010B31
:101E20009D819093020B9E819093030B9F819093D1
:101E3000040B9A859093050B9B859093060B9E85CA
:101E40009093FF0A9F859093000B98899093070BBE
:101E500099899093080B9A899093090B2DC0813032
:101E600051F52BE0CE010196FC01322F11923A95EB
:101E7000E9F729830E94B20E8823E9F09981913114
:101E8000D1F49A81905E9093FD0A9B819093FF0A12
:101E90009C819093010B9D819093020B9E81909366
:101EA000030B9F819093040B9A859093050B9B8560
:101EB0009093060B01C080E062960FB6F894DEBFE7
:101EC0000FBECDBFDF91CF9108951F93CF93DF93C6
:101ED00000D01F92CDB7DEB782E089838091FE0AE1
:101EE000823011F486E101C080E18A8380911B0970
:101EF0008B83CE0101960E94FC0D811102C080E00F
:101F000015C00E94E90E182F8823C9F39091240967
:101F100091FB882780F991FD09C08FED9EE2019722
:101F2000F1F700C000000E945D0E812F0F900F900E
:101F30000F90DF91CF911F910895CF93DF93CDB78D
:101F4000DEB72A970FB6F894DEBF0FBECDBF8AE08A
:101F50008983CE0101960E94B20E882361F09A8196
:101F60009093A7099B819093A8099C819093A909BC
:101F70009D819093D8092A960FB6F894DEBF0FBEC4
:101F8000CDBFDF91CF910895CF93DF93CDB7DEB76B
:101F900028970FB6F894DEBF0FBECDBF88E0EFE202
:101FA000F2E0DE01119601900D928A95E1F783E04F
:101FB0008E8386E08F83CE0101960E94FC0D8111F5
:101FC0000E949D0F28960FB6F894DEBF0FBECDBFBE
:101FD000DF91CF9108958091FE0A813019F48091AC
:101FE000030B04C0823079F48091040B81FD09C099
:101FF000803149F49091FD0A985281E0923020F0AE
:1020000002C081E0089580E008958091030B803143
:1020100039F081E09091040B903119F080E001C01B
:1020200081E081700895CF93DF9300D000D000D07D
:10203000CDB7DEB7CE01019626E0FC0111922A95BC
:10204000E9F74091FE0A2091190930911A094230AE
:1020500039F443E0498340E44A833B832C830CC03A
:1020600045E0498340E44A833B832C832091AA09BD
:102070002D832091AB092E830E94FC0D26960FB66E
:10208000F894DEBF0FBECDBFDF91CF910895CF93FF
:10209000DF93CDB7DEB727970FB6F894DEBF0FBE3C
:1020A000CDBFCE01019627E0FC0111922A95E9F7F8
:1020B0004091FE0A2091190930911A09423039F4F1
:1020C00043E0498342E44A833B832C830FC046E0CC
:1020D000498342E44A833B832C832091AA092D83C0
:1020E0002091AB092E832091DB092F830E94FC0DE8
:1020F00027960FB6F894DEBF0FBECDBFDF91CF910C
:102100000895CF93DF9300D0CDB7DEB781E0898308
:1021100081E48A83CE0101960E94FC0D0F900F90FE
:10212000DF91CF910895CF93DF93CDB7DEB7279797
:102130000FB6F894DEBF0FBECDBFCE01019627E0EB
:10214000FC0111922A95E9F74091FE0A20911909A4
:1021500030911A09423039F443E0498341E44A831B
:102160003B832C830CC045E0498341E44A833B8395
:102170002C832091AA092D832091AB092E830E94E4
:10218000FC0D27960FB6F894DEBF0FBECDBFDF91D2
:10219000CF9108950F93CF93DF93CDB7DEB72A97F2
:1021A0000FB6F894DEBF0FBECDBFFE0131969AE0A8
:1021B000DF011D929A95E9F796E0998390E69A835C
:1021C0008B836C834D832E830F83CF010E94FC0D84
:1021D0002A960FB6F894DEBF0FBECDBFDF91CF9128
:1021E0000F9108950F9305E0209113024091100282
:1021F00060910D0280EA0E94CA10882349F02FEFF7
:1022000037EA91E6215030409040E1F700C00000ED
:102210000F9108950F93CF9304E02CEB40EA6EEEFC
:1022200082E70E94CA10C82F8823E1F02FEF37EA17
:1022300081E6215030408040E1F700C0000003E01B
:1022400020E040EA60EA82EF0E94CA10882351F041
:102250009FEF27EA31E6915020403040E1F700C07F
:102260000000C82F8C2FCF910F910895813051F429
:102270000E949310811102C080E0089510921B0902
:1022800081E008950E948110F5CF813059F40E94B9
:102290001310811102C080E0089580E880931B092B
:1022A00081E008958230B9F70E944710F2CF0C9474
:1022B00005100C94EB0F0E94650F882319F082E043
:1022C0008093EF0908950E94C40F882311F082E0E3
:1022D00001C081E08093FE0A8FE39FE10197F1F74F
:1022E00000C000000E945B118091FD0A8093FA0AF1
:1022F0008091FE0A8093FB0A0895CF93DF93CDB7B8
:10230000DEB7E2970FB6F894DEBF0FBECDBFFE0179
:10231000319682E3DF011D928A95E9F78091FB0AED
:10232000823009F0A4C19091FA0A913209F07EC07E
:102330008DE289839A838091A7098B838091A80974
:102340008C838091A9098D838091AA0988878091C7
:10235000AB0989878091AC098A878091AD098B8709
:102360008091AE098C878091AF098D878091B009EB
:102370008E878F878091B309888B8091B209898B72
:102380008091B5098A8B8091B4098B8B8091B609B5
:102390008C8B8091B7098D8B8091B8098E8B809141
:1023A000B9098F8B8091BA09888F8091BB09898F79
:1023B0008091BC098A8F8091BD098B8F8091BE0965
:1023C0008C8F8091C0098D8F8091C1098E8F8091F3
:1023D000BF098F8F8091C50988A38091C60989A301
:1023E0008AA38091C8098BA38091C9098CA380918D
:1023F000CB098DA38091CA098EA38091CC098FA3AC
:102400008091CD0988A78091CF0989A78091CE09B5
:102410008AA78091D0098BA78091D9098CA7809138
:10242000E7098DA78091E8098EA7CDC0923209F007
:102430005EC099839A838091A7098B838091A809B4
:102440008C838091A9098D838091AA0988878091C6
:10245000AB0989878091AC098A878091AD098B8708
:102460008091AE098C878091AF098D878091B009EA
:102470008E878F878091B309888B8091B209898B71
:102480008091B5098A8B8091B4098B8B8091B609B4
:102490008C8B8091B7098D8B8091B8098E8B809140
:1024A000B9098F8B8091BA09888F8091BB09898F78
:1024B0008091C2098A8F8091C3098B8F8091BC095A
:1024C0008C8F8091BD098D8F8091C4098E8F8091F2
:1024D000BE098F8F8091E90988A38091D90989A3CA
:1024E0008091E7098AA38091E8098BA36CC094329C
:1024F00009F069C086E289839A838091A7098B835A
:102500008091A8098C838091A9098D838091D80935
:102510008E838091AA0988878091AB0989878091F1
:10252000AC098A878091AD098B878091AE098C8731
:102530008091AF098D878091B0098E878F878091B8
:10254000B309888B8091B209898B8091B5098A8BF8
:102550008091B4098B8B8091B6098C8B8091B709DF
:102560008D8B8091B8098E8B8091B9098F8B80916A
:10257000BA09888F8091BB09898F2091E1092A8F40
:102580008091E2098B8F2C8F8D8F8091C2098E8F65
:102590008091C3098F8F8091BC0988A38091BD0968
:1025A00089A38091C4098AA38091BE098BA38091DD
:1025B000E9098CA38091D9098DA38091E7098EA3A5
:1025C0008091E8098FA388ED890F823008F095C0CB
:1025D00081E289839A838091A7098B838091A809DE
:1025E0008C838091A9098D838091D8098E831F8265
:1025F0008091AA0988878091AB0989878091AC096D
:102600008A878091AD098B878091AE098C878091F4
:10261000AF098D878091D7098E871F86888B198A8D
:102620009091DA099A8B9B8B9C8B9D8B8091E3090F
:102630008E8B8091E4098F8B188E8091DD09898FB4
:102640008091DE098A8F8091DF098B8F8091E0096C
:102650008C8F8091D9098D8F8091E7098E8F809121
:10266000E8098F8F18A281E089A31AA246C08130A1
:1026700009F043C08BE289838091FA0A8A838091B2
:10268000AA098B838091AB098C838091D1098D83BA
:102690008091D2098E838091D3098F838091D40950
:1026A00088878091D50989878091D6098A8780910A
:1026B000D7098B879091FD0A98528091D909209172
:1026C000D8099230C0F49091DA099C879091DB0987
:1026D0009D879091DC099E879091DD099F8790915D
:1026E000DE09988B9091DF09998B9091E0099A8B84
:1026F0002B8B8C8B02C02C878D87CF010E94FC0D09
:10270000E2960FB6F894DEBF0FBECDBFDF91CF913A
:102710000895CF93DF9300D0CDB7DEB781E08983F2
:1027200088E48A83CE0101960E94FC0D0F900F90E1
:10273000DF91CF91089544E259E062E082E290E0B7
:102740000E94181E4AEF5AE062E08EE190E00E947B
:10275000181E1092F0091092F1091092F2091092CD
:10276000F30981E090E09093F5098093F409909348
:10277000F7098093F609809124098F7B80932409BF
:1027800081FD47C00E94860C80912409846080935B
:10279000240948EF59E061E081E690E00E94181EAC
:1027A0008091F8098823C9F080912409886080937A
:1027B000240949EF59E061E080E091E00E94181E91
:1027C0008091F9098F3F49F41092F90949EF59E0D6
:1027D00061E080E091E00E942D1E8BE0EDE2FAE0E6
:1027E000DF011D928A95E9F783E3EAEFF9E0DF0163
:1027F0001D928A95E9F74DE25AE06AE08CE690E096
:102800000E94181E4AEF59E062E387E790E00C94BB
:10281000181E0C944826CF93DF93CDB7DEB7679789
:102820000FB6F894DEBF0FBECDBF21E02F8B38E18D
:102830003E8B6A877B878C879D878091F609909174
:10284000F7099A8389838091FD0A8B838091FE0A20
:102850008C838091010B8F838091F4099091F5090D
:102860009E838D838091AB0990E0998788871E862F
:102870001F86188A198A1A8A1B8A1C8A2D8B49EF8F
:1028800059E061E080E091E00E94181E8091F90912
:102890008F3F29F09091F809891708F048C08150BE
:1028A0008E3F50F01092F909AE014A5E5F4F62E030
:1028B00081E091E00E942D1E8091F90925E1829F1F
:1028C000C0011124AE014F5F5F4F65E1885E9E4FEE
:1028D0000E942D1E8091F9098F5F8093F90949EFBD
:1028E00059E061E080E091E00E942D1E8091240972
:1028F00085FD0AC080628093240944E259E062E0C9
:1029000082E290E00E942D1E9091F9098091F809D1
:10291000981323C08091240980618093240944E2A4
:1029200059E062E082E290E00E942D1E16C044E26F
:1029300059E061E082E290E00E94181E8091240933
:10294000877F80618093240944E259E061E082E25C
:1029500090E00E942D1E80E001C081E067960FB6D6
:10296000F894DEBF0FBECDBFDF91CF910895CF9316
:10297000DF93CDB7DEB767970FB6F894DEBF0FBE13
:10298000CDBF49EF59E061E080E091E00E94181E60
:102990008091F90981508E3F78F5AE014A5E5F4F14
:1029A00062E081E091E00E94181EAE014F5F5F4F30
:1029B00065E18E899F890E94181ECE0101960E94B2
:1029C000D20B8823C9F08E899F8945969F8B8E8B69
:1029D0008091F90981508093F909AE014A5E5F4FF9
:1029E00062E081E091E00E942D1E49EF59E061E034
:1029F00080E091E00E942D1E8091F90981110DC0A7
:102A0000809124098F7D8F7E8093240944E259E0D0
:102A100061E082E290E00E942D1E8091F9096796A4
:102A20000FB6F894DEBF0FBECDBFDF91CF910895F2
:102A30001F93CF93DF931F92CDB7DEB764E670E0AC
:102A40000E94202D162F40E861E08AE279830E94DF
:102A50000A1A66EA8BE20E94EC198AE20E94001AC6
:102A6000807F682F62608AE20E94EC19612F8DE2FC
:102A70000E94EC197981672F8CE20E94EC1980E0AA
:102A800090E00F90DF91CF911F9108956FE081E06A
:102A90000E94EC1960E485E10E94EC1948E060E0D6
:102AA00088E00E940A1A82E10E94001A8870682F4A
:102AB000606882E10E94EC1983E10E94001A88702C
:102AC000682F606883E10E94EC196DE689E10E943D
:102AD000EC1968E486E20E94EC1965E588E10E9441
:102AE000EC1966E284E20E94EC1964EF87E20E942E
:102AF000EC1988E893E10E94181543E061E084E155
:102B00000E940A1A40E461E08CE00E940A1A84E004
:102B10000E94001A80FFFBCF61E084E00E94EC1964
:102B200088E893E10E9418156AE18BE00E94EC1995
:102B300060E186E10E94EC1964E887E10E94EC19EB
:102B400060E081E00E94EC1980ED97E00C9418158C
:102B50009F92AF92BF92CF92DF92EF92FF920F932C
:102B60001F93CF93DF93182F7B01EA0162E484E087
:102B70000E94EC1960E085E00E94EC1960E88AE0B0
:102B80000E94EC1981E00E94001A682F607F1C30BF
:102B900009F46C6081E00E94EC19D0937C05C0932D
:102BA0007B05103108F063C0812F90E0FC01EE0F2F
:102BB000FF1FED5AFA4FC081D181FC01ED5BFA4F46
:102BC000C080FC01ED5CFA4F0081FC01ED5DFA4F25
:102BD0009080209709F050C082E00E94001A682F70
:102BE0006C2982E00E94EC1983E00E94001A682F91
:102BF00083E00E94EC19D12CE0917B05F0917C05DB
:102C00008381D81648F4F701ED0DF11D608189E04C
:102C10000E94EC19D394F0CF1C3031F440E861E00D
:102C20008DE00E940A1A09C081E00E94001A807F8C
:102C3000682F612B81E00E94EC19AA24A394BA2C7E
:102C400010E0002371F0812F802359F484E00E946A
:102C5000001A182F85E00E94001A81E0A81AB10816
:102C600081F701231170C12FE0E0DE2F05C0912C08
:102C7000C12C02E4C3E0D1E04C2D60E082E00E9470
:102C80000A1A40E060E083E00E940A1A992009F4E1
:102C90007EC0209709F07BC0C0907B05D0907C055A
:102CA0008AE00E94001AF60184838CE00E94001AD8
:102CB000E0917B05F0917C05877090E09683858399
:102CC00086E00E94001A182F882309F446C083FD6D
:102CD00005C081FF05C0C3E0D0E002C0C6E0D0E07F
:102CE00010FD22C014FD23C012FF19C0E0917B0526
:102CF000F0917C05C481C130E9F4858196818B7F98
:102D0000892BC1F489E00E94001AF7018083E091C9
:102D10007B05F0917C05C483C2E0D2E00DC016FFB4
:102D20000BC0C4E0DEE708C0CBE0D0E005C0C9E0DE
:102D3000D0E002C0C2E0D0E017FD05C0209729F422
:102D4000CCE0D0E002C0CDE0D0E060E086E00E94C0
:102D5000EC19C230F2E0DF07D1F010E0E0917B0522
:102D6000F0917C058481181750F46701C10ED11CC5
:102D700089E00E94001AF60180831F5FEFCF258152
:102D80003681232B21F0882311F081508483602F1A
:102D900084E00E94EC1960E085E00E94EC1960E894
:102DA0008AE00E94EC1961E084E00E94EC1960E086
:102DB0008DE00E94EC19CE01DF91CF911F910F9110
:102DC000FF90EF90DF90CF90BF90AF909F900895CD
:102DD0001F93CF93DF93182FEB0148E060E088E06A
:102DE0000E940A1A60E88EE00E94EC1940E860E058
:102DF00082E10E940A1A40E860E083E10E940A1A18
:102E000067E08DE00E94EC191092490B10924A0B7A
:102E100010924B0B10924D0B10924F0B10924E0BC9
:102E20001092500B1093350B81E080934C0B80E98E
:102E300091E00E94181549E45BE065E37BE08CE0DB
:102E40000E94A815882311F0863089F490914D0BCB
:102E5000923081F420914E0B30914F0B232B51F483
:102E60002091350B3091360B3983288304C01882AA
:102E7000198201C08BE090E0DF91CF911F910895FE
:102E80006F927F929F92AF92BF92CF92DF92EF921A
:102E9000FF920F931F93CF93DF931F92CDB7DEB7AF
:102EA000E82EF62E3A011092370B1092380B109242
:102EB000390B10923A0B10923B0B40E860E082E134
:102EC0000E940A1A40E860E083E10E940A1A60E06A
:102ED0008EE00E94EC19B62C84E0C82ED12C30E292
:102EE0003F1508F4A9C02F2D27709F2D9695969514
:102EF0009695222321F0AA24A394A90E01C0A92EFD
:102F0000E092350B80E2820FE0E19E9F800D11245C
:102F10008093360BA7E3BBE0F3018E2F8B198A1544
:102F200018F481918D93F9CFF0E12F9FB001112416
:102F3000622B8DE029830E94EC191092490B1092AC
:102F40004A0B10924B0B10924D0B10924F0B10929C
:102F50004E0B1092500B82E08A0D80934C0B80E157
:102F600097E20E94181549E45BE065E37BE08CE0A2
:102F70000E94A8158C0129818630910519F0892BB2
:102F800009F05FC060914E0B70914F0B80914D0B1B
:102F9000A62F38E0839FA00D1124A21B4F2D50E0D7
:102FA0004A0F511D493251050CF049C0672B19F0E9
:102FB0008F5F80934D0B4A2D50E0222359F0FA0188
:102FC0003197E60DF71D90818091350B892B808319
:102FD000B1E001C0B0E0A12CC601841B950B6B2FA2
:102FE00070E02A2D30E02817390774F4F901EB5C02
:102FF000F44FE60FF71F9080260D371DF901E40FFF
:10300000F51F9082A394EDCF0630110511F4FA0E4E
:1030100066CFF301918180818927928189279381ED
:1030200089272B5C344FF901EB0FF11D9081891733
:1030300041F001E015E005C001E011E002C004E04C
:1030400010E060E08DE00E94EC1960E88EE00E94E4
:10305000EC19C8010F90DF91CF911F910F91FF9054
:10306000EF90DF90CF90BF90AF909F907F906F9048
:103070000895FF920F931F93CF93DF93F82EEB01E8
:103080008A0140E861E082E10E940A1A40E861E0BA
:1030900083E10E940A1AF092350B80E78093360B89
:1030A000FE01A7E3BBE0CE01049621912D93E81722
:1030B000F907D9F79981888189279A8189279B8186
:1030C000892780933B0B1092490B10924A0B109268
:1030D0004B0B10924D0B10924F0B10924E0B109207
:1030E000500B87E080934C0B80ED97E00E94181501
:1030F00049E45BE065E37BE08CE00E94A815009763
:1031000089F420914D0B213059F420914E0B3091D0
:103110004F0B232B29F42091350BF801208302C09B
:1031200084E090E0DF91CF911F910F91FF9008957F
:103130006F927F928F929F92AF92BF92CF92DF92C7
:10314000EF92FF920F931F93CF93DF93CDB7DEB72C
:103150002D970FB6F894DEBF0FBECDBF7B016A017D
:103160009E012F5F3F4F590120E030E010E088239F
:10317000A1F0813240F000EE080F113061F0123002
:1031800071F580E205C0113051F0123099F400E081
:1031900067E9962E12C080E203C0113089F400E086
:1031A0006A807B808C80F70160827182828255E91F
:1031B000952E03C000E043E9942E803231F411C013
:1031C000123029F300E093E9992E2115310509F514
:1031D000A501682F892D0E9440179C0102C083E938
:1031E000982E21153105A9F4AE01435F5F4FB5015B
:1031F000892D0E9439189C01892B19F48D8582FF35
:1032000008C01F5FF4E0AF0EB11C1330D1F0802F67
:10321000AECF113061F01230A1F48D819E81AF816B
:10322000B885F70186839783A087B18713C08D8106
:103230009E81AF81B885F70183839483A583B6838C
:1032400009C089819A81AB81BC81F7018083918318
:10325000A283B3838D85F6018083C9012D960FB6B5
:10326000F894DEBF0FBECDBFDF91CF911F910F91BC
:10327000FF90EF90DF90CF90BF90AF909F908F9096
:103280007F906F900895CF93DF931092490B109227
:103290004A0B10924B0B10924C0B10924D0B10924C
:1032A0004F0B10924E0B1092500B8093350B2093C6
:1032B000360B86E0FB01A7E3BBE001900D928A95F7
:1032C000E1F7FA0180819181A281B38180933D0B66
:1032D00090933E0BA0933F0BB093400B8CE08093F8
:1032E0004C0B80ED97E00E94181549E45BE065E324
:1032F0007BE08EE00E94A815EC01892B41F488E068
:103300000E94001A8F70883011F0C1E0D2E0CE0127
:10331000DF91CF910895CF93DF93EB011092490B8A
:1033200010924A0B10924B0B10924D0B10924F0BB8
:1033300010924E0B1092500B90E39093350B8093AC
:10334000360B82E080934C0B80E197E20E941815C7
:1033500049E45BE065E37BE08CE00E94A815009700
:10336000E9F081309105A1F020914E0B30914F0B87
:103370002430310569F48091350B982F9F7090931C
:10338000350B8A7019F085E091E002C081E092E08F
:1033900020E1FE0111922A95E9F714C020914D0B0E
:1033A000203141F080E1FE0111928A95E9F788E031
:1033B00090E008C020E1E5E3FBE0DE0101900D9222
:1033C0002A95E1F7DF91CF910895883011F481E0DB
:1033D00001C084E00C948B19CF93DF931F92CDB77B
:1033E000DEB7880F71988E7769830E943F1A6981D2
:1033F000862F0E943F1A719A0F90DF91CF91089506
:10340000880F8E77719880680E943F1A0E94441A34
:10341000719A08951F93CF93DF9300D0CDB7DEB795
:10342000182F4A8369830E94001A69814A816623A2
:1034300019F0682F642B03C0642F60956823812FD7
:103440000F900F90DF91CF911F910C94EC19CF93B7
:10345000DF931F92CDB7DEB784B1876084B923981C
:10346000289A82E08DB9719A299882E58CBD8DB534
:1034700089838EB589830F90DF91CF9108958EBD9A
:103480000DB407FEFDCF08958FEF8EBD0DB407FE7E
:10349000FDCF8EB508950E94271A0C944615F89416
:1034A0000FB6F894A89580916000886180936000C1
:1034B000109260000FBE80E090E00E947D260E9486
:1034C00067250E94262678940E941F030E944B1AAB
:1034D00078940E945B040E943521FACF80913901D3
:1034E00086958170089580917D05811104C0809139
:1034F0005C0180937D0580917D0508958091460152
:103500008F7180937E0510926C0C08950E94731A3F
:10351000823019F080917E05089586E108958091AA
:10352000D10B0895CF9395EF980F903118F5C82FD0
:103530000E946E1A811120C0809148018F718C17F2
:10354000E9F080914801807E9C2F9F71892B8093A8
:103550004801809141018F71863011F0893021F44A
:103560008DE291E00197F1F7809148018F718C1302
:1035700007C004C082E405C084E403C080E401C045
:1035800083E4CF910895663098F4811104C080914E
:103590004301886003C080914301877F809343018A
:1035A00080914301887F682B6093430180E40895F4
:1035B00082E40895809141018F710895E9E3F1E07B
:1035C00080818D7F80838DE090E00197F1F7E2E4C8
:1035D000F1E08081807E8360808383E090E00197CA
:1035E000F1F70895E9E3F1E08081816080838081D3
:1035F0008D7F80838DE090E00197F1F780818E7F51
:10360000808308950F931F93CF93DF931F92CDB7BD
:10361000DEB70DEF13E0F8013197F1F789830E94CF
:10362000F21A90914201907E936090934201F801CA
:103630003197F1F79CE490934E0190914901907F6E
:10364000976090934901898181110E94A31D80E4B4
:103650000F90DF91CF911F910F910895CF93C82FB5
:103660000E94731A823031F480910500C0FB87F903
:10367000809305000E94731A833061F42091040046
:1036800030E2C39FC00111248072922F9F7D892B4D
:1036900080930400CF91089580914101982F9F70ED
:1036A0009150923038F0982F9F7181E09E3119F03F
:1036B00080E0089581E00895CF93C82F88EF8C0FA4
:1036C000823038F08C2F8F7E863019F0C93109F0A6
:1036D00055C00E946E1A811153C00E944C1B81116B
:1036E000FCCF0E94731A823039F40E94BC238823D5
:1036F00019F0C63109F4C6E0809141018F71C817F5
:1037000009F440C0C83019F40E94DE1A31C0C93132
:1037100059F48930E1F090914201907E9960909344
:103720004201863181F40CC0C63189F4893079F0C8
:1037300090914201907E996090934201893119F4F1
:10374000E3E0F0E002C0E9E6F1E03197F1F79091B3
:103750004201907E2C2F2F71922B90934201883042
:1037600019F489E691E002C083E090E00197F1F757
:10377000809141018F718C1307C004C082E405C0A1
:1037800084E403C080E401C083E4CF910895CF9323
:10379000DF9300D000D01F92CDB7DEB780914101FA
:1037A0008F718C838C81813151F08C81863039F01E
:1037B0008C81813021F08C81863109F05FC040918D
:1037C0007B0150E060E871E082E59BE00E946B3194
:1037D00080917B018093510BE0917B01F0E0EF5AE7
:1037E000F44F80818093D10B19821B821A82209121
:1037F000520B8091530B90E0982F8827820F911DD8
:103800009093530B8093520B813628E8920709F16D
:1038100040F4833028E0920781F08115904899F0B8
:1038200028C083362CE8920701F1833628EC9207F2
:10383000D1F083369848E9F40EC080915D0C88235E
:10384000C1F085E115C00E94BC23882391F084E17A
:103850000FC080E10DC080915B0B823031F08B3B5B
:1038600031F0813031F487E103C088E101C089E1A2
:103870008983CE0101960E94EA2035C08C81823076
:1038800049F08C81823131F08C81893119F08C8141
:10389000893049F510926C0C19821B821A82809132
:1038A00042018295869587708D838D81833049F0A2
:1038B00020F4823040F481E105C0853021F482E1BA
:1038C00001C083E189838981882321F0CE0101969B
:1038D0000E94EA2086E10E945C1B809194009091F6
:1038E00095000E940D2F0F900F900F900F900F904A
:1038F000DF91CF9108950F931F93CF93C82F8B0122
:1039000087FD2BC00E944C1B8111FCCF89E10E94D6
:103910005C1B809141018F718931C1F7F80185816C
:10392000968190936B0C80936A0C4C2F50E04E5F05
:103930005F4FB80181E891E00E946B31CE5FC09388
:103940008001809139018260809339018091390131
:103950008D7F8093390180E401C082E4CF911F9173
:103960000F910895EEE6F1E0908180FB93F990834A
:10397000089580936201909363010895809360019C
:10398000909361010895E4E6F1E0DC012D91CD0111
:103990002193EC36B1E0FB07C1F70895CF93DF9395
:1039A000C82FD09141010E94731A833039F4DF701F
:1039B000D630F1F4C69590E020E009C00E94731A59
:1039C0008338A9F30E94731A873091F4F0CF9C17C3
:1039D00069F08091460144E0249F90011124807693
:1039E000829586958770282B9F5FF1CF822F02C02A
:1039F0000E94092FDF91CF91089508951F920F9291
:103A00000FB60F9211240BB60F922F933F934F9343
:103A10005F936F937F938F939F93AF93BF93EF9336
:103A2000FF930E947E1AFF91EF91BF91AF919F91FA
:103A30008F917F916F915F914F913F912F910F9057
:103A40000BBE0F900FBE0F901F9018951F920F92F4
:103A50000FB60F9211240BB60F922F933F934F93F3
:103A60005F936F937F938F939F93AF93BF93EF93E6
:103A7000FF930E94C71BFF91EF91BF91AF919F9160
:103A80008F917F916F915F914F913F912F910F9007
:103A90000BBE0F900FBE0F901F9018951F920F92A4
:103AA0000FB60F9211240BB60F922F933F934F93A3
:103AB0005F936F937F938F939F93AF93BF93EF9396
:103AC000FF93809141018F71863111F00E94C71BD5
:103AD000FF91EF91BF91AF919F918F917F916F91E6
:103AE0005F914F913F912F910F900BBE0F900FBEA2
:103AF0000F901F9018951F920F920FB60F921124DE
:103B00000BB60F922F933F934F935F936F937F93D7
:103B10008F939F93AF93BF93EF93FF930E947A2469
:103B2000FF91EF91BF91AF919F918F917F916F9195
:103B30005F914F913F912F910F900BBE0F900FBE51
:103B40000F901F901895CF92DF92EF92FF920F93F4
:103B50001F93CF93DF9300D0CDB7DEB710917F05D1
:103B6000112311F011E058C081E080937F05F0909F
:103B70006600F89461E00E94C31AC090B100D09032
:103B80008100E09080001092B100109281001092AC
:103B9000800088EE93E043E056E03FEF4093B100B1
:103BA000509381001092B200109285001092840010
:103BB00036BB37BBB89BFECF609184007091850007
:103BC0007A836983109281001092B10069817A81B1
:103BD0006D3F714020F420916600215008C069813A
:103BE0007A816330724048F0209166002F5F209305
:103BF0006600019799F600E001C001E060E081E015
:103C00000E94C31AC092B100D0928100E09280005D
:103C10000111A8CFF0926600812F0F900F90DF91D5
:103C2000CF911F910F91FF90EF90DF90CF9008956B
:103C3000CF93DF931F92CDB7DEB7FC01CA013FB728
:103C40003983F894462F50E0BF010E947634898171
:103C50008FBF0F90DF91CF910895CF93DF931F9285
:103C6000CDB7DEB7FC01CA013FB73983F894462FC0
:103C700050E0BF010E94983489818FBF0F90DF917F
:103C8000CF9108951F93CF93DF93CDB7DEB72897D9
:103C90000FB6F894DEBF0FBECDBF182F2FEF3FEF4A
:103CA0003093610C2093600C3093630C2093620C72
:103CB00010925D0C3093650C2093640C3093670C6C
:103CC0002093660C1092680C10926C0C81E080932B
:103CD0006D0C0E94021B1093690C1F3F19F0812F7D
:103CE0000E94921A81E00E942E1B88E00E945C1BB9
:103CF0000E94FD1C86E10E945C1B45E55CE068E0DB
:103D000080E090E00E94181E80E00E94B21C8FEFBD
:103D10009FEF0E94BE1C8FEF9FEF0E94B91C809105
:103D20006C018F70806280936C018091550C898347
:103D30008091560C8A838091570C8B838091580C0C
:103D40008C838091590C8D8380915A0C8E83809145
:103D50005B0C8F8380915C0C8887CE0101960E945A
:103D6000C31C0E948B1F28960FB6F894DEBF0FBEAF
:103D7000CDBFDF91CF911F9108958093690C0C9472
:103D8000921A8091AC060E94372590915D0C81E0DB
:103D900089270C943D02CF93DF93EC01862F0E947C
:103DA000BD1EE3EDFBE083E698EC92838183A5E5FD
:103DB000BCE01A968C911A9791E0980F1A969C93F2
:103DC0001A9783831B968D919C911C97958384836E
:103DD000D783C6838C91808711968C9111978187A8
:103DE00012968C911297828713968C9113978387E2
:103DF00014968C911497848715968C9115978587C6
:103E000016968C911697868717968C91878781E0F6
:103E1000808BD28BC18B82E0838B64ED7BE083E16E
:103E20000E947B1C61EC7EE188EE93E00E94B1244D
:103E30008093AC06DF91CF910895009761F0E0E8A0
:103E4000F5E0208131812817390739F0339626E0D3
:103E5000EC3AF207B1F780E0089581E00895E0E8D8
:103E6000F5E0DF0120E030E04D915C9111974817BB
:103E7000590769F4F901EE0FFF1F2E0F3F1FF901DB
:103E8000EE57FA4F80818E7F8D7F808308952F5F5C
:103E90003F4F13962436310539F720E030E0422FAA
:103EA00060817181672BA9F4F901EE0FFF1F2E0FBE
:103EB0003F1FF901E058FA4F91838083F901EE57D3
:103EC000FA4F90819E7F9D7F9083842F90E00C9489
:103ED00036022F5F3F4F33962436310501F70895A0
:103EE000E0E8F5E020E030E04081518148175907D3
:103EF00059F4F901EE0FFF1F2E0F3F1FF901E05893
:103F0000FA4F1182108208952F5F3F4F3396243667
:103F1000310551F7089508950895FC0195859F771F
:103F200095870895E3EDFBE080E090E8928381833C
:103F3000A5E5BCE019968C91199791E0980F199618
:103F40009C93199783831B968D919C911C979583C5
:103F500084831D968D919C911E97978386838FEF06
:103F600090E09187808786E0828753968C91838743
:103F700064ED7BE08BE00C947B1C64ED7BE0809136
:103F8000D30B0C947B1CEF92FF920F931F93CF9354
:103F9000DF93E091620CF091630C8E179F0709F498
:103FA0006EC08F3F3FEF930709F469C030915D0CFD
:103FB000332309F464C0C22F7A01D62F8C0181E625
:103FC00098E89093D50B8093D40B80915F0C91E08F
:103FD000980F90935F0C8093D60B8091600C90911A
:103FE000610C9093D80B8093D70BF093DC0BE0938C
:103FF000DB0B1093DE0B0093DD0BF093E00BE093F3
:10400000DF0BC8010E949423C63029F41093DA0B09
:104010000093D90B08C08091640C9091650C90932B
:10402000DA0B8093D90BC093E10BF70122EE3BE052
:10403000D9018A2F821B8D1718F481918D93F9CFA6
:104040008091D90B9091DA0B2091620C3091630C26
:1040500082179307A1F0019691F0D25FD093D30B12
:10406000C650C23018F087E090E002C080E090E0D7
:104070006DEB7FE10E94B12481E080936C0CDF91B5
:10408000CF911F910F91FF90EF90089521E00C9434
:10409000C31F80915F0B8F77833029F128F4813023
:1040A00041F08230D1F00895843019F1863019F052
:1040B00008950C940D028091600B9091610B4091DA
:1040C000590B50915A0B2091640C3091650C42179A
:1040D0005307A9F499270C948C1F80915D0B909144
:1040E0005E0B0C94AB0180915D0B90915E0B0C9478
:1040F000AF018091600B9091610B0C94701F08953B
:104100000F931F93CF93DF93CDB7DEB760970FB6B2
:10411000F894DEBF0FBECDBF81E698E89A8389830D
:1041200005E51CE0F801828591E0980F92878B836A
:10413000838594859D838C838585968599878887DB
:104140009D878C878091AF069091B0069B878A8768
:104150008091AD068E870E94861A8F870E948F1AE3
:10416000888BF801878590899F838E83BE016F5F5E
:104170007F4F80E10E947B1C60960FB6F894DEBFF3
:104180000FBECDBFDF91CF911F910F910895209168
:10419000620C3091630C6217730791F090915D0C83
:1041A000992371F07093B0066093AF0690E09093FE
:1041B000AE068093AD060E94802081E080936C0C57
:1041C000089520916E0C90916F0C81E0291301C02D
:1041D00080E00895CF93DF93EC0140916E0C242F83
:1041E00030E0E0916F0CC90101966EE170E00E9431
:1041F000342D6E2F70E086179707A9F0F901EE0FA6
:10420000FF1F2E0F3F1FF901E259F34F888199815B
:10421000AA8182839383A48381E0840F8E3108F086
:1042200080E080936E0CDF91CF910895CF93DF9360
:104230001F92CDB7DEB780916F0C8983898190E0A2
:104240009C01220F331F820F931F8059934F2981A6
:104250002F5F298329812E3108F01982298120932B
:104260006F0C0F90DF91CF910895CF93C1E00E9422
:10427000E120882309F481C00E941621DC01EC9121
:104280004E2F50E0FA017097EA30F10580F7E854BC
:10429000FF4F0C946A2D80915D0C8111E8CF0E9434
:1042A000BF23E5CFDC011196ED91FC9112970995A2
:1042B000DECF80915D0C8823D1F282E59BE00E94E5
:1042C0008D1F20915B0B30915C0B8091620C909163
:1042D000630C2817390719F40E944920C8CF0E949F
:1042E0003B23C5CF80915D0C882309F262E97FE111
:1042F00081E090E00E94B124BACF80915D0C8823C8
:1043000009F4B5CF0E949A22B2CF8091530B8C381A
:10431000D9F48091520B8336B9F4C0935D0C80912F
:104320005F0B9091600B9093650C8093640C80916F
:10433000620B9091630B9093630C8093620C0E94CC
:10434000BE1C0E94C11E93CF80915D0C882309F48E
:104350008ECF0E940B228BCF80915D0C882309F4B5
:1043600086CF0E94BF2183CF0E94C50180CF0E94CB
:10437000C6017DCF0E94B7017ACFCF910895809179
:10438000510B92E8E1E5FBE0A3EDBBE001900D925B
:104390009A95E1F790915D0C9923E1F18C50869507
:1043A000E82FF0E0EE0FFF1FE452F44F208131813F
:1043B0003093670C2093660C823060F1815023E6C5
:1043C00038E83093D50B2093D40B90915F0C21E00B
:1043D000290F20935F0C9093D60B90E0FC01EE0F19
:1043E000FF1FE252F44F208131813093DA0B20938A
:1043F000D90B2091620C3091630C3093DC0B20932D
:10440000DB0B9BEB9093DD0B8B5F64ED7BE0880F08
:104410000C947B1C089580915D0C882309F489C05D
:1044200020915C0B30915D0B8091620C9091630C3C
:104430002817390709F04BC083E69CE89093D40B0A
:104440008093D30B80915F0C91E0980F90935F0C59
:104450008093D50B8091600C9091610C9093D70B59
:104460008093D60B80915E0B8093D80B80915F0B6D
:104470008093D90B8091600B8093DA0B8091610B54
:104480008093DB0B8091620B8093DC0B8091630B3C
:104490008093DD0B8091640B8093DE0B8091650B24
:1044A0008093DF0B3093E10B2093E00B82E080934D
:1044B000E20B8091660B9091670B9093E40B8093D5
:1044C000E30B0E942F1F63ED7BE082E130C022E806
:1044D000E1E5FBE0A3EDBBE001900D922A95E1F749
:1044E00020915F0C31E0320F30935F0C2093D60B9C
:1044F0002091660C3091670C3093DA0B2093D90B26
:104500009093DC0B8093DB0B8091DE0B9091DF0BA3
:104510000E941D1F882341F08091DE0B9091DF0BDC
:104520009093DA0B8093D90B64ED7BE086E10C94D9
:104530007B1C0895CF93DF93CDB7DEB765970FB699
:10454000F894DEBF0FBECDBFA091530B80915F0CDE
:10455000E091600CF091610C6091640C7091650CBD
:104560004091620C5091630C30915E0B20915F0B77
:104570009091600BA83C81F5A3E6B8E8BA83A983C3
:10458000A1E0A80FA0935F0C8B83FD83EC837F8356
:104590006E835987488781E08A874091620B5091EA
:1045A000630B5C874B878091590B8D8780915A0BE9
:1045B0008E8780915B0B8F8780915C0B888B8091BD
:1045C0005D0B898B3A8B2B8B9C8B8091640B8D8B35
:1045D000BE016F5F7F4F43C0A3E6B8E8B093D40B32
:1045E000A093D30BA1E0A80FA0935F0C8093D50BF1
:1045F000F093D70BE093D60B7093D90B6093D80B45
:104600005093DB0B4093DA0B81E08093DC0B4091FD
:104610005C0B50915D0B5093DE0B4093DD0B3093A0
:10462000DF0B2093E00B9093E10B8091610B809363
:10463000E20B8091620B8093E30B8091630B80937C
:10464000E40B8091640B8093E50B8091650B809364
:10465000E60B8091660B8093E70B63ED7BE085E1D1
:104660000E947B1C65960FB6F894DEBF0FBECDBFCF
:10467000DF91CF91089582E8E1E5FBE0A3EDBBE097
:1046800001900D928A95E1F7A09A62E871E08AE0C4
:1046900090E00E94B1248091DD0B9091DE0B0E948E
:1046A0001D1F90915F0C2091620C3091630C882348
:1046B00059F081E0890F80935F0C9093D60B809125
:1046C000DD0B9091DE0B15C04091640C5091650C90
:1046D0006091DB0B7091DC0B81E0890F80935F0CA4
:1046E0009093D60B6417750749F48091660C9091EE
:1046F000670C9093DA0B8093D90B04C05093DA0BBC
:104700004093D90B3093DC0B2093DB0B8091D90BBA
:104710009091DA0B019639F08091D30B64ED7BE038
:1047200082500C947B1C089580E00895CF93DF9312
:10473000E1E5FBE02091D10BCAECDCE081819281C4
:1047400084E0989F812D9927112488838481958105
:104750009A838983868197819C838B8383858987CC
:104760008091690C81508D831E822A870E94861A4F
:104770008B87DF91CF9108958091B1060895CF93F3
:104780008091D10B4091590B50915A0B9091B106E9
:10479000992361F190915B0B963041F52091D10CFA
:1047A0003091D20C5093D20C4093D10C9091D20CFA
:1047B00097FF05C03093D20C2093D10C17C0909175
:1047C000D40C981718F4CF910C94962398130EC01C
:1047D0009091D30C80915C0B8917A8F3981306C0B5
:1047E000C091D50C0E94861AC81768F3CF9108951E
:1047F000CF93C1E08091CF0C8F3F11F4C0E01BC07C
:104800008091CB0C9091CC0C9093610C8093600CB8
:104810002091CD0C3091CE0C3093650C2093640C1C
:104820000E94B91C8091CF0C0E94BD1E9091D30CA8
:104830009F5F9093680C8C2FCF910C9458028091BD
:10484000690C8F3FB1F491E09093B10696E1EAECE8
:10485000FCE0DF011D929A95E9F78093CF0C8BE085
:104860008093690C80911E028038A9F08093690CB6
:1048700012C08B3148F490E020911E0230E02F5F8F
:104880003F4F8217930739F41092B1068FEF809350
:10489000690C0C94F8238091690C0E94BD1E83E082
:1048A00098E09093D50B8093D40B80915E0C91E0AF
:1048B000980F90935E0C8093D60B8FEF9FEF9093A1
:1048C000D80B8093D70B9093DA0B8093D90B87E0AA
:1048D0008093DB0B64ED7BE088E00E947B1C809181
:1048E000690C8F5F8093690C6FE174E284E190E062
:1048F0000C94B12408958091B2068F5F09F481E091
:1049000020E030E091E0F901E65EF84F4281481383
:1049100001C090E02B5F3F4F24363105A1F720E026
:1049200030E0F901EA54F94F4281481301C090E0A8
:104930002B5F3F4F24363105A1F79923F1F2809385
:10494000B20608958091B50681110AC010929500B3
:104950001092940082E08093710081E08093B5060C
:1049600008950F931F93CF93DF931F92CDB7DEB7B8
:10497000009719F4FB01099512C02FB72983F89409
:10498000AAE1B7E020E030E04D915C911197452B12
:1049900041F02F5F3F4F159624313105A9F780E094
:1049A00023C045E0429FD001439FB00D1124A65E75
:1049B000B84F009711F481E090E08D939C9385E0CF
:1049C000829F8001839F100D1124065E184FF8010D
:1049D000748363830E947B24F80182830E94A22453
:1049E00089818FBFF80182810F90DF91CF911F9154
:1049F0000F9108950F931F93CF93DF931F92CDB71D
:104A0000DEB7009719F4FB0109950FC0A6EBB6E0DD
:104A100020E030E04D915C911197452B41F02F5FE4
:104A20003F4F159624313105A9F780E01AC045E0C3
:104A3000429F8001439F100D11240A54194FF80121
:104A400091838083748363830E947B24F801828333
:104A50008FB78983F8940E94A22489818FBFF801BF
:104A600082810F90DF91CF911F910F910895ECE11A
:104A7000F7E020E030E09081981309C085E0829F44
:104A8000F001839FF00D1124E65EF84F15C02F5FF3
:104A90003F4F35962431310571F7E8EBF6E020E021
:104AA00030E0908198130CC085E0829FF001839FD5
:104AB000F00D1124EA54F94F1182108212820895E8
:104AC0002F5F3F4F35962431310559F70895E1E9BD
:104AD000F0E080818A60808380ED97E09093990078
:104AE0008093980080919400909195000C940D2FE4
:104AF0001F920F920FB60F9211240BB60F92FF92D6
:104B00000F931F932F933F934F935F936F937F93D5
:104B10008F939F93AF93BF93EF93FF93CF93DF93C5
:104B200000D01F92CDB7DEB78091B3069091B40646
:104B300001969093B4068093B30680911F029091E2
:104B40002002019749F09093200280931F020AE10E
:104B500017E096E1F92E24C084EF91E090932002B3
:104B600080931F0206EB16E086E1F82EF8018081A3
:104B70009181009771F0019791838083892B49F48B
:104B8000F982838194819B838A83CE0101960E945E
:104B9000EA200B5F1F4FF7E00A311F0739F7D7CF25
:104BA000F80180819181009771F001979183808352
:104BB000892B49F4F982838194819B838A83CE0176
:104BC00001960E94EA200B5F1F4FF7E00E371F0788
:104BD00039F70F900F900F90DF91CF91FF91EF91E8
:104BE000BF91AF919F918F917F916F915F914F9105
:104BF0003F912F911F910F91FF900F900BBE0F903F
:104C00000FBE0F901F9018951F920F920FB60F9224
:104C100011248F9382E080937F078F910F900FBEB6
:104C20000F901F9018951F920F920FB60F9211249C
:104C30008F9381E080937E078F910F900FBE0F902E
:104C40001F90189581E08093EE09089582E085BB5E
:104C500080936E0016BC1092E40C089515BC089564
:104C60008EE487BD82E084BD85E085BD08951F92F6
:104C70000F920FB60F9211248F938091E40C8F5FE7
:104C80008093E40C8F910F900FBE0F901F9018959A
:104C9000E6EAF9E099E19083148284E6858313A61D
:104CA00094A715A686A717A680AB91E091AB12AA90
:104CB00082E083AB83E084AB2FE025AB2CE326AB13
:104CC00017AA90AF81AF89E082AF0895FC0191816E
:104CD000DF01A90FB11D12962C918081981731F038
:104CE0009F5F97FD90E09183822F08958FEF089545
:104CF000E4E8F7E0118210820895E4E8F7E0118219
:104D00001082E6E0F8E01182108228E92093C900C1
:104D100026E02093CA001092CD0027E62093CC0015
:104D20009093830780938207089590918007911153
:104D30002AC07894909106089F5F97FD90E030918B
:104D4000810720910708921303C03323D1F308C0D1
:104D5000E0910608F0E0EA5FF74F8283909306083F
:104D60008091C90085FD0FC08091C80085FFFCCFF0
:104D700086E098E00E9466268093CE008091C9006C
:104D800080628093C90008958091840790E020910B
:104D90008507821B910997FF02C080589F4F089595
:104DA0008091840790E020918507821B910997FFED
:104DB00002C080589F4F882399F384E897E00C94B1
:104DC00066261F920F920FB60F9211240BB60F9208
:104DD0002F933F934F935F936F937F938F939F9303
:104DE000AF93BF93EF93FF938091CE0091E09093A8
:104DF0008107909184079F5F97FD90E02091850740
:104E0000921741F0E0918407F0E0EC57F84F82836D
:104E10009093840710928107E0918207F0918307B5
:104E2000309709F00995FF91EF91BF91AF919F9154
:104E30008F917F916F915F914F913F912F910F9043
:104E40000BBE0F900FBE0F901F9018951F920F92E0
:104E50000FB60F9211240BB60F922F933F934F93DF
:104E60005F936F937F938F939F93AF93BF93EF93D2
:104E7000FF939091060880910708981739F086E013
:104E800098E00E9466268093CE0005C08091C900FC
:104E90008F7D8093C900FF91EF91BF91AF919F915A
:104EA0008F917F916F915F914F913F912F910F90D3
:104EB0000BBE0F900FBE0F901F901895982F80ED8E
:104EC000890F8A3070F08FEB890F863010F489ECEF
:104ED00005C08FE9890F863018F489EA890F089593
:104EE00080E008952F923F924F925F926F927F924F
:104EF0008F929F92AF92BF92CF92DF92EF92FF92EA
:104F00000F931F93CF93DF93CDB7DEB763970FB6A1
:104F1000F894DEBF0FBECDBF6C014B012A01FC012E
:104F200017821682838181FF43C3AE014F5F5F4FBB
:104F30003A01F6019381F40193FD859193FF8191EC
:104F40004F01882309F430C3853239F493FD8591EC
:104F500093FF81914F01853239F4B60190E00E94B0
:104F6000ED3152012501E5CF10E0F12C20E0203297
:104F7000A0F48B3269F030F4803259F0833269F456
:104F800020612CC08D3239F0803339F4216026C085
:104F90002260246023C0286021C027FD27C030ED97
:104FA000380F3A3078F426FF06C0FAE01F9F300D24
:104FB0001124132F13C04AE0F49E300D1124F32E58
:104FC00020620CC08E3221F426FDEEC2206406C0A1
:104FD0008C3611F4206802C0883641F4F40193FD48
:104FE000859193FF81914F018111C1CF9BEB980F68
:104FF000933018F42061805E06C09BE9980F9330CF
:1050000008F071C12F7E26FF16E02F73322E8536F1
:1050100019F42064322E08C0863621F4F22FF0688D
:105020003F2E02C01111115037FE07C01C3350F43F
:10503000EE24E394E10E27E00BC0183038F027E0AF
:1050400017E005C027E04CE3E42E02C0212FE12C3D
:10505000520144E0A40EB11CF20160817181828191
:1050600093810E2DA3010E9472302C01098100FF53
:1050700002C003FF07C031FC08C032FE09C030E2A5
:10508000232E07C02DE2222E04C09BE2292E01C050
:10509000212C802F8C7019F0211068C2A8C237FE15
:1050A0000FC0E40C04FF04C08A81813309F4EA9440
:1050B0001E1474F5F8E0FE1578F588E0E82E2CC093
:1050C00036FC2AC0812F90E0841595059CF02CEFCA
:1050D00042162FEF520674F0432D4068342E0AC05A
:1050E000E2E0F0E0EC0FFD1FE10FF11D8081803365
:1050F00019F411501111F4CF37FE0EC0EE24E394D1
:10510000E10E812F90E0481659062CF4141904C0C2
:10511000EE24E39401C010E037FE06C01414150419
:1051200034F4C201019605C085E090E002C081E040
:1051300090E021100196112331F0212F30E02F5FF4
:105140003F4F820F931F2F2D30E08217930714F4E7
:10515000F81A01C0F12C832D897049F4FF2039F031
:10516000B60180E290E00E94ED31FA94F7CF222060
:1051700029F0B601822D90E00E94ED3133FC09C088
:10518000FF2039F0B60180E390E00E94ED31FA94FF
:10519000F7CF37FE5AC0942D852D57FE02C090E000
:1051A00080E0292E382E20E030E0A2014E1951096E
:1051B0005D874C87A201421953095F874E87612F93
:1051C00070E044275527461B570B598B488B5FEFE0
:1051D0002516350649F4B6018EE290E02A8B3B8B0A
:1051E0000E94ED313B892A89421453046CF04C85AE
:1051F0005D854215530544F4EE85FF85E20FF31FEC
:10520000E60DF71D818101C080E351E0251A3108C8
:105210002F5F3F4F48895989241635064CF0B60157
:1052200090E02A8B3B8B0E94ED312A893B89CFCFBE
:105230002414350439F49A81963318F4953311F413
:1052400004FF81E3B60190E04BC08A81813309F00D
:105250000F7EB60190E00E94ED31111105C034FCC3
:1052600018C085E690E017C0B6018EE290E00E947B
:10527000ED3182E0EE24E394E80EF301E80FF11D36
:105280008081B60190E00E94ED3111508E2D91F792
:10529000E6CF85E490E0B6010E94ED3157FC05C0F1
:1052A0004114510439F404FF05C05194419451084C
:1052B0008DE201C08BE2B60190E00E94ED3180E307
:1052C0009AE0491651042CF08F5F5AE0451A5108B4
:1052D000F7CFB60190E00E94ED31B601C201C09651
:1052E0000E94ED3157C1833631F0833779F0833531
:1052F00009F058C021C05201E2E0AE0EB11CF2012B
:105300008081898301E010E0230114C05201F2E0A2
:10531000AF0EB11CF2014080518026FF03C0612F07
:1053200070E002C06FEF7FEFC2012A8B0E949E31B6
:105330008C012A892F7715C05201F2E0AF0EB11C03
:10534000F2014080518026FF03C0612F70E002C04F
:105350006FEF7FEFC2012A8B0E9453318C012A89A3
:105360002068322E23FD1AC08F2D90E008171907F0
:10537000A8F4B60180E290E00E94ED31FA94F4CFF7
:10538000F20137FC859137FE81912F01B60190E043
:105390000E94ED31F110FA94015011090115110527
:1053A00079F7F8C0843611F0893659F5520127FF94
:1053B00009C0F4E0AF0EB11CF201608171818281FD
:1053C00093810AC0F2E0AF0EB11CF20160817181DD
:1053D000072E000C880B990B2F76322E97FF09C0F1
:1053E00090958095709561957F4F8F4F9F4F206866
:1053F000322E2AE030E0A3010E945532E82EE61852
:105400003FC0022F853721F40F7E2AE030E01DC017
:10541000097F8F3691F018F4883559F0C5C0803770
:1054200019F0883711F0C0C0006104FF09C00460A2
:1054300007C024FF08C0066006C028E030E005C0B1
:1054400020E130E002C020E132E0520107FF09C054
:10545000F4E0AF0EB11CF201608171818281938111
:1054600008C0F2E0AF0EB11CF2016081718180E0F2
:1054700090E0A3010E945532E82EE6180F77302EF7
:1054800036FE0BC0332D3E7FE11650F434FE0AC0C9
:1054900032FC08C0332D3E7E05C00E2D332D03C0D7
:1054A0000E2D01C0012F34FF0CC0FE01EE0DF11DC9
:1054B0008081803311F4397E08C032FF05C00E5F51
:1054C00004C0832F867809F00F5F33FD13C030FFCF
:1054D00006C01E2D0F1518F41F0D101B0F2D0F15D4
:1054E00068F4B60180E290E03B8B0E94ED310F5FE3
:1054F0003B89F5CF0F1510F4F01A01C0F12C34FFE1
:1055000012C0B60180E390E03B8B0E94ED313B89F5
:1055100032FF17C031FD03C088E790E002C088E584
:1055200090E0B6010CC0832F867859F031FF02C09D
:105530008BE201C080E237FD8DE2B60190E00E946F
:10554000ED31E11638F4B60180E390E00E94ED31D0
:105550001150F7CFEA94F301EE0DF11D8081B601F1
:1055600090E00E94ED31E110F5CF14C0F4E0FF159A
:1055700058F584E0F81A33FE1EC0211026C003FF40
:105580002AC004E811E0F32DF0713F2EF801849158
:10559000811124C0FF2009F4E5CCB60180E290E03F
:1055A0000E94ED31FA94F6CFF6018681978126C0EC
:1055B0008FEF9FEF23C0B60180E290E00E94ED31B3
:1055C000FA94F110F8CFD9CFF12CB601822D90E0EA
:1055D0000E94ED31D4CF08E811E0D5CF31108052D0
:1055E000B60190E00E94ED310F5F1F4FCFCF23E057
:1055F0002F1510F483E0BECFF12CC1CF63960FB608
:10560000F894DEBF0FBECDBFDF91CF911F910F91F8
:10561000FF90EF90DF90CF90BF90AF909F908F90D2
:105620007F906F905F904F903F902F9008955058CB
:10563000BB27AA270E942F2B0C94792C0E946B2C3D
:1056400038F00E94722C20F039F49F3F19F426F4B0
:105650000C94682C0EF4E095E7FB0C94622CE92F77
:105660000E948A2C58F3BA176207730784079507BC
:1056700020F079F4A6F50C94AC2C0EF4E0950B2EEA
:10568000BA2FA02D0B01B90190010C01CA01A00194
:105690001124FF27591B99F0593F50F4503E68F1EF
:1056A0001A16F040A22F232F342F4427585FF3CF30
:1056B000469537952795A795F0405395C9F77EF401
:1056C0001F16BA0B620B730B840BBAF09150A1F04A
:1056D000FF0FBB1F661F771F881FC2F70EC0BA0FD0
:1056E000621F731F841F48F4879577956795B79558
:1056F000F7959E3F08F0B0CF9395880F08F0992753
:10570000EE0F9795879508950E94982B0C94792C0D
:105710000E94722C58F00E946B2C40F029F45F3FDD
:1057200029F00C94622C51110C94AD2C0C94682C23
:105730000E948A2C68F39923B1F3552391F3951BAA
:10574000550BBB27AA2762177307840738F09F5FA2
:105750005F4F220F331F441FAA1FA9F335D00E2E0F
:105760003AF0E0E832D091505040E695001CCAF77C
:105770002BD0FE2F29D0660F771F881FBB1F26173F
:1057800037074807AB07B0E809F0BB0B802DBF0116
:10579000FF2793585F4F3AF09E3F510578F00C94E5
:1057A000622C0C94AD2C5F3FE4F3983ED4F38695C5
:1057B00077956795B795F7959F5FC9F7880F911D06
:1057C0009695879597F90895E1E0660F771F881FF2
:1057D000BB1F621773078407BA0720F0621B730BA5
:1057E000840BBA0BEE1F88F7E09508950E94922C67
:1057F00088F09F5798F0B92F9927B751B0F0E1F092
:10580000660F771F881F991F1AF0BA95C9F714C041
:10581000B13091F00E94AC2CB1E008950C94AC2C06
:10582000672F782F8827B85F39F0B93FCCF386957A
:1058300077956795B395D9F73EF4909580957095D7
:1058400061957F4F8F4F9F4F0895E89409C097FB54
:105850003EF490958095709561957F4F8F4F9F4F47
:105860009923A9F0F92F96E9BB279395F69587958B
:1058700077956795B795F111F8CFFAF4BB0F11F44E
:1058800060FF1BC06F5F7F4F8F4F9F4F16C08823F5
:1058900011F096E911C0772321F09EE8872F762F2B
:1058A00005C0662371F096E8862F70E060E02AF06C
:1058B0009A95660F771F881FDAF7880F9695879558
:1058C00097F9089597F99F6780E870E060E0089580
:1058D0009FEF80EC089500240A9416161706180608
:1058E0000906089500240A941216130614060506E4
:1058F0000895092E0394000C11F4882352F0BB0F75
:1059000040F4BF2B11F460FF04C06F5F7F4F8F4FD7
:105910009F4F089557FD9058440F551F59F05F3F12
:1059200071F04795880F97FB991F61F09F3F79F0C1
:1059300087950895121613061406551FF2CF469543
:10594000F1DF08C0161617061806991FF1CF8695C5
:105950007105610508940895E894BB2766277727A9
:10596000CB0197F908950E94C62C0C94792C0E94C3
:105970006B2C38F00E94722C20F0952311F00C94BF
:10598000622C0C94682C11240C94AD2C0E948A2C4F
:1059900070F3959FC1F3950F50E0551F629FF00182
:1059A000729FBB27F00DB11D639FAA27F00DB11D9B
:1059B000AA1F649F6627B00DA11D661F829F222724
:1059C000B00DA11D621F739FB00DA11D621F839FAB
:1059D000A00D611D221F749F3327A00D611D231F81
:1059E000849F600D211D822F762F6A2F11249F57CF
:1059F00050409AF0F1F088234AF0EE0FFF1FBB1FD2
:105A0000661F771F881F91505040A9F79E3F510590
:105A100080F00C94622C0C94AD2C5F3FE4F3983E24
:105A2000D4F3869577956795B795F795E7959F5F3A
:105A3000C1F7FE2B880F911D9695879597F90895CC
:105A4000AA1BBB1B51E107C0AA1FBB1FA617B707A4
:105A500010F0A61BB70B881F991F5A95A9F78095C0
:105A60009095BC01CD01089597FB072E16F4009484
:105A700007D077FD09D00E94202D07FC05D03EF409
:105A8000909581959F4F0895709561957F4F0895EA
:105A9000A1E21A2EAA1BBB1BFD010DC0AA1FBB1F32
:105AA000EE1FFF1FA217B307E407F50720F0A21BA4
:105AB000B30BE40BF50B661F771F881F991F1A9411
:105AC00069F760957095809590959B01AC01BD013B
:105AD000CF010895EE0FFF1F0024001C0BBE07909E
